{
  "contractName": "Airdrop",
  "abi": [
    {
      "inputs": [
        {
          "internalType": "address",
          "name": "_token",
          "type": "address"
        },
        {
          "internalType": "string",
          "name": "_workflowHash",
          "type": "string"
        }
      ],
      "stateMutability": "nonpayable",
      "type": "constructor"
    },
    {
      "anonymous": false,
      "inputs": [
        {
          "indexed": false,
          "internalType": "address",
          "name": "to",
          "type": "address"
        },
        {
          "indexed": false,
          "internalType": "string",
          "name": "githubUserId",
          "type": "string"
        },
        {
          "indexed": false,
          "internalType": "uint256",
          "name": "value",
          "type": "uint256"
        }
      ],
      "name": "AirdropEvent",
      "type": "event"
    },
    {
      "inputs": [
        {
          "internalType": "string",
          "name": "",
          "type": "string"
        }
      ],
      "name": "githubWorkflows",
      "outputs": [
        {
          "internalType": "string",
          "name": "fileHash",
          "type": "string"
        },
        {
          "internalType": "address",
          "name": "account",
          "type": "address"
        }
      ],
      "stateMutability": "view",
      "type": "function"
    },
    {
      "inputs": [],
      "name": "token",
      "outputs": [
        {
          "internalType": "contract Web3ActionsToken",
          "name": "",
          "type": "address"
        }
      ],
      "stateMutability": "view",
      "type": "function"
    },
    {
      "inputs": [
        {
          "internalType": "string",
          "name": "_githubUserId",
          "type": "string"
        }
      ],
      "name": "requestAirdrop",
      "outputs": [],
      "stateMutability": "payable",
      "type": "function"
    },
    {
      "inputs": [
        {
          "internalType": "string",
          "name": "_githubUserId",
          "type": "string"
        },
        {
          "internalType": "address",
          "name": "_to",
          "type": "address"
        },
        {
          "internalType": "uint256",
          "name": "_contributionCount",
          "type": "uint256"
        },
        {
          "internalType": "uint256",
          "name": "_runId",
          "type": "uint256"
        },
        {
          "internalType": "bytes",
          "name": "_signature",
          "type": "bytes"
        }
      ],
      "name": "fulfillAirdrop",
      "outputs": [],
      "stateMutability": "nonpayable",
      "type": "function"
    }
  ],
  "bytecode": "0x60806040523480156200001157600080fd5b5060405162000f3138038062000f318339810160408190526200003491620001bf565b600280546001600160a01b0319166001600160a01b038416179055662386f26fc10000600355604080518082019091526007815266061697264726f760cc1b602082015262000086903390836200008e565b50506200033e565b6040518060400160405280828152602001846001600160a01b0316815250600183604051620000be91906200029a565b90815260200160405180910390206000820151816000019080519060200190620000ea92919062000119565b5060209190910151600190910180546001600160a01b0319166001600160a01b03909216919091179055505050565b8280546200012790620002eb565b90600052602060002090601f0160209004810192826200014b576000855562000196565b82601f106200016657805160ff191683800117855562000196565b8280016001018555821562000196579182015b828111156200019657825182559160200191906001019062000179565b50620001a4929150620001a8565b5090565b5b80821115620001a45760008155600101620001a9565b60008060408385031215620001d357600080fd5b82516001600160a01b0381168114620001eb57600080fd5b60208401519092506001600160401b03808211156200020957600080fd5b818501915085601f8301126200021e57600080fd5b81518181111562000233576200023362000328565b604051601f8201601f19908116603f011681019083821181831017156200025e576200025e62000328565b816040528281528860208487010111156200027857600080fd5b6200028b836020830160208801620002b8565b80955050505050509250929050565b60008251620002ae818460208701620002b8565b9190910192915050565b60005b83811015620002d5578181015183820152602001620002bb565b83811115620002e5576000848401525b50505050565b600181811c908216806200030057607f821691505b602082108114156200032257634e487b7160e01b600052602260045260246000fd5b50919050565b634e487b7160e01b600052604160045260246000fd5b610be3806200034e6000396000f3fe60806040526004361061003f5760003560e01c806353883c8c14610044578063615154311461007b578063789e36441461009d578063fc0c546a146100b0575b600080fd5b34801561005057600080fd5b5061006461005f3660046108ba565b6100e8565b604051610072929190610a99565b60405180910390f35b34801561008757600080fd5b5061009b610096366004610816565b6101a0565b005b61009b6100ab3660046107d4565b61061c565b3480156100bc57600080fd5b506002546100d0906001600160a01b031681565b6040516001600160a01b039091168152602001610072565b805160208183018101805160018252928201919093012091528054819061010e90610b5c565b80601f016020809104026020016040519081016040528092919081815260200182805461013a90610b5c565b80156101875780601f1061015c57610100808354040283529160200191610187565b820191906000526020600020905b81548152906001019060200180831161016a57829003601f168201915b505050600190930154919250506001600160a01b031682565b8260405180604001604052806007815260200166061697264726f760cc1b81525083838080601f016020809104026020016040519081016040528093929190818152602001838380828437600092019190915250506040516001925061020891508490610994565b90815260405190819003602001902060010154336001600160a01b039091161461028e5760405162461bcd60e51b815260206004820152602c60248201527f4f6e6c7920776f726b666c6f77206163636f756e742063616e2075736520746860448201526b34b990333ab731ba34b7b71760a11b60648201526084015b60405180910390fd5b60006103216001846040516102a39190610994565b908152604051602091819003820181206102c19290918891016109b0565b60408051601f1981840301815282825280516020918201207f19457468657265756d205369676e6564204d6573736167653a0a33320000000084830152603c8085019190915282518085039091018152605c909301909152815191012090565b9050600061032f82846106b4565b6000549091506001600160a01b038083169116146103845760405162461bcd60e51b815260206004820152601260248201527124b73b30b634b21039b4b3b730ba3ab9329760711b6044820152606401610285565b60058c8c604051610396929190610984565b9081526020016040518091039020546000146103f45760405162461bcd60e51b815260206004820152601860248201527f41697264726f7020616c726561647920636c61696d65642e00000000000000006044820152606401610285565b6127108911156104045761271098505b6000600a61041a8b670de0b6b3a7640000610aff565b6104249190610add565b6002546040516370a0823160e01b815230600482015291925082916001600160a01b03909116906370a082319060240160206040518083038186803b15801561046c57600080fd5b505afa158015610480573d6000803e3d6000fd5b505050506040513d601f19601f820116820180604052508101906104a4919061096b565b1015610528576002546040516370a0823160e01b81523060048201526001600160a01b03909116906370a082319060240160206040518083038186803b1580156104ed57600080fd5b505afa158015610501573d6000803e3d6000fd5b505050506040513d601f19601f82011682018060405250810190610525919061096b565b90505b8060058e8e60405161053b929190610984565b9081526040519081900360200181209190915560025463a9059cbb60e01b82526001600160a01b038d8116600484015260248301849052169063a9059cbb90604401602060405180830381600087803b15801561059757600080fd5b505af11580156105ab573d6000803e3d6000fd5b505050506040513d601f19601f820116820180604052508101906105cf91906107ab565b507ff25fea44d945d826a9c6b801582ae0a189959d0171175e0dea4959d78699d38b8b8e8e846040516106059493929190610a4f565b60405180910390a150505050505050505050505050565b60035434101561067c5760405162461bcd60e51b815260206004820152602560248201527f45544820616d6f756e7420746f6f206c6f7720746f2070617920666f72206f7260448201526430b1b6329760d91b6064820152608401610285565b600160048383604051610690929190610984565b908152604051908190036020019020805491151560ff199092169190911790555050565b6000806000806106c385610733565b6040805160008152602081018083528b905260ff8516918101919091526060810183905260808101829052929550909350915060019060a0016020604051602081039080840390855afa15801561071e573d6000803e3d6000fd5b5050604051601f190151979650505050505050565b6000806000835160411461074657600080fd5b5050506020810151604082015160609092015160001a92909190565b60008083601f84011261077457600080fd5b50813567ffffffffffffffff81111561078c57600080fd5b6020830191508360208285010111156107a457600080fd5b9250929050565b6000602082840312156107bd57600080fd5b815180151581146107cd57600080fd5b9392505050565b600080602083850312156107e757600080fd5b823567ffffffffffffffff8111156107fe57600080fd5b61080a85828601610762565b90969095509350505050565b600080600080600080600060a0888a03121561083157600080fd5b873567ffffffffffffffff8082111561084957600080fd5b6108558b838c01610762565b909950975060208a013591506001600160a01b038216821461087657600080fd5b90955060408901359450606089013593506080890135908082111561089a57600080fd5b506108a78a828b01610762565b989b979a50959850939692959293505050565b6000602082840312156108cc57600080fd5b813567ffffffffffffffff808211156108e457600080fd5b818401915084601f8301126108f857600080fd5b81358181111561090a5761090a610b97565b604051601f8201601f19908116603f0116810190838211818310171561093257610932610b97565b8160405282815287602084870101111561094b57600080fd5b826020860160208301376000928101602001929092525095945050505050565b60006020828403121561097d57600080fd5b5051919050565b8183823760009101908152919050565b600082516109a6818460208701610b2c565b9190910192915050565b600080845481600182811c9150808316806109cc57607f831692505b60208084108214156109ec57634e487b7160e01b86526022600452602486fd5b818015610a005760018114610a1157610a3e565b60ff19861689528489019650610a3e565b60008b81526020902060005b86811015610a365781548b820152908501908301610a1d565b505084890196505b509785525050509301949350505050565b6001600160a01b038516815260606020820181905281018390528284608083013760006080848301015260006080601f19601f860116830101905082604083015295945050505050565b6040815260008351806040840152610ab8816060850160208801610b2c565b6001600160a01b0393909316602083015250601f91909101601f191601606001919050565b600082610afa57634e487b7160e01b600052601260045260246000fd5b500490565b6000816000190483118215151615610b2757634e487b7160e01b600052601160045260246000fd5b500290565b60005b83811015610b47578181015183820152602001610b2f565b83811115610b56576000848401525b50505050565b600181811c90821680610b7057607f821691505b60208210811415610b9157634e487b7160e01b600052602260045260246000fd5b50919050565b634e487b7160e01b600052604160045260246000fdfea2646970667358221220ff7fe43d9005e28ddb70bab017d53cfebc7e2dc547e519ef82a4e1f1484109a364736f6c63430008070033",
  "immutableReferences": {},
  "source": "// SPDX-License-Identifier: MIT\npragma solidity 0.8.7;\n\nimport '../GithubWorkflowClient.sol';\nimport './Web3ActionsToken.sol';\n\ncontract Airdrop is GithubWorkflowClient {\n  Web3ActionsToken public token;\n  uint256 claimFee;\n  mapping(string => bool) unlocked;\n  mapping(string => uint256) claimed;\n\n  constructor(address _token, string memory _workflowHash) {\n    token = Web3ActionsToken(_token);\n    claimFee = 10000000000000000;\n    registerGithubWorkflow(msg.sender, \"airdrop\", _workflowHash);\n  }\n\n  function requestAirdrop(string calldata _githubUserId) payable public {\n    require(msg.value >= claimFee, \"ETH amount too low to pay for oracle.\");\n    unlocked[_githubUserId] = true;\n  }\n\n  event AirdropEvent(address to, string githubUserId, uint256 value);\n\n  function fulfillAirdrop(\n    string calldata _githubUserId,\n    address _to,\n    uint256 _contributionCount,\n    uint256 _runId,\n    bytes calldata _signature\n  )\n    public\n    onlyGithubWorkflow(_runId, \"airdrop\", _signature)\n  {\n    require(claimed[_githubUserId] == 0, \"Airdrop already claimed.\");\n    if (_contributionCount > 10000) {\n      _contributionCount = 10000;\n    }\n    uint256 value = (_contributionCount * 10**18) / 10;\n    // cap last airdrop if not enough tokens remain\n    if (token.balanceOf(address(this)) < value) {\n      value = token.balanceOf(address(this));\n    }\n    claimed[_githubUserId] = value;\n    token.transfer(_to, value);\n\n    emit AirdropEvent(_to, _githubUserId, value);\n  }\n}",
  "sourcePath": "/home/mkt/Projects/web3actions/contracts/src/token/Airdrop.sol",
  "compiler": {
    "name": "solc",
    "version": "0.8.7+commit.e28d00a7.Emscripten.clang"
  },
  "schemaVersion": "3.4.3",
  "updatedAt": "2021-09-30T19:20:13.573Z",
  "devdoc": {
    "kind": "dev",
    "methods": {},
    "version": 1
  },
  "userdoc": {
    "kind": "user",
    "methods": {},
    "version": 1
  }
}