{
  "contractName": "Airdrop",
  "abi": [
    {
      "inputs": [
        {
          "internalType": "address",
          "name": "_token",
          "type": "address"
        }
      ],
      "stateMutability": "nonpayable",
      "type": "constructor"
    },
    {
      "anonymous": false,
      "inputs": [
        {
          "indexed": false,
          "internalType": "address",
          "name": "to",
          "type": "address"
        },
        {
          "indexed": false,
          "internalType": "string",
          "name": "githubUserId",
          "type": "string"
        },
        {
          "indexed": false,
          "internalType": "uint256",
          "name": "value",
          "type": "uint256"
        }
      ],
      "name": "AirdropEvent",
      "type": "event"
    },
    {
      "inputs": [
        {
          "internalType": "string",
          "name": "",
          "type": "string"
        }
      ],
      "name": "githubWorkflows",
      "outputs": [
        {
          "internalType": "string",
          "name": "fileHash",
          "type": "string"
        },
        {
          "internalType": "address",
          "name": "account",
          "type": "address"
        }
      ],
      "stateMutability": "view",
      "type": "function"
    },
    {
      "inputs": [],
      "name": "token",
      "outputs": [
        {
          "internalType": "contract Web3ActionsToken",
          "name": "",
          "type": "address"
        }
      ],
      "stateMutability": "view",
      "type": "function"
    },
    {
      "inputs": [
        {
          "internalType": "string",
          "name": "_hash",
          "type": "string"
        }
      ],
      "name": "registerWorkflow",
      "outputs": [],
      "stateMutability": "nonpayable",
      "type": "function"
    },
    {
      "inputs": [
        {
          "internalType": "string",
          "name": "_githubUserId",
          "type": "string"
        }
      ],
      "name": "requestAirdrop",
      "outputs": [],
      "stateMutability": "payable",
      "type": "function"
    },
    {
      "inputs": [
        {
          "internalType": "string",
          "name": "_githubUserId",
          "type": "string"
        }
      ],
      "name": "isPayed",
      "outputs": [
        {
          "internalType": "bool",
          "name": "",
          "type": "bool"
        }
      ],
      "stateMutability": "view",
      "type": "function"
    },
    {
      "inputs": [
        {
          "internalType": "string",
          "name": "_githubUserId",
          "type": "string"
        },
        {
          "internalType": "address",
          "name": "_to",
          "type": "address"
        },
        {
          "internalType": "uint256",
          "name": "_contributionCount",
          "type": "uint256"
        },
        {
          "internalType": "uint256",
          "name": "_runId",
          "type": "uint256"
        },
        {
          "internalType": "bytes",
          "name": "_signature",
          "type": "bytes"
        }
      ],
      "name": "fulfillAirdrop",
      "outputs": [],
      "stateMutability": "nonpayable",
      "type": "function"
    }
  ],
  "bytecode": "0x608060405234801561001057600080fd5b50604051610fcd380380610fcd83398101604081905261002f9161006d565b60038054336001600160a01b031991821617909155600480549091166001600160a01b0392909216919091179055662386f26fc1000060055561009d565b60006020828403121561007f57600080fd5b81516001600160a01b038116811461009657600080fd5b9392505050565b610f21806100ac6000396000f3fe6080604052600436106100555760003560e01c806353883c8c1461005a578063615154311461009157806372afcf24146100b3578063789e3644146100e3578063809ef7ad146100f6578063fc0c546a14610116575b600080fd5b34801561006657600080fd5b5061007a610075366004610bf8565b61014e565b604051610088929190610dd7565b60405180910390f35b34801561009d57600080fd5b506100b16100ac366004610b54565b610206565b005b3480156100bf57600080fd5b506100d36100ce366004610b12565b61078c565b6040519015158152602001610088565b6100b16100f1366004610b12565b6107bb565b34801561010257600080fd5b506100b1610111366004610bf8565b610853565b34801561012257600080fd5b50600454610136906001600160a01b031681565b6040516001600160a01b039091168152602001610088565b805160208183018101805160028252928201919093012091528054819061017490610e9a565b80601f01602080910402602001604051908101604052809291908181526020018280546101a090610e9a565b80156101ed5780601f106101c2576101008083540402835291602001916101ed565b820191906000526020600020905b8154815290600101906020018083116101d057829003601f168201915b505050600190930154919250506001600160a01b031682565b8260405180604001604052806007815260200166061697264726f760cc1b81525083838080601f016020809104026020016040519081016040528093929190818152602001838380828437600092019190915250506040516002925061026e91508490610cd2565b90815260405190819003602001902060010154336001600160a01b03909116146102f45760405162461bcd60e51b815260206004820152602c60248201527f4f6e6c7920776f726b666c6f77206163636f756e742063616e2075736520746860448201526b34b990333ab731ba34b7b71760a11b60648201526084015b60405180910390fd5b60008381526001602052604090205460ff161561034a5760405162461bcd60e51b8152602060048201526014602482015273293ab71024a21030b63932b0b23c903ab9b2b21760611b60448201526064016102eb565b6000838152600160208190526040808320805460ff1916909217909155516103f89060029061037a908690610cd2565b90815260405160209181900382018120610398929091889101610cee565b60408051601f1981840301815282825280516020918201207f19457468657265756d205369676e6564204d6573736167653a0a33320000000084830152603c8085019190915282518085039091018152605c909301909152815191012090565b9050600061040682846108d2565b6000549091506001600160a01b0380831691161461045b5760405162461bcd60e51b815260206004820152601260248201527124b73b30b634b21039b4b3b730ba3ab9329760711b60448201526064016102eb565b60068c8c60405161046d929190610cc2565b9081526040519081900360200190205460ff1615156001146104e15760405162461bcd60e51b815260206004820152602760248201527f4f7261636c652066656520776173206e6f7420706179656420666f722074686960448201526639903ab9b2b91760c91b60648201526084016102eb565b60078c8c6040516104f3929190610cc2565b9081526020016040518091039020546000146105515760405162461bcd60e51b815260206004820152601860248201527f41697264726f7020616c726561647920636c61696d65642e000000000000000060448201526064016102eb565b6127108911156105615761271098505b6000600a6105778b670de0b6b3a7640000610e3d565b6105819190610e1b565b600480546040516370a0823160e01b8152309281019290925291925082916001600160a01b0316906370a082319060240160206040518083038186803b1580156105ca57600080fd5b505afa1580156105de573d6000803e3d6000fd5b505050506040513d601f19601f820116820180604052508101906106029190610ca9565b101561068757600480546040516370a0823160e01b815230928101929092526001600160a01b0316906370a082319060240160206040518083038186803b15801561064c57600080fd5b505afa158015610660573d6000803e3d6000fd5b505050506040513d601f19601f820116820180604052508101906106849190610ca9565b90505b8060078e8e60405161069a929190610cc2565b908152604051908190036020018120919091556004805463a9059cbb60e01b83526001600160a01b03169163a9059cbb916106ed918f918691016001600160a01b03929092168252602082015260400190565b602060405180830381600087803b15801561070757600080fd5b505af115801561071b573d6000803e3d6000fd5b505050506040513d601f19601f8201168201806040525081019061073f9190610ae9565b507ff25fea44d945d826a9c6b801582ae0a189959d0171175e0dea4959d78699d38b8b8e8e846040516107759493929190610d8d565b60405180910390a150505050505050505050505050565b6000600683836040516107a0929190610cc2565b9081526040519081900360200190205460ff16905092915050565b60055434101561081b5760405162461bcd60e51b815260206004820152602560248201527f45544820616d6f756e7420746f6f206c6f7720746f2070617920666f72206f7260448201526430b1b6329760d91b60648201526084016102eb565b60016006838360405161082f929190610cc2565b908152604051908190036020019020805491151560ff199092169190911790555050565b6003546001600160a01b0316331461089a5760405162461bcd60e51b815260206004820152600a60248201526927b7363c9037bbb732b960b11b60448201526064016102eb565b600354604080518082019091526007815266061697264726f760cc1b60208201526108cf916001600160a01b03169083610951565b50565b6000806000806108e1856109d8565b6040805160008152602081018083528b905260ff8516918101919091526060810183905260808101829052929550909350915060019060a0016020604051602081039080840390855afa15801561093c573d6000803e3d6000fd5b5050604051601f190151979650505050505050565b6040518060400160405280828152602001846001600160a01b031681525060028360405161097f9190610cd2565b908152602001604051809103902060008201518160000190805190602001906109a9929190610a07565b5060209190910151600190910180546001600160a01b0319166001600160a01b03909216919091179055505050565b600080600083516041146109eb57600080fd5b5050506020810151604082015160609092015160001a92909190565b828054610a1390610e9a565b90600052602060002090601f016020900481019282610a355760008555610a7b565b82601f10610a4e57805160ff1916838001178555610a7b565b82800160010185558215610a7b579182015b82811115610a7b578251825591602001919060010190610a60565b50610a87929150610a8b565b5090565b5b80821115610a875760008155600101610a8c565b60008083601f840112610ab257600080fd5b50813567ffffffffffffffff811115610aca57600080fd5b602083019150836020828501011115610ae257600080fd5b9250929050565b600060208284031215610afb57600080fd5b81518015158114610b0b57600080fd5b9392505050565b60008060208385031215610b2557600080fd5b823567ffffffffffffffff811115610b3c57600080fd5b610b4885828601610aa0565b90969095509350505050565b600080600080600080600060a0888a031215610b6f57600080fd5b873567ffffffffffffffff80821115610b8757600080fd5b610b938b838c01610aa0565b909950975060208a013591506001600160a01b0382168214610bb457600080fd5b909550604089013594506060890135935060808901359080821115610bd857600080fd5b50610be58a828b01610aa0565b989b979a50959850939692959293505050565b600060208284031215610c0a57600080fd5b813567ffffffffffffffff80821115610c2257600080fd5b818401915084601f830112610c3657600080fd5b813581811115610c4857610c48610ed5565b604051601f8201601f19908116603f01168101908382118183101715610c7057610c70610ed5565b81604052828152876020848701011115610c8957600080fd5b826020860160208301376000928101602001929092525095945050505050565b600060208284031215610cbb57600080fd5b5051919050565b8183823760009101908152919050565b60008251610ce4818460208701610e6a565b9190910192915050565b600080845481600182811c915080831680610d0a57607f831692505b6020808410821415610d2a57634e487b7160e01b86526022600452602486fd5b818015610d3e5760018114610d4f57610d7c565b60ff19861689528489019650610d7c565b60008b81526020902060005b86811015610d745781548b820152908501908301610d5b565b505084890196505b509785525050509301949350505050565b6001600160a01b038516815260606020820181905281018390528284608083013760006080848301015260006080601f19601f860116830101905082604083015295945050505050565b6040815260008351806040840152610df6816060850160208801610e6a565b6001600160a01b0393909316602083015250601f91909101601f191601606001919050565b600082610e3857634e487b7160e01b600052601260045260246000fd5b500490565b6000816000190483118215151615610e6557634e487b7160e01b600052601160045260246000fd5b500290565b60005b83811015610e85578181015183820152602001610e6d565b83811115610e94576000848401525b50505050565b600181811c90821680610eae57607f821691505b60208210811415610ecf57634e487b7160e01b600052602260045260246000fd5b50919050565b634e487b7160e01b600052604160045260246000fdfea26469706673582212200747496f73e9d156a1f9a96c12b1ac9c203628bc6f17c7793f1b8930f84f4da264736f6c63430008070033",
  "immutableReferences": {},
  "source": "// SPDX-License-Identifier: MIT\npragma solidity 0.8.7;\n\nimport '../GithubWorkflowClient.sol';\nimport './Web3ActionsToken.sol';\n\ncontract Airdrop is GithubWorkflowClient {\n  address owner;\n  Web3ActionsToken public token;\n  uint256 claimFee;\n  mapping(string => bool) payments;\n  mapping(string => uint256) claimed;\n\n  constructor(address _token) {\n    owner = msg.sender;\n    token = Web3ActionsToken(_token);\n    claimFee = 10000000000000000;\n  }\n\n  function registerWorkflow(string memory _hash) public {\n    require(msg.sender == owner, \"Only owner\");\n    registerGithubWorkflow(owner, \"airdrop\", _hash);\n  }\n\n  function requestAirdrop(string calldata _githubUserId) payable public {\n    require(msg.value >= claimFee, \"ETH amount too low to pay for oracle.\");\n    payments[_githubUserId] = true;\n  }\n\n  function isPayed(string calldata _githubUserId) public view returns(bool) {\n    return payments[_githubUserId];\n  }\n\n  event AirdropEvent(address to, string githubUserId, uint256 value);\n\n  function fulfillAirdrop(\n    string calldata _githubUserId,\n    address _to,\n    uint256 _contributionCount,\n    uint256 _runId,\n    bytes calldata _signature\n  )\n    public\n    onlyGithubWorkflow(_runId, \"airdrop\", _signature)\n  {\n    require(payments[_githubUserId] == true, \"Oracle fee was not payed for this user.\");\n    require(claimed[_githubUserId] == 0, \"Airdrop already claimed.\");\n    if (_contributionCount > 10000) {\n      _contributionCount = 10000;\n    }\n    uint256 value = (_contributionCount * 10**18) / 10;\n    // cap last airdrop if not enough tokens remain\n    if (token.balanceOf(address(this)) < value) {\n      value = token.balanceOf(address(this));\n    }\n    claimed[_githubUserId] = value;\n    token.transfer(_to, value);\n\n    emit AirdropEvent(_to, _githubUserId, value);\n  }\n}",
  "sourcePath": "/home/mkt/Projects/web3actions/contracts/src/token/Airdrop.sol",
  "compiler": {
    "name": "solc",
    "version": "0.8.7+commit.e28d00a7.Emscripten.clang"
  },
  "schemaVersion": "3.4.3",
  "updatedAt": "2021-09-30T19:59:04.600Z",
  "devdoc": {
    "kind": "dev",
    "methods": {},
    "version": 1
  },
  "userdoc": {
    "kind": "user",
    "methods": {},
    "version": 1
  }
}