{
  "contractName": "Airdrop",
  "abi": [
    {
      "inputs": [
        {
          "internalType": "address",
          "name": "_token",
          "type": "address"
        }
      ],
      "stateMutability": "nonpayable",
      "type": "constructor"
    },
    {
      "anonymous": false,
      "inputs": [
        {
          "indexed": false,
          "internalType": "address",
          "name": "to",
          "type": "address"
        },
        {
          "indexed": false,
          "internalType": "string",
          "name": "githubUserId",
          "type": "string"
        },
        {
          "indexed": false,
          "internalType": "uint256",
          "name": "value",
          "type": "uint256"
        }
      ],
      "name": "AirdropEvent",
      "type": "event"
    },
    {
      "inputs": [
        {
          "internalType": "string",
          "name": "",
          "type": "string"
        }
      ],
      "name": "githubWorkflows",
      "outputs": [
        {
          "internalType": "string",
          "name": "fileHash",
          "type": "string"
        },
        {
          "internalType": "address",
          "name": "account",
          "type": "address"
        }
      ],
      "stateMutability": "view",
      "type": "function"
    },
    {
      "inputs": [],
      "name": "token",
      "outputs": [
        {
          "internalType": "contract Web3ActionsToken",
          "name": "",
          "type": "address"
        }
      ],
      "stateMutability": "view",
      "type": "function"
    },
    {
      "inputs": [
        {
          "internalType": "string",
          "name": "_hash",
          "type": "string"
        }
      ],
      "name": "registerWorkflow",
      "outputs": [],
      "stateMutability": "nonpayable",
      "type": "function"
    },
    {
      "inputs": [
        {
          "internalType": "string",
          "name": "_githubUserId",
          "type": "string"
        }
      ],
      "name": "requestAirdrop",
      "outputs": [],
      "stateMutability": "payable",
      "type": "function"
    },
    {
      "inputs": [
        {
          "internalType": "string",
          "name": "_githubUserId",
          "type": "string"
        },
        {
          "internalType": "address",
          "name": "_to",
          "type": "address"
        },
        {
          "internalType": "uint256",
          "name": "_contributionCount",
          "type": "uint256"
        },
        {
          "internalType": "uint256",
          "name": "_runId",
          "type": "uint256"
        },
        {
          "internalType": "bytes",
          "name": "_signature",
          "type": "bytes"
        }
      ],
      "name": "fulfillAirdrop",
      "outputs": [],
      "stateMutability": "nonpayable",
      "type": "function"
    }
  ],
  "bytecode": "0x608060405234801561001057600080fd5b50604051610edf380380610edf83398101604081905261002f9161006d565b60028054336001600160a01b031991821617909155600380549091166001600160a01b0392909216919091179055662386f26fc1000060045561009d565b60006020828403121561007f57600080fd5b81516001600160a01b038116811461009657600080fd5b9392505050565b610e33806100ac6000396000f3fe60806040526004361061004a5760003560e01c806353883c8c1461004f5780636151543114610086578063789e3644146100a8578063809ef7ad146100bb578063fc0c546a146100db575b600080fd5b34801561005b57600080fd5b5061006f61006a366004610b0a565b610113565b60405161007d929190610ce9565b60405180910390f35b34801561009257600080fd5b506100a66100a1366004610a66565b6101cb565b005b6100a66100b6366004610a24565b6106cd565b3480156100c757600080fd5b506100a66100d6366004610b0a565b610765565b3480156100e757600080fd5b506003546100fb906001600160a01b031681565b6040516001600160a01b03909116815260200161007d565b805160208183018101805160018252928201919093012091528054819061013990610dac565b80601f016020809104026020016040519081016040528092919081815260200182805461016590610dac565b80156101b25780601f10610187576101008083540402835291602001916101b2565b820191906000526020600020905b81548152906001019060200180831161019557829003601f168201915b505050600190930154919250506001600160a01b031682565b8260405180604001604052806007815260200166061697264726f760cc1b81525083838080601f016020809104026020016040519081016040528093929190818152602001838380828437600092019190915250506040516001925061023391508490610be4565b90815260405190819003602001902060010154336001600160a01b03909116146102b95760405162461bcd60e51b815260206004820152602c60248201527f4f6e6c7920776f726b666c6f77206163636f756e742063616e2075736520746860448201526b34b990333ab731ba34b7b71760a11b60648201526084015b60405180910390fd5b600061034c6001846040516102ce9190610be4565b908152604051602091819003820181206102ec929091889101610c00565b60408051601f1981840301815282825280516020918201207f19457468657265756d205369676e6564204d6573736167653a0a33320000000084830152603c8085019190915282518085039091018152605c909301909152815191012090565b9050600061035a82846107e4565b6000549091506001600160a01b038083169116146103af5760405162461bcd60e51b815260206004820152601260248201527124b73b30b634b21039b4b3b730ba3ab9329760711b60448201526064016102b0565b60058c8c6040516103c1929190610bd4565b9081526040519081900360200190205460ff1615156001146104355760405162461bcd60e51b815260206004820152602760248201527f4f7261636c652066656520776173206e6f7420706179656420666f722074686960448201526639903ab9b2b91760c91b60648201526084016102b0565b60068c8c604051610447929190610bd4565b9081526020016040518091039020546000146104a55760405162461bcd60e51b815260206004820152601860248201527f41697264726f7020616c726561647920636c61696d65642e000000000000000060448201526064016102b0565b6127108911156104b55761271098505b6000600a6104cb8b670de0b6b3a7640000610d4f565b6104d59190610d2d565b6003546040516370a0823160e01b815230600482015291925082916001600160a01b03909116906370a082319060240160206040518083038186803b15801561051d57600080fd5b505afa158015610531573d6000803e3d6000fd5b505050506040513d601f19601f820116820180604052508101906105559190610bbb565b10156105d9576003546040516370a0823160e01b81523060048201526001600160a01b03909116906370a082319060240160206040518083038186803b15801561059e57600080fd5b505afa1580156105b2573d6000803e3d6000fd5b505050506040513d601f19601f820116820180604052508101906105d69190610bbb565b90505b8060068e8e6040516105ec929190610bd4565b9081526040519081900360200181209190915560035463a9059cbb60e01b82526001600160a01b038d8116600484015260248301849052169063a9059cbb90604401602060405180830381600087803b15801561064857600080fd5b505af115801561065c573d6000803e3d6000fd5b505050506040513d601f19601f8201168201806040525081019061068091906109fb565b507ff25fea44d945d826a9c6b801582ae0a189959d0171175e0dea4959d78699d38b8b8e8e846040516106b69493929190610c9f565b60405180910390a150505050505050505050505050565b60045434101561072d5760405162461bcd60e51b815260206004820152602560248201527f45544820616d6f756e7420746f6f206c6f7720746f2070617920666f72206f7260448201526430b1b6329760d91b60648201526084016102b0565b600160058383604051610741929190610bd4565b908152604051908190036020019020805491151560ff199092169190911790555050565b6002546001600160a01b031633146107ac5760405162461bcd60e51b815260206004820152600a60248201526927b7363c9037bbb732b960b11b60448201526064016102b0565b600254604080518082019091526007815266061697264726f760cc1b60208201526107e1916001600160a01b03169083610863565b50565b6000806000806107f3856108ea565b6040805160008152602081018083528b905260ff8516918101919091526060810183905260808101829052929550909350915060019060a0016020604051602081039080840390855afa15801561084e573d6000803e3d6000fd5b5050604051601f190151979650505050505050565b6040518060400160405280828152602001846001600160a01b03168152506001836040516108919190610be4565b908152602001604051809103902060008201518160000190805190602001906108bb929190610919565b5060209190910151600190910180546001600160a01b0319166001600160a01b03909216919091179055505050565b600080600083516041146108fd57600080fd5b5050506020810151604082015160609092015160001a92909190565b82805461092590610dac565b90600052602060002090601f016020900481019282610947576000855561098d565b82601f1061096057805160ff191683800117855561098d565b8280016001018555821561098d579182015b8281111561098d578251825591602001919060010190610972565b5061099992915061099d565b5090565b5b80821115610999576000815560010161099e565b60008083601f8401126109c457600080fd5b50813567ffffffffffffffff8111156109dc57600080fd5b6020830191508360208285010111156109f457600080fd5b9250929050565b600060208284031215610a0d57600080fd5b81518015158114610a1d57600080fd5b9392505050565b60008060208385031215610a3757600080fd5b823567ffffffffffffffff811115610a4e57600080fd5b610a5a858286016109b2565b90969095509350505050565b600080600080600080600060a0888a031215610a8157600080fd5b873567ffffffffffffffff80821115610a9957600080fd5b610aa58b838c016109b2565b909950975060208a013591506001600160a01b0382168214610ac657600080fd5b909550604089013594506060890135935060808901359080821115610aea57600080fd5b50610af78a828b016109b2565b989b979a50959850939692959293505050565b600060208284031215610b1c57600080fd5b813567ffffffffffffffff80821115610b3457600080fd5b818401915084601f830112610b4857600080fd5b813581811115610b5a57610b5a610de7565b604051601f8201601f19908116603f01168101908382118183101715610b8257610b82610de7565b81604052828152876020848701011115610b9b57600080fd5b826020860160208301376000928101602001929092525095945050505050565b600060208284031215610bcd57600080fd5b5051919050565b8183823760009101908152919050565b60008251610bf6818460208701610d7c565b9190910192915050565b600080845481600182811c915080831680610c1c57607f831692505b6020808410821415610c3c57634e487b7160e01b86526022600452602486fd5b818015610c505760018114610c6157610c8e565b60ff19861689528489019650610c8e565b60008b81526020902060005b86811015610c865781548b820152908501908301610c6d565b505084890196505b509785525050509301949350505050565b6001600160a01b038516815260606020820181905281018390528284608083013760006080848301015260006080601f19601f860116830101905082604083015295945050505050565b6040815260008351806040840152610d08816060850160208801610d7c565b6001600160a01b0393909316602083015250601f91909101601f191601606001919050565b600082610d4a57634e487b7160e01b600052601260045260246000fd5b500490565b6000816000190483118215151615610d7757634e487b7160e01b600052601160045260246000fd5b500290565b60005b83811015610d97578181015183820152602001610d7f565b83811115610da6576000848401525b50505050565b600181811c90821680610dc057607f821691505b60208210811415610de157634e487b7160e01b600052602260045260246000fd5b50919050565b634e487b7160e01b600052604160045260246000fdfea2646970667358221220a5842a76d2d92a550a381a8ec5ad81c3756480c781b7fe53b09b7300fbf8779764736f6c63430008070033",
  "immutableReferences": {},
  "source": "// SPDX-License-Identifier: MIT\npragma solidity 0.8.7;\n\nimport '../GithubWorkflowClient.sol';\nimport './Web3ActionsToken.sol';\n\ncontract Airdrop is GithubWorkflowClient {\n  address owner;\n  Web3ActionsToken public token;\n  uint256 claimFee;\n  mapping(string => bool) unlocked;\n  mapping(string => uint256) claimed;\n\n  constructor(address _token) {\n    owner = msg.sender;\n    token = Web3ActionsToken(_token);\n    claimFee = 10000000000000000;\n  }\n\n  function registerWorkflow(string memory _hash) public {\n    require(msg.sender == owner, \"Only owner\");\n    registerGithubWorkflow(owner, \"airdrop\", _hash);\n  }\n\n  function requestAirdrop(string calldata _githubUserId) payable public {\n    require(msg.value >= claimFee, \"ETH amount too low to pay for oracle.\");\n    unlocked[_githubUserId] = true;\n  }\n\n  event AirdropEvent(address to, string githubUserId, uint256 value);\n\n  function fulfillAirdrop(\n    string calldata _githubUserId,\n    address _to,\n    uint256 _contributionCount,\n    uint256 _runId,\n    bytes calldata _signature\n  )\n    public\n    onlyGithubWorkflow(_runId, \"airdrop\", _signature)\n  {\n    require(unlocked[_githubUserId] == true, \"Oracle fee was not payed for this user.\");\n    require(claimed[_githubUserId] == 0, \"Airdrop already claimed.\");\n    if (_contributionCount > 10000) {\n      _contributionCount = 10000;\n    }\n    uint256 value = (_contributionCount * 10**18) / 10;\n    // cap last airdrop if not enough tokens remain\n    if (token.balanceOf(address(this)) < value) {\n      value = token.balanceOf(address(this));\n    }\n    claimed[_githubUserId] = value;\n    token.transfer(_to, value);\n\n    emit AirdropEvent(_to, _githubUserId, value);\n  }\n}",
  "sourcePath": "/home/mkt/Projects/web3actions/contracts/src/token/Airdrop.sol",
  "compiler": {
    "name": "solc",
    "version": "0.8.7+commit.e28d00a7.Emscripten.clang"
  },
  "schemaVersion": "3.4.3",
  "updatedAt": "2021-09-30T19:32:43.912Z",
  "devdoc": {
    "kind": "dev",
    "methods": {},
    "version": 1
  },
  "userdoc": {
    "kind": "user",
    "methods": {},
    "version": 1
  }
}