{
  "contractName": "Airdrop",
  "abi": [
    {
      "inputs": [
        {
          "internalType": "address",
          "name": "_token",
          "type": "address"
        },
        {
          "internalType": "string",
          "name": "_workflowHash",
          "type": "string"
        }
      ],
      "stateMutability": "nonpayable",
      "type": "constructor"
    },
    {
      "anonymous": false,
      "inputs": [
        {
          "indexed": false,
          "internalType": "uint256",
          "name": "requestId",
          "type": "uint256"
        },
        {
          "indexed": false,
          "internalType": "address",
          "name": "to",
          "type": "address"
        },
        {
          "indexed": false,
          "internalType": "string",
          "name": "githubUserId",
          "type": "string"
        },
        {
          "indexed": false,
          "internalType": "uint256",
          "name": "value",
          "type": "uint256"
        }
      ],
      "name": "AirdropEvent",
      "type": "event"
    },
    {
      "anonymous": false,
      "inputs": [
        {
          "indexed": false,
          "internalType": "uint256",
          "name": "requestId",
          "type": "uint256"
        }
      ],
      "name": "GithubWorkflowRequestEvent",
      "type": "event"
    },
    {
      "inputs": [],
      "name": "claimedTotal",
      "outputs": [
        {
          "internalType": "uint256",
          "name": "",
          "type": "uint256"
        }
      ],
      "stateMutability": "view",
      "type": "function"
    },
    {
      "inputs": [
        {
          "internalType": "string",
          "name": "_name",
          "type": "string"
        }
      ],
      "name": "getGithubWorkflowFee",
      "outputs": [
        {
          "internalType": "uint256",
          "name": "",
          "type": "uint256"
        }
      ],
      "stateMutability": "view",
      "type": "function"
    },
    {
      "inputs": [
        {
          "internalType": "uint256",
          "name": "_id",
          "type": "uint256"
        }
      ],
      "name": "getGithubWorkflowRequest",
      "outputs": [
        {
          "internalType": "string",
          "name": "fileHash",
          "type": "string"
        },
        {
          "internalType": "address",
          "name": "account",
          "type": "address"
        },
        {
          "internalType": "uint256",
          "name": "fee",
          "type": "uint256"
        },
        {
          "internalType": "address",
          "name": "sender",
          "type": "address"
        },
        {
          "internalType": "string",
          "name": "name",
          "type": "string"
        },
        {
          "internalType": "string",
          "name": "githubUserId",
          "type": "string"
        },
        {
          "internalType": "bool",
          "name": "fulfilled",
          "type": "bool"
        }
      ],
      "stateMutability": "view",
      "type": "function"
    },
    {
      "inputs": [
        {
          "internalType": "string",
          "name": "_name",
          "type": "string"
        },
        {
          "internalType": "uint256",
          "name": "_amount",
          "type": "uint256"
        }
      ],
      "name": "setGithubWorkflowFee",
      "outputs": [],
      "stateMutability": "nonpayable",
      "type": "function"
    },
    {
      "inputs": [
        {
          "internalType": "string",
          "name": "_name",
          "type": "string"
        },
        {
          "internalType": "string",
          "name": "_hash",
          "type": "string"
        }
      ],
      "name": "setGithubWorkflowHash",
      "outputs": [],
      "stateMutability": "nonpayable",
      "type": "function"
    },
    {
      "inputs": [],
      "name": "token",
      "outputs": [
        {
          "internalType": "contract CryptoActionsToken",
          "name": "",
          "type": "address"
        }
      ],
      "stateMutability": "view",
      "type": "function"
    },
    {
      "inputs": [
        {
          "internalType": "string",
          "name": "_githubUserId",
          "type": "string"
        }
      ],
      "name": "requestAirdrop",
      "outputs": [],
      "stateMutability": "payable",
      "type": "function"
    },
    {
      "inputs": [
        {
          "internalType": "uint256",
          "name": "_requestId",
          "type": "uint256"
        },
        {
          "internalType": "address",
          "name": "_to",
          "type": "address"
        },
        {
          "internalType": "uint256",
          "name": "_contributionCount",
          "type": "uint256"
        }
      ],
      "name": "fulfillAirdrop",
      "outputs": [],
      "stateMutability": "nonpayable",
      "type": "function"
    }
  ],
  "bytecode": "0x60806040523480156200001157600080fd5b506040516200147f3803806200147f8339810160408190526200003491620001cc565b600380546001600160a01b0319166001600160a01b038416179055604080518082019091526007815266061697264726f760cc1b60208201526200008390339083662386f26fc100006200008b565b50506200034b565b6040518060600160405280838152602001856001600160a01b0316815260200182815250600084604051620000c19190620002a7565b90815260200160405180910390206000820151816000019080519060200190620000ed92919062000126565b5060208201516001820180546001600160a01b0319166001600160a01b0390921691909117905560409091015160029091015550505050565b8280546200013490620002f8565b90600052602060002090601f016020900481019282620001585760008555620001a3565b82601f106200017357805160ff1916838001178555620001a3565b82800160010185558215620001a3579182015b82811115620001a357825182559160200191906001019062000186565b50620001b1929150620001b5565b5090565b5b80821115620001b15760008155600101620001b6565b60008060408385031215620001e057600080fd5b82516001600160a01b0381168114620001f857600080fd5b60208401519092506001600160401b03808211156200021657600080fd5b818501915085601f8301126200022b57600080fd5b81518181111562000240576200024062000335565b604051601f8201601f19908116603f011681019083821181831017156200026b576200026b62000335565b816040528281528860208487010111156200028557600080fd5b62000298836020830160208801620002c5565b80955050505050509250929050565b60008251620002bb818460208701620002c5565b9190910192915050565b60005b83811015620002e2578181015183820152602001620002c8565b83811115620002f2576000848401525b50505050565b600181811c908216806200030d57607f821691505b602082108114156200032f57634e487b7160e01b600052602260045260246000fd5b50919050565b634e487b7160e01b600052604160045260246000fd5b611124806200035b6000396000f3fe60806040526004361061007b5760003560e01c806391435b121161004e57806391435b1214610108578063c6fc65c314610128578063d3b7cd991461013e578063fc0c546a1461017157600080fd5b80630f2965e31461008057806312e59f82146100a25780635f27e0d3146100c2578063789e3644146100f5575b600080fd5b34801561008c57600080fd5b506100a061009b366004610d47565b6101a9565b005b3480156100ae57600080fd5b506100a06100bd366004610dac565b61025f565b3480156100ce57600080fd5b506100e26100dd366004610c99565b61054b565b6040519081526020015b60405180910390f35b6100a0610103366004610c99565b610578565b34801561011457600080fd5b506100a0610123366004610cdb565b6105dc565b34801561013457600080fd5b506100e260055481565b34801561014a57600080fd5b5061015e610159366004610d93565b610693565b6040516100ec9796959493929190610eba565b34801561017d57600080fd5b50600354610191906001600160a01b031681565b6040516001600160a01b0390911681526020016100ec565b82828080601f01602080910402602001604051908101604052809392919081815260200183838082843760009201829052506040519093506101ee9250849150610e2c565b90815260405190819003602001902060010154336001600160a01b03909116146102335760405162461bcd60e51b815260040161022a90610f28565b60405180910390fd5b8160008585604051610246929190610e1c565b9081526040519081900360200190206002015550505050565b60008381526001602081905260408083209051869392610280920190610e48565b90815260405190819003602001902060010154336001600160a01b03909116146102fe5760405162461bcd60e51b815260206004820152602960248201527f4f6e6c7920776f726b666c6f77206163636f756e7420726573706f6e6420746f604482015268103932b8bab2b9ba1760b91b606482015260840161022a565b60008181526001602052604090206003015460ff161561036c5760405162461bcd60e51b815260206004820152602360248201527f526571756573742068617320616c7265616479206265656e2066756c66696c6c60448201526232b21760e91b606482015260840161022a565b6000818152600160208190526040808320600301805460ff19169092179091558582529081902090516004916103a791600290910190610e48565b9081526020016040518091039020546000146104055760405162461bcd60e51b815260206004820152601860248201527f41697264726f7020616c726561647920636c61696d65642e0000000000000000604482015260640161022a565b6127108211156104155761271091505b6000600a61042b84670de0b6b3a7640000611033565b6104359190611011565b90508060046001600088815260200190815260200160002060020160405161045d9190610e48565b9081526040519081900360200181209190915560035463a9059cbb60e01b82526001600160a01b03868116600484015260248301849052169063a9059cbb90604401602060405180830381600087803b1580156104b957600080fd5b505af11580156104cd573d6000803e3d6000fd5b505050506040513d601f19601f820116820180604052508101906104f19190610c70565b507f95711d8c3e2c4e78ef265597b2248b9f3b3a5c800a4d910d19697734d43269818585600160008981526020019081526020016000206002018460405161053c9493929190610f6d565b60405180910390a15050505050565b600080838360405161055e929190610e1c565b908152602001604051809103902060020154905092915050565b6105d760405180604001604052806007815260200166061697264726f760cc1b81525083838080601f01602080910402602001604051908101604052809392919081815260200183838082843760009201919091525061093b92505050565b505050565b83838080601f01602080910402602001604051908101604052809392919081815260200183838082843760009201829052506040519093506106219250849150610e2c565b90815260405190819003602001902060010154336001600160a01b039091161461065d5760405162461bcd60e51b815260040161022a90610f28565b828260008787604051610671929190610e1c565b90815260405190819003602001902061068b929091610b1a565b505050505050565b60606000806000606080600080600160008a81526020019081526020016000206001016040516106c39190610e48565b90815260200160405180910390206000016000600160008b81526020019081526020016000206001016040516106f99190610e48565b908152604080516020928190038301812060019081015460008e8152948290529284206001600160a01b03909316939261073592910190610e48565b908152604080516020928190038301902060029081015460008e81526001948590529290922080546003820154875494956001600160a01b039092169491830193929092019160ff1690879061078a90611082565b80601f01602080910402602001604051908101604052809291908181526020018280546107b690611082565b80156108035780601f106107d857610100808354040283529160200191610803565b820191906000526020600020905b8154815290600101906020018083116107e657829003601f168201915b5050505050965082805461081690611082565b80601f016020809104026020016040519081016040528092919081815260200182805461084290611082565b801561088f5780601f106108645761010080835404028352916020019161088f565b820191906000526020600020905b81548152906001019060200180831161087257829003601f168201915b505050505092508180546108a290611082565b80601f01602080910402602001604051908101604052809291908181526020018280546108ce90611082565b801561091b5780601f106108f05761010080835404028352916020019161091b565b820191906000526020600020905b8154815290600101906020018083116108fe57829003601f168201915b505050505091509650965096509650965096509650919395979092949650565b6000808360405161094c9190610e2c565b9081526020016040518091039020600201543410156109ad5760405162461bcd60e51b815260206004820152601c60248201527f496e73756666696369616e74206f7261636c65207061796d656e742e00000000604482015260640161022a565b6000836040516109bd9190610e2c565b908152604051908190036020018120600101546001600160a01b0316906108fc906000906109ec908790610e2c565b90815260405190819003602001812060020154801590920291906000818181858888f19350505050158015610a25573d6000803e3d6000fd5b5060028054906000610a36836110bd565b909155505060408051608081018252338152602080820186815282840186905260006060840181905260025481526001808452949020835181546001600160a01b0319166001600160a01b039091161781559051805193949193610aa293928501929190910190610b9e565b5060408201518051610abe916002840191602090910190610b9e565b50606091909101516003909101805460ff19169115159190911790556002546040519081527fb085ee00d6acecd7b561fb9098042d2dadf5ddfaca876c3d6591fe7a629e3cf99060200160405180910390a15060025492915050565b828054610b2690611082565b90600052602060002090601f016020900481019282610b485760008555610b8e565b82601f10610b615782800160ff19823516178555610b8e565b82800160010185558215610b8e579182015b82811115610b8e578235825591602001919060010190610b73565b50610b9a929150610c12565b5090565b828054610baa90611082565b90600052602060002090601f016020900481019282610bcc5760008555610b8e565b82601f10610be557805160ff1916838001178555610b8e565b82800160010185558215610b8e579182015b82811115610b8e578251825591602001919060010190610bf7565b5b80821115610b9a5760008155600101610c13565b60008083601f840112610c3957600080fd5b50813567ffffffffffffffff811115610c5157600080fd5b602083019150836020828501011115610c6957600080fd5b9250929050565b600060208284031215610c8257600080fd5b81518015158114610c9257600080fd5b9392505050565b60008060208385031215610cac57600080fd5b823567ffffffffffffffff811115610cc357600080fd5b610ccf85828601610c27565b90969095509350505050565b60008060008060408587031215610cf157600080fd5b843567ffffffffffffffff80821115610d0957600080fd5b610d1588838901610c27565b90965094506020870135915080821115610d2e57600080fd5b50610d3b87828801610c27565b95989497509550505050565b600080600060408486031215610d5c57600080fd5b833567ffffffffffffffff811115610d7357600080fd5b610d7f86828701610c27565b909790965060209590950135949350505050565b600060208284031215610da557600080fd5b5035919050565b600080600060608486031215610dc157600080fd5b8335925060208401356001600160a01b0381168114610ddf57600080fd5b929592945050506040919091013590565b60008151808452610e08816020860160208601611052565b601f01601f19169290920160200192915050565b8183823760009101908152919050565b60008251610e3e818460208701611052565b9190910192915050565b6000808354610e5681611082565b60018281168015610e6e5760018114610e7f57610eae565b60ff19841687528287019450610eae565b8760005260208060002060005b85811015610ea55781548a820152908401908201610e8c565b50505082870194505b50929695505050505050565b60e081526000610ecd60e083018a610df0565b6001600160a01b03898116602085015260408401899052871660608401528281036080840152610efd8187610df0565b905082810360a0840152610f118186610df0565b91505082151560c083015298975050505050505050565b60208082526025908201527f4f6e6c7920776f726b666c6f77206163636f756e742063616e206368616e6765604082015264103332b29760d91b606082015260800190565b8481526000602060018060a01b038616818401526080604084015260008554610f9581611082565b80608087015260a0600180841660008114610fb75760018114610fcb57610ff9565b60ff1985168984015260c089019550610ff9565b8a6000528660002060005b85811015610ff15781548b8201860152908301908801610fd6565b8a0184019650505b50505050506060939093019390935250949350505050565b60008261102e57634e487b7160e01b600052601260045260246000fd5b500490565b600081600019048311821515161561104d5761104d6110d8565b500290565b60005b8381101561106d578181015183820152602001611055565b8381111561107c576000848401525b50505050565b600181811c9082168061109657607f821691505b602082108114156110b757634e487b7160e01b600052602260045260246000fd5b50919050565b60006000198214156110d1576110d16110d8565b5060010190565b634e487b7160e01b600052601160045260246000fdfea2646970667358221220f642aa745ab715a2e4929097952624b636e00eb880bd776c6ef703f32424852a64736f6c63430008070033",
  "immutableReferences": {},
  "source": "// SPDX-License-Identifier: MIT\npragma solidity 0.8.7;\n\nimport '../GithubWorkflowClient.sol';\nimport './CryptoActionsToken.sol';\n\ncontract Airdrop is GithubWorkflowClient {\n  CryptoActionsToken public token;\n\n  mapping(string => uint256) claimed;\n  uint256 public claimedTotal;\n\n  constructor(address _token, string memory _workflowHash) {\n    token = CryptoActionsToken(_token);\n    registerGithubWorkflow(msg.sender, 'airdrop', _workflowHash, 10000000000000000);\n  }\n\n  function requestAirdrop(string calldata _githubUserId) payable public {\n    githubWorkflowRequest('airdrop', _githubUserId);\n  }\n\n  event AirdropEvent(uint256 requestId, address to, string githubUserId, uint256 value);\n  function fulfillAirdrop(uint256 _requestId, address _to, uint256 _contributionCount) public githubWorkflowResponse(_requestId) {\n    require(claimed[githubWorkflowRequests[_requestId].githubUserId] == 0, 'Airdrop already claimed.');\n    if (_contributionCount > 10000) {\n      _contributionCount = 10000;\n    }\n    uint256 value = (_contributionCount * 10**18) / 10;\n    claimed[githubWorkflowRequests[_requestId].githubUserId] = value;\n    token.transfer(_to, value);\n\n    emit AirdropEvent(_requestId, _to, githubWorkflowRequests[_requestId].githubUserId, value);\n  }\n}",
  "sourcePath": "/home/mkt/Projects/cryptoactions/contracts/src/token/Airdrop.sol",
  "compiler": {
    "name": "solc",
    "version": "0.8.7+commit.e28d00a7.Emscripten.clang"
  },
  "schemaVersion": "3.4.3",
  "updatedAt": "2021-09-14T00:39:05.948Z",
  "devdoc": {
    "kind": "dev",
    "methods": {},
    "version": 1
  },
  "userdoc": {
    "kind": "user",
    "methods": {},
    "version": 1
  }
}