{
  "contractName": "GithubWorkflowClient",
  "abi": [
    {
      "anonymous": false,
      "inputs": [
        {
          "indexed": false,
          "internalType": "uint256",
          "name": "requestId",
          "type": "uint256"
        }
      ],
      "name": "GithubWorkflowRequestEvent",
      "type": "event"
    },
    {
      "inputs": [
        {
          "internalType": "uint256",
          "name": "_id",
          "type": "uint256"
        }
      ],
      "name": "getGithubWorkflowRequest",
      "outputs": [
        {
          "internalType": "bytes32",
          "name": "fileHash",
          "type": "bytes32"
        },
        {
          "internalType": "address",
          "name": "account",
          "type": "address"
        },
        {
          "internalType": "uint256",
          "name": "fee",
          "type": "uint256"
        },
        {
          "internalType": "string",
          "name": "name",
          "type": "string"
        },
        {
          "internalType": "string",
          "name": "githubUserId",
          "type": "string"
        },
        {
          "internalType": "bool",
          "name": "fulfilled",
          "type": "bool"
        }
      ],
      "stateMutability": "view",
      "type": "function"
    },
    {
      "inputs": [
        {
          "internalType": "string",
          "name": "_name",
          "type": "string"
        }
      ],
      "name": "getGithubWorkflowFee",
      "outputs": [
        {
          "internalType": "uint256",
          "name": "",
          "type": "uint256"
        }
      ],
      "stateMutability": "view",
      "type": "function"
    },
    {
      "inputs": [
        {
          "internalType": "string",
          "name": "_name",
          "type": "string"
        },
        {
          "internalType": "uint256",
          "name": "_amount",
          "type": "uint256"
        }
      ],
      "name": "setGithubWorkflowFee",
      "outputs": [],
      "stateMutability": "nonpayable",
      "type": "function"
    },
    {
      "inputs": [
        {
          "internalType": "string",
          "name": "_name",
          "type": "string"
        },
        {
          "internalType": "bytes32",
          "name": "_hash",
          "type": "bytes32"
        }
      ],
      "name": "setGithubWorkflowHash",
      "outputs": [],
      "stateMutability": "nonpayable",
      "type": "function"
    }
  ],
  "bytecode": "0x608060405234801561001057600080fd5b50610767806100206000396000f3fe608060405234801561001057600080fd5b506004361061004c5760003560e01c80630f2965e3146100515780635f27e0d3146100665780639e3743d31461008c578063d3b7cd991461009f575b600080fd5b61006461005f3660046104d3565b6100c4565b005b610079610074366004610491565b61017a565b6040519081526020015b60405180910390f35b61006461009a3660046104d3565b6101a7565b6100b26100ad36600461051f565b610251565b6040516100839695949392919061062c565b82828080601f01602080910402602001604051908101604052809392919081815260200183838082843760009201829052506040519093506101099250849150610574565b90815260405190819003602001902060010154336001600160a01b039091161461014e5760405162461bcd60e51b815260040161014590610681565b60405180910390fd5b8160008585604051610161929190610564565b9081526040519081900360200190206002015550505050565b600080838360405161018d929190610564565b908152602001604051809103902060020154905092915050565b82828080601f01602080910402602001604051908101604052809392919081815260200183838082843760009201829052506040519093506101ec9250849150610574565b90815260405190819003602001902060010154336001600160a01b03909116146102285760405162461bcd60e51b815260040161014590610681565b816000858560405161023b929190610564565b9081526040519081900360200190205550505050565b60008060006060806000806001600089815260200190815260200160002060000160405161027f9190610590565b90815260408051602092819003830181205460008b815260019094529183209192916102aa91610590565b908152604080516020928190038301812060019081015460008d8152919094529182206001600160a01b03909316926102e291610590565b908152604080516020928190038301902060029081015460008d815260019485905292909220908101548154929391929183019160ff909116908390610327906106f6565b80601f0160208091040260200160405190810160405280929190818152602001828054610353906106f6565b80156103a05780601f10610375576101008083540402835291602001916103a0565b820191906000526020600020905b81548152906001019060200180831161038357829003601f168201915b505050505092508180546103b3906106f6565b80601f01602080910402602001604051908101604052809291908181526020018280546103df906106f6565b801561042c5780601f106104015761010080835404028352916020019161042c565b820191906000526020600020905b81548152906001019060200180831161040f57829003601f168201915b5050505050915095509550955095509550955091939550919395565b60008083601f84011261045a57600080fd5b50813567ffffffffffffffff81111561047257600080fd5b60208301915083602082850101111561048a57600080fd5b9250929050565b600080602083850312156104a457600080fd5b823567ffffffffffffffff8111156104bb57600080fd5b6104c785828601610448565b90969095509350505050565b6000806000604084860312156104e857600080fd5b833567ffffffffffffffff8111156104ff57600080fd5b61050b86828701610448565b909790965060209590950135949350505050565b60006020828403121561053157600080fd5b5035919050565b600081518084526105508160208601602086016106c6565b601f01601f19169290920160200192915050565b8183823760009101908152919050565b600082516105868184602087016106c6565b9190910192915050565b600080835481600182811c9150808316806105ac57607f831692505b60208084108214156105cc57634e487b7160e01b86526022600452602486fd5b8180156105e057600181146105f15761061e565b60ff1986168952848901965061061e565b60008a81526020902060005b868110156106165781548b8201529085019083016105fd565b505084890196505b509498975050505050505050565b86815260018060a01b038616602082015284604082015260c06060820152600061065960c0830186610538565b828103608084015261066b8186610538565b91505082151560a0830152979650505050505050565b60208082526025908201527f4f6e6c7920776f726b666c6f77206163636f756e742063616e206368616e6765604082015264103332b29760d91b606082015260800190565b60005b838110156106e15781810151838201526020016106c9565b838111156106f0576000848401525b50505050565b600181811c9082168061070a57607f821691505b6020821081141561072b57634e487b7160e01b600052602260045260246000fd5b5091905056fea264697066735822122053354cee84fb71f27c14bb3d91d9d77d903679a33397152a25e87d0eb3efaa8664736f6c63430008070033",
  "immutableReferences": {},
  "source": "// SPDX-License-Identifier: GPL-3.0\npragma solidity 0.8.7;\n\ncontract GithubWorkflowClient {\n  struct GithubWorkflow {\n    bytes32 fileHash;\n    address account;\n    uint256 fee;\n  }\n  mapping(string => GithubWorkflow) githubWorkflows;\n\n  struct GithubWorkflowRequest {\n    string name;\n    string githubUserId;\n    bool fulfilled;\n  }\n  mapping(uint256 => GithubWorkflowRequest) githubWorkflowRequests;\n  uint256 lastGithubWorkflowRequestId;\n\n  event GithubWorkflowRequestEvent(uint256 requestId);\n\n  modifier onlyWorkflow(string memory _name) {\n    require(msg.sender == githubWorkflows[_name].account, \"Only workflow account can change fee.\");\n    _;\n  }\n\n  modifier githubWorkflowResponse(uint256 _requestId) {\n    require(msg.sender == githubWorkflows[githubWorkflowRequests[_requestId].name].account, \"Only workflow account respond to request.\");\n    require(githubWorkflowRequests[_requestId].fulfilled == false, 'Request has already been fulfilled.');\n    githubWorkflowRequests[_requestId].fulfilled = true;\n    _;\n  }\n\n  function getGithubWorkflowRequest(uint256 _id) public view returns(\n    bytes32 fileHash,\n    address account,\n    uint256 fee,\n    string memory name,\n    string memory githubUserId,\n    bool fulfilled\n  ) {\n    return (\n      githubWorkflows[githubWorkflowRequests[_id].name].fileHash,\n      githubWorkflows[githubWorkflowRequests[_id].name].account,\n      githubWorkflows[githubWorkflowRequests[_id].name].fee,\n      githubWorkflowRequests[_id].name,\n      githubWorkflowRequests[_id].githubUserId,\n      githubWorkflowRequests[_id].fulfilled\n    );\n  }\n\n  function registerGithubWorkflow(address _account, string memory _name, bytes32 _hash,  uint256 _fee) internal {\n    githubWorkflows[_name] = GithubWorkflow(_hash, _account, _fee);\n  }\n\n  function getGithubWorkflowFee(string calldata _name) public view returns(uint256) {\n    return githubWorkflows[_name].fee;\n  }\n\n  function setGithubWorkflowFee(string calldata _name, uint256 _amount) onlyWorkflow(_name) public {\n    githubWorkflows[_name].fee = _amount;\n  }\n\n  function setGithubWorkflowHash(string calldata _name, bytes32 _hash) onlyWorkflow(_name) public {\n    githubWorkflows[_name].fileHash = _hash;\n  }\n\n  function githubWorkflowRequest(string memory _name, string memory _githubUserId) internal returns(uint256) {\n    require(msg.value >= githubWorkflows[_name].fee, \"Insufficiant oracle payment.\");\n\n    payable(githubWorkflows[_name].account).transfer(githubWorkflows[_name].fee);\n\n    lastGithubWorkflowRequestId++;\n    githubWorkflowRequests[lastGithubWorkflowRequestId] = GithubWorkflowRequest(\n      _name,\n      _githubUserId,\n      false\n    );\n\n    emit GithubWorkflowRequestEvent(lastGithubWorkflowRequestId);\n    \n    return lastGithubWorkflowRequestId;\n  }\n}",
  "sourcePath": "/home/mkt/Projects/cryptoactions/contracts/src/GithubWorkflowClient.sol",
  "compiler": {
    "name": "solc",
    "version": "0.8.7+commit.e28d00a7.Emscripten.clang"
  },
  "schemaVersion": "3.4.3",
  "updatedAt": "2021-09-11T16:18:09.530Z",
  "devdoc": {
    "kind": "dev",
    "methods": {},
    "version": 1
  },
  "userdoc": {
    "kind": "user",
    "methods": {},
    "version": 1
  }
}