{
  "contractName": "GithubSigner",
  "abi": [
    {
      "inputs": [
        {
          "internalType": "uint256",
          "name": "_fee",
          "type": "uint256"
        }
      ],
      "stateMutability": "nonpayable",
      "type": "constructor"
    },
    {
      "inputs": [],
      "name": "fee",
      "outputs": [
        {
          "internalType": "uint256",
          "name": "",
          "type": "uint256"
        }
      ],
      "stateMutability": "view",
      "type": "function"
    },
    {
      "inputs": [],
      "name": "owner",
      "outputs": [
        {
          "internalType": "address",
          "name": "",
          "type": "address"
        }
      ],
      "stateMutability": "view",
      "type": "function"
    },
    {
      "inputs": [
        {
          "internalType": "uint256",
          "name": "_fee",
          "type": "uint256"
        }
      ],
      "name": "setFee",
      "outputs": [],
      "stateMutability": "nonpayable",
      "type": "function"
    },
    {
      "inputs": [
        {
          "internalType": "uint256",
          "name": "_requestId",
          "type": "uint256"
        }
      ],
      "name": "getRequest",
      "outputs": [
        {
          "internalType": "string",
          "name": "",
          "type": "string"
        },
        {
          "internalType": "string",
          "name": "",
          "type": "string"
        }
      ],
      "stateMutability": "view",
      "type": "function"
    },
    {
      "inputs": [
        {
          "internalType": "string",
          "name": "_query",
          "type": "string"
        },
        {
          "internalType": "string",
          "name": "_nodeId",
          "type": "string"
        }
      ],
      "name": "requestSignature",
      "outputs": [
        {
          "internalType": "uint256",
          "name": "",
          "type": "uint256"
        }
      ],
      "stateMutability": "payable",
      "type": "function"
    },
    {
      "inputs": [
        {
          "internalType": "uint256",
          "name": "_requestId",
          "type": "uint256"
        },
        {
          "internalType": "bytes",
          "name": "_signature",
          "type": "bytes"
        },
        {
          "internalType": "bool",
          "name": "_value",
          "type": "bool"
        }
      ],
      "name": "verifySignatureBool",
      "outputs": [
        {
          "internalType": "bool",
          "name": "",
          "type": "bool"
        }
      ],
      "stateMutability": "view",
      "type": "function"
    },
    {
      "inputs": [
        {
          "internalType": "uint256",
          "name": "_requestId",
          "type": "uint256"
        },
        {
          "internalType": "bytes",
          "name": "_signature",
          "type": "bytes"
        },
        {
          "internalType": "address",
          "name": "_value",
          "type": "address"
        }
      ],
      "name": "verifySignatureAddress",
      "outputs": [
        {
          "internalType": "bool",
          "name": "",
          "type": "bool"
        }
      ],
      "stateMutability": "view",
      "type": "function"
    },
    {
      "inputs": [
        {
          "internalType": "uint256",
          "name": "_requestId",
          "type": "uint256"
        },
        {
          "internalType": "bytes",
          "name": "_signature",
          "type": "bytes"
        },
        {
          "internalType": "uint256",
          "name": "_value",
          "type": "uint256"
        }
      ],
      "name": "verifySignatureInt",
      "outputs": [
        {
          "internalType": "bool",
          "name": "",
          "type": "bool"
        }
      ],
      "stateMutability": "view",
      "type": "function"
    },
    {
      "inputs": [
        {
          "internalType": "uint256",
          "name": "_requestId",
          "type": "uint256"
        },
        {
          "internalType": "bytes",
          "name": "_signature",
          "type": "bytes"
        },
        {
          "internalType": "string",
          "name": "_value",
          "type": "string"
        }
      ],
      "name": "verifySignatureString",
      "outputs": [
        {
          "internalType": "bool",
          "name": "",
          "type": "bool"
        }
      ],
      "stateMutability": "view",
      "type": "function"
    }
  ],
  "bytecode": "0x608060405234801561001057600080fd5b50604051610ebe380380610ebe83398101604081905261002f9161004f565b600080546001600160a01b03191633178155600191909155600355610068565b60006020828403121561006157600080fd5b5051919050565b610e47806100776000396000f3fe6080604052600436106100865760003560e01c80638da5cb5b116100595780638da5cb5b14610122578063a39083f21461015a578063b31142ef1461017b578063c58343ef1461019b578063ddca3f43146101c957600080fd5b806326f4a0241461008b57806333b46c26146100c057806369fe0e2d146100e057806374066a2314610102575b600080fd5b34801561009757600080fd5b506100ab6100a6366004610adf565b6101df565b60405190151581526020015b60405180910390f35b3480156100cc57600080fd5b506100ab6100db366004610a1b565b61030d565b3480156100ec57600080fd5b506101006100fb366004610a02565b6103cf565b005b34801561010e57600080fd5b506100ab61011d366004610a86565b61041c565b34801561012e57600080fd5b50600054610142906001600160a01b031681565b6040516001600160a01b0390911681526020016100b7565b61016d610168366004610996565b61047e565b6040519081526020016100b7565b34801561018757600080fd5b506100ab610196366004610b59565b61062b565b3480156101a757600080fd5b506101bb6101b6366004610a02565b61068d565b6040516100b7929190610d33565b3480156101d557600080fd5b5061016d60015481565b6000858152600260208190526040822001546001600160a01b031633146102215760405162461bcd60e51b815260040161021890610d61565b60405180910390fd5b600086815260026020908152604080832090516102ac9261024c929160018301918991899101610cec565b60408051601f1981840301815282825280516020918201207f19457468657265756d205369676e6564204d6573736167653a0a33320000000084830152603c8085019190915282518085039091018152605c909301909152815191012090565b905060006102f08288888080601f01602080910402602001604051908101604052809392919081815260200183838082843760009201919091525061080692505050565b6000546001600160a01b0390811691161498975050505050505050565b6000848152600260208190526040822001546001600160a01b031633146103465760405162461bcd60e51b815260040161021890610d61565b6000858152600260209081526040808320905161036f9261024c92916001830191889101610c93565b905060006103b38287878080601f01602080910402602001604051908101604052809392919081815260200183838082843760009201919091525061080692505050565b6000546001600160a01b03908116911614979650505050505050565b6000546001600160a01b031633146104175760405162461bcd60e51b815260206004820152600b60248201526a27b7363c9037bbb732b91760a91b6044820152606401610218565b600155565b6000848152600260208190526040822001546001600160a01b031633146104555760405162461bcd60e51b815260040161021890610d61565b6000858152600260209081526040808320905161036f9261024c92916001830191889101610cca565b60006001543410156104d25760405162461bcd60e51b815260206004820152601c60248201527f496e73756666696369616e74207369676e6572207061796d656e742e000000006044820152606401610218565b600080546040516001600160a01b03909116913480156108fc02929091818181858888f1935050505015801561050c573d6000803e3d6000fd5b506003805490600061051d83610de8565b90915550506040805160a06020601f88018190040282018101909252608081018681526000928291908990899081908501838280828437600092019190915250505090825250604080516020601f8801819004810282018101909252868152918101919087908790819084018382808284376000920182905250938552505033602080850191909152426040948501526003548352600281529290912083518051949550859491936105d4935084929101906108b4565b5060208281015180516105ed92600185019201906108b4565b5060408201516002820180546001600160a01b0319166001600160a01b03909216919091179055606090910151600391820155549695505050505050565b6000848152600260208190526040822001546001600160a01b031633146106645760405162461bcd60e51b815260040161021890610d61565b6000858152600260209081526040808320905161036f9261024c92916001830191889101610d16565b6060806000600260008581526020019081526020016000206040518060800160405290816000820180546106c090610dad565b80601f01602080910402602001604051908101604052809291908181526020018280546106ec90610dad565b80156107395780601f1061070e57610100808354040283529160200191610739565b820191906000526020600020905b81548152906001019060200180831161071c57829003601f168201915b5050505050815260200160018201805461075290610dad565b80601f016020809104026020016040519081016040528092919081815260200182805461077e90610dad565b80156107cb5780601f106107a0576101008083540402835291602001916107cb565b820191906000526020600020905b8154815290600101906020018083116107ae57829003601f168201915b505050918352505060028201546001600160a01b03166020808301919091526003909201546040909101528151910151909590945092505050565b60008060008061081585610885565b6040805160008152602081018083528b905260ff8516918101919091526060810183905260808101829052929550909350915060019060a0016020604051602081039080840390855afa158015610870573d6000803e3d6000fd5b5050604051601f190151979650505050505050565b6000806000835160411461089857600080fd5b5050506020810151604082015160609092015160001a92909190565b8280546108c090610dad565b90600052602060002090601f0160209004810192826108e25760008555610928565b82601f106108fb57805160ff1916838001178555610928565b82800160010185558215610928579182015b8281111561092857825182559160200191906001019061090d565b50610934929150610938565b5090565b5b808211156109345760008155600101610939565b60008083601f84011261095f57600080fd5b50813567ffffffffffffffff81111561097757600080fd5b60208301915083602082850101111561098f57600080fd5b9250929050565b600080600080604085870312156109ac57600080fd5b843567ffffffffffffffff808211156109c457600080fd5b6109d08883890161094d565b909650945060208701359150808211156109e957600080fd5b506109f68782880161094d565b95989497509550505050565b600060208284031215610a1457600080fd5b5035919050565b60008060008060608587031215610a3157600080fd5b84359350602085013567ffffffffffffffff811115610a4f57600080fd5b610a5b8782880161094d565b90945092505060408501356001600160a01b0381168114610a7b57600080fd5b939692955090935050565b60008060008060608587031215610a9c57600080fd5b84359350602085013567ffffffffffffffff811115610aba57600080fd5b610ac68782880161094d565b90945092505060408501358015158114610a7b57600080fd5b600080600080600060608688031215610af757600080fd5b85359450602086013567ffffffffffffffff80821115610b1657600080fd5b610b2289838a0161094d565b90965094506040880135915080821115610b3b57600080fd5b50610b488882890161094d565b969995985093965092949392505050565b60008060008060608587031215610b6f57600080fd5b84359350602085013567ffffffffffffffff811115610b8d57600080fd5b610b998782880161094d565b9598909750949560400135949350505050565b6000815180845260005b81811015610bd257602081850181015186830182015201610bb6565b81811115610be4576000602083870101525b50601f01601f19169290920160200192915050565b8054600090600181811c9080831680610c1357607f831692505b6020808410821415610c3557634e487b7160e01b600052602260045260246000fd5b818015610c495760018114610c5a57610c87565b60ff19861689528489019650610c87565b60008881526020902060005b86811015610c7f5781548b820152908501908301610c66565b505084890196505b50505050505092915050565b6000610ca8610ca28387610bf9565b85610bf9565b60609390931b6bffffffffffffffffffffffff19168352505060140192915050565b6000610cd9610ca28387610bf9565b92151560f81b8352505060010192915050565b6000610d01610cfb8388610bf9565b86610bf9565b83858237600093019283525090949350505050565b6000610d25610ca28387610bf9565b928352505060200192915050565b604081526000610d466040830185610bac565b8281036020840152610d588185610bac565b95945050505050565b6020808252602c908201527f526571756573742063616e206f6e6c792062652076657269666965642062792060408201526b3bb4379039b2b73a1034ba1760a11b606082015260800190565b600181811c90821680610dc157607f821691505b60208210811415610de257634e487b7160e01b600052602260045260246000fd5b50919050565b6000600019821415610e0a57634e487b7160e01b600052601160045260246000fd5b506001019056fea264697066735822122003df4e9dce0c6c70167fc3c3c3fcc80bbc9212934facc9d93256ccf5e91216c264736f6c63430008070033",
  "immutableReferences": {},
  "source": "// SPDX-License-Identifier: GPL-3.0\npragma solidity 0.8.7;\n\ncontract GithubSigner {\n  address public owner;\n  uint256 public fee;\n  \n  struct Request {\n    string query;\n    string nodeId;\n    address consumer;\n    uint256 timestamp;\n  }\n  mapping(uint256 => Request) requests;\n  uint256 lastRequestId;\n\n  constructor(uint256 _fee) {\n    owner = msg.sender;\n    fee = _fee;\n    lastRequestId = 0;\n  }\n\n  function setFee(uint256 _fee) public {\n    require(msg.sender == owner, 'Only owner.');\n    fee = _fee;\n  }\n\n  function getRequest(uint256 _requestId) public view returns(string memory, string memory) {\n    Request memory request = requests[_requestId];\n    return (request.query, request.nodeId);\n  }\n\n  function requestSignature(string calldata _query, string calldata _nodeId) public payable returns(uint256) {\n    require(msg.value >= fee, 'Insufficiant signer payment.');\n    payable(owner).transfer(msg.value);\n\n    lastRequestId++;\n    Request memory request = Request(\n      _query,\n      _nodeId,\n      msg.sender,\n      block.timestamp\n    );\n    requests[lastRequestId] = request;\n    \n    return lastRequestId;\n  }\n\n  function verifySignatureBool(uint256 _requestId, bytes calldata _signature, bool _value) public view returns(bool) {\n    require(msg.sender == requests[_requestId].consumer, 'Request can only be verified by who sent it.');\n\n    bytes32 message = prefixed(keccak256(abi.encodePacked(requests[_requestId].query, requests[_requestId].nodeId, _value)));\n    address recovered = recoverSigner(message, _signature);\n\n    return recovered == owner;\n  }\n\n  function verifySignatureAddress(uint256 _requestId, bytes calldata _signature, address _value) public view returns(bool) {\n    require(msg.sender == requests[_requestId].consumer, 'Request can only be verified by who sent it.');\n\n    bytes32 message = prefixed(keccak256(abi.encodePacked(requests[_requestId].query, requests[_requestId].nodeId, _value)));\n    address recovered = recoverSigner(message, _signature);\n\n    return recovered == owner;\n  }\n\n  function verifySignatureInt(uint256 _requestId, bytes calldata _signature, uint256 _value) public view returns(bool) {\n    require(msg.sender == requests[_requestId].consumer, 'Request can only be verified by who sent it.');\n\n    bytes32 message = prefixed(keccak256(abi.encodePacked(requests[_requestId].query, requests[_requestId].nodeId, _value)));\n    address recovered = recoverSigner(message, _signature);\n\n    return recovered == owner;\n  }\n\n  function verifySignatureString(uint256 _requestId, bytes calldata _signature, string calldata _value) public view returns(bool) {\n    require(msg.sender == requests[_requestId].consumer, 'Request can only be verified by who sent it.');\n\n    bytes32 message = prefixed(keccak256(abi.encodePacked(requests[_requestId].query, requests[_requestId].nodeId, _value)));\n    address recovered = recoverSigner(message, _signature);\n\n    return recovered == owner;\n  }\n\n  // signature methods.\n  function splitSignature(bytes memory sig)\n      internal\n      pure\n      returns (uint8 v, bytes32 r, bytes32 s)\n  {\n      require(sig.length == 65);\n\n      assembly {\n          // first 32 bytes, after the length prefix.\n          r := mload(add(sig, 32))\n          // second 32 bytes.\n          s := mload(add(sig, 64))\n          // final byte (first byte of the next 32 bytes).\n          v := byte(0, mload(add(sig, 96)))\n      }\n\n      return (v, r, s);\n  }\n\n  function recoverSigner(bytes32 message, bytes memory sig)\n      internal\n      pure\n      returns (address)\n  {\n      (uint8 v, bytes32 r, bytes32 s) = splitSignature(sig);\n\n      return ecrecover(message, v, r, s);\n  }\n\n  // builds a prefixed hash to mimic the behavior of eth_sign.\n  function prefixed(bytes32 hash) internal pure returns (bytes32) {\n      return keccak256(abi.encodePacked(\"\\x19Ethereum Signed Message:\\n32\", hash));\n  }\n}",
  "sourcePath": "/home/mkt/Projects/cryptoactions/contracts/src/GithubSigner.sol",
  "compiler": {
    "name": "solc",
    "version": "0.8.7+commit.e28d00a7.Emscripten.clang"
  },
  "schemaVersion": "3.4.3",
  "updatedAt": "2021-09-20T13:15:58.868Z",
  "devdoc": {
    "kind": "dev",
    "methods": {},
    "version": 1
  },
  "userdoc": {
    "kind": "user",
    "methods": {},
    "version": 1
  }
}