{
  "contractName": "GithubDataReceiver",
  "abi": [
    {
      "anonymous": false,
      "inputs": [
        {
          "indexed": false,
          "internalType": "uint256",
          "name": "requestId",
          "type": "uint256"
        },
        {
          "indexed": false,
          "internalType": "uint256",
          "name": "signatureId",
          "type": "uint256"
        }
      ],
      "name": "GithubOracleRequestEvent",
      "type": "event"
    },
    {
      "inputs": [],
      "name": "githubOracleFee",
      "outputs": [
        {
          "internalType": "uint256",
          "name": "",
          "type": "uint256"
        }
      ],
      "stateMutability": "view",
      "type": "function"
    },
    {
      "inputs": [
        {
          "internalType": "uint256",
          "name": "_id",
          "type": "uint256"
        }
      ],
      "name": "getGithubRequest",
      "outputs": [
        {
          "internalType": "bytes4",
          "name": "fulfillSelector",
          "type": "bytes4"
        },
        {
          "internalType": "string",
          "name": "query",
          "type": "string"
        },
        {
          "internalType": "string",
          "name": "nodeId",
          "type": "string"
        },
        {
          "internalType": "bool",
          "name": "fulfilled",
          "type": "bool"
        },
        {
          "internalType": "uint256",
          "name": "signatureId",
          "type": "uint256"
        }
      ],
      "stateMutability": "view",
      "type": "function"
    },
    {
      "inputs": [],
      "name": "getGithubOracle",
      "outputs": [
        {
          "internalType": "address",
          "name": "",
          "type": "address"
        }
      ],
      "stateMutability": "view",
      "type": "function"
    },
    {
      "inputs": [],
      "name": "getGithubOracleFee",
      "outputs": [
        {
          "internalType": "uint256",
          "name": "",
          "type": "uint256"
        }
      ],
      "stateMutability": "view",
      "type": "function"
    },
    {
      "inputs": [],
      "name": "getGithubSigner",
      "outputs": [
        {
          "internalType": "address",
          "name": "",
          "type": "address"
        }
      ],
      "stateMutability": "view",
      "type": "function"
    },
    {
      "inputs": [],
      "name": "getGithubSignerFee",
      "outputs": [
        {
          "internalType": "uint256",
          "name": "",
          "type": "uint256"
        }
      ],
      "stateMutability": "view",
      "type": "function"
    },
    {
      "inputs": [],
      "name": "getGithubOracleAndSignerFee",
      "outputs": [
        {
          "internalType": "uint256",
          "name": "",
          "type": "uint256"
        }
      ],
      "stateMutability": "view",
      "type": "function"
    },
    {
      "inputs": [
        {
          "internalType": "uint256",
          "name": "_requestId",
          "type": "uint256"
        },
        {
          "internalType": "bool",
          "name": "_value",
          "type": "bool"
        }
      ],
      "name": "fulfillGithubRequestBool",
      "outputs": [
        {
          "internalType": "bool",
          "name": "",
          "type": "bool"
        }
      ],
      "stateMutability": "nonpayable",
      "type": "function"
    },
    {
      "inputs": [
        {
          "internalType": "uint256",
          "name": "_requestId",
          "type": "uint256"
        },
        {
          "internalType": "bool",
          "name": "_value",
          "type": "bool"
        },
        {
          "internalType": "bytes",
          "name": "_signature",
          "type": "bytes"
        }
      ],
      "name": "fulfillSignedGithubRequestBool",
      "outputs": [
        {
          "internalType": "bool",
          "name": "",
          "type": "bool"
        }
      ],
      "stateMutability": "nonpayable",
      "type": "function"
    }
  ],
  "bytecode": "0x608060405234801561001057600080fd5b50610831806100206000396000f3fe608060405234801561001057600080fd5b50600436106100935760003560e01c80634dcb39a8116100665780634dcb39a814610102578063922415d6146101155780639a7ab4091461013a578063b64434b614610142578063ed91c42b1461015357600080fd5b80630abd8e6f146100985780630c1bbf78146100c0578063225abba7146100e45780633276aa5a146100fa575b600080fd5b6100ab6100a63660046105ce565b61015c565b60405190151581526020015b60405180910390f35b6100d36100ce366004610570565b610217565b6040516100b79594939291906106e1565b6100ec61037f565b6040519081526020016100b7565b6100ec610419565b6100ab6101103660046105a2565b6104a1565b6004546001600160a01b03165b6040516001600160a01b0390911681526020016100b7565b6002546100ec565b6003546001600160a01b0316610122565b6100ec60025481565b6000838152602081905260408082205490518291309160e09190911b9061018b9088908890889060240161072a565b60408051601f198184030181529181526020820180516001600160e01b03166001600160e01b03199094169390931790925290516101c991906106c5565b6000604051808303816000865af19150503d8060008114610206576040519150601f19603f3d011682016040523d82523d6000602084013e61020b565b606091505b50909695505050505050565b600081815260208190526040812080546003820154600483015460018401805460609586958895869560e09290921b949360029093019260ff90911691908490610260906107aa565b80601f016020809104026020016040519081016040528092919081815260200182805461028c906107aa565b80156102d95780601f106102ae576101008083540402835291602001916102d9565b820191906000526020600020905b8154815290600101906020018083116102bc57829003601f168201915b505050505093508280546102ec906107aa565b80601f0160208091040260200160405190810160405280929190818152602001828054610318906107aa565b80156103655780601f1061033a57610100808354040283529160200191610365565b820191906000526020600020905b81548152906001019060200180831161034857829003601f168201915b505050505092509450945094509450945091939590929450565b6000600460009054906101000a90046001600160a01b03166001600160a01b031663ddca3f436040518163ffffffff1660e01b815260040160206040518083038186803b1580156103cf57600080fd5b505afa1580156103e3573d6000803e3d6000fd5b505050506040513d601f19601f820116820180604052508101906104079190610589565b6002546104149190610754565b905090565b6000600460009054906101000a90046001600160a01b03166001600160a01b031663ddca3f436040518163ffffffff1660e01b815260040160206040518083038186803b15801561046957600080fd5b505afa15801561047d573d6000803e3d6000fd5b505050506040513d601f19601f820116820180604052508101906104149190610589565b6000828152602081905260408082205490516024810185905283151560448201528291309160e09190911b9060640160408051601f198184030181529181526020820180516001600160e01b03166001600160e01b031990941693909317909252905161050e91906106c5565b6000604051808303816000865af19150503d806000811461054b576040519150601f19603f3d011682016040523d82523d6000602084013e610550565b606091505b509095945050505050565b8035801515811461056b57600080fd5b919050565b60006020828403121561058257600080fd5b5035919050565b60006020828403121561059b57600080fd5b5051919050565b600080604083850312156105b557600080fd5b823591506105c56020840161055b565b90509250929050565b6000806000606084860312156105e357600080fd5b833592506105f36020850161055b565b9150604084013567ffffffffffffffff8082111561061057600080fd5b818601915086601f83011261062457600080fd5b813581811115610636576106366107e5565b604051601f8201601f19908116603f0116810190838211818310171561065e5761065e6107e5565b8160405282815289602084870101111561067757600080fd5b8260208601602083013760006020848301015280955050505050509250925092565b600081518084526106b181602086016020860161077a565b601f01601f19169290920160200192915050565b600082516106d781846020870161077a565b9190910192915050565b63ffffffff60e01b8616815260a06020820152600061070360a0830187610699565b82810360408401526107158187610699565b94151560608401525050608001529392505050565b838152821515602082015260606040820152600061074b6060830184610699565b95945050505050565b6000821982111561077557634e487b7160e01b600052601160045260246000fd5b500190565b60005b8381101561079557818101518382015260200161077d565b838111156107a4576000848401525b50505050565b600181811c908216806107be57607f821691505b602082108114156107df57634e487b7160e01b600052602260045260246000fd5b50919050565b634e487b7160e01b600052604160045260246000fdfea2646970667358221220cee59d71c11659ebe1ca916c47a3c0b4cbcf441e082198937fc2134d8c44a66c64736f6c63430008070033",
  "immutableReferences": {},
  "source": "// SPDX-License-Identifier: GPL-3.0\npragma solidity 0.8.7;\n\nimport './GithubSigner.sol';\n\ncontract GithubDataReceiver {\n  struct GithubRequest {\n    bytes4 fulfillSelector;\n    string query;\n    string nodeId;\n    bool fulfilled;\n    uint256 signatureId;\n  }\n  mapping(uint256 => GithubRequest) githubRequests;\n  uint256 lastGithubRequestId;\n\n  uint256 public githubOracleFee;\n  address githubOracle;\n  GithubSigner githubSigner;\n\n  event GithubOracleRequestEvent(uint256 requestId, uint256 signatureId);\n\n  function setGithubOracle(address _oracle) internal {\n    githubOracle = _oracle;\n  }\n\n  function setGithubSigner(address _signer) internal {\n    githubSigner = GithubSigner(_signer);\n  }\n\n  function getGithubRequest(uint256 _id) public view returns(\n    bytes4 fulfillSelector,\n    string memory query,\n    string memory nodeId,\n    bool fulfilled,\n    uint256 signatureId\n  ) {\n    return (\n      githubRequests[_id].fulfillSelector,\n      githubRequests[_id].query,\n      githubRequests[_id].nodeId,\n      githubRequests[_id].fulfilled,\n      githubRequests[_id].signatureId\n    );\n  }\n\n  function getGithubOracle() public view returns(address) {\n    return githubOracle;\n  }\n\n  function getGithubOracleFee() public view returns(uint256) {\n    return githubOracleFee;\n  }\n\n  function getGithubSigner() public view returns(address) {\n    return address(githubSigner);\n  }\n\n  function getGithubSignerFee() public view returns(uint256) {\n    return githubSigner.fee();\n  }\n\n  function getGithubOracleAndSignerFee() public view returns(uint256) {\n    return githubOracleFee + githubSigner.fee();\n  }\n\n  modifier signedGithubOracleResponse(uint256 _requestId, bytes memory _value, bytes memory _signature) {\n    require(tx.origin == githubOracle, 'Only Github Oracle.');\n    require(githubRequests[_requestId].fulfilled == false, 'Request has already been fulfilled.');\n    require(githubSigner.verifySignature(githubRequests[_requestId].signatureId, _signature, _value), 'Invalid signature.');\n    githubRequests[_requestId].fulfilled = true;\n    _;\n  }\n\n  modifier githubOracleResponse(uint256 _requestId) {\n    require(tx.origin == githubOracle, 'Only Github Oracle.');\n    require(githubRequests[_requestId].fulfilled == false, 'Request has already been fulfilled.');\n    githubRequests[_requestId].fulfilled = true;\n    _;\n  }\n\n  function githubOracleRequest(bytes4 _fulfillSelector, string memory _query, string memory _nodeId) internal returns(uint256) {\n    require(msg.value >= githubOracleFee, \"Insufficiant oracle payment.\");\n\n    payable(githubOracle).transfer(githubOracleFee);\n\n    lastGithubRequestId++;\n    githubRequests[lastGithubRequestId] = GithubRequest(\n      _fulfillSelector,\n      _query,\n      _nodeId,\n      false,\n      0\n    );\n\n    emit GithubOracleRequestEvent(lastGithubRequestId, 0);\n    \n    return lastGithubRequestId;\n  }\n\n  function signedGithubOracleRequest(bytes4 _fulfillSelector, string memory _query, string memory _nodeId) internal returns(uint256) {\n    require(msg.value >= githubSigner.fee() + githubOracleFee, \"Insufficiant oracle and signer payment.\");\n    \n    payable(githubOracle).transfer(githubOracleFee);\n\n    uint256 signatureId = githubSigner.requestSignature{ value: githubSigner.fee()}(_query, _nodeId);\n\n    lastGithubRequestId++;\n    githubRequests[lastGithubRequestId] = GithubRequest(\n      _fulfillSelector,\n      _query,\n      _nodeId,\n      false,\n      signatureId\n    );\n\n    emit GithubOracleRequestEvent(lastGithubRequestId, signatureId);\n    \n    return lastGithubRequestId;\n  }\n\n  function fulfillGithubRequestBool(uint256 _requestId, bool _value) public returns(bool) {\n    (bool success,) = address(this).call(abi.encodeWithSelector(githubRequests[_requestId].fulfillSelector, _requestId, _value));\n    return success;\n  }\n\n  function fulfillSignedGithubRequestBool(uint256 _requestId, bool _value, bytes memory _signature) public returns(bool) {\n    (bool success,) = address(this).call(abi.encodeWithSelector(githubRequests[_requestId].fulfillSelector, _requestId, _value, _signature));\n    return success;\n  }\n}",
  "sourcePath": "/home/mkt/Projects/cryptoactions/contracts/src/GithubDataReceiver.sol",
  "compiler": {
    "name": "solc",
    "version": "0.8.7+commit.e28d00a7.Emscripten.clang"
  },
  "schemaVersion": "3.4.3",
  "updatedAt": "2021-09-08T16:34:18.983Z",
  "devdoc": {
    "kind": "dev",
    "methods": {},
    "version": 1
  },
  "userdoc": {
    "kind": "user",
    "methods": {},
    "version": 1
  }
}