{
  "contractName": "GithubDataReceiver",
  "abi": [
    {
      "anonymous": false,
      "inputs": [
        {
          "indexed": false,
          "internalType": "uint256",
          "name": "requestId",
          "type": "uint256"
        },
        {
          "indexed": false,
          "internalType": "uint256",
          "name": "signatureId",
          "type": "uint256"
        }
      ],
      "name": "GithubOracleRequestEvent",
      "type": "event"
    },
    {
      "inputs": [],
      "name": "githubOracleFee",
      "outputs": [
        {
          "internalType": "uint256",
          "name": "",
          "type": "uint256"
        }
      ],
      "stateMutability": "view",
      "type": "function"
    },
    {
      "inputs": [
        {
          "internalType": "uint256",
          "name": "_id",
          "type": "uint256"
        }
      ],
      "name": "getGithubRequest",
      "outputs": [
        {
          "internalType": "bytes4",
          "name": "fulfillSelector",
          "type": "bytes4"
        },
        {
          "internalType": "string",
          "name": "query",
          "type": "string"
        },
        {
          "internalType": "string",
          "name": "nodeId",
          "type": "string"
        },
        {
          "internalType": "bool",
          "name": "fulfilled",
          "type": "bool"
        },
        {
          "internalType": "uint256",
          "name": "signatureId",
          "type": "uint256"
        }
      ],
      "stateMutability": "view",
      "type": "function"
    },
    {
      "inputs": [],
      "name": "getGithubOracle",
      "outputs": [
        {
          "internalType": "address",
          "name": "",
          "type": "address"
        }
      ],
      "stateMutability": "view",
      "type": "function"
    },
    {
      "inputs": [],
      "name": "getGithubOracleFee",
      "outputs": [
        {
          "internalType": "uint256",
          "name": "",
          "type": "uint256"
        }
      ],
      "stateMutability": "view",
      "type": "function"
    },
    {
      "inputs": [],
      "name": "getGithubSignerOwner",
      "outputs": [
        {
          "internalType": "address",
          "name": "",
          "type": "address"
        }
      ],
      "stateMutability": "view",
      "type": "function"
    },
    {
      "inputs": [],
      "name": "getGithubSignerFee",
      "outputs": [
        {
          "internalType": "uint256",
          "name": "",
          "type": "uint256"
        }
      ],
      "stateMutability": "view",
      "type": "function"
    },
    {
      "inputs": [],
      "name": "getGithubOracleAndSignerFee",
      "outputs": [
        {
          "internalType": "uint256",
          "name": "",
          "type": "uint256"
        }
      ],
      "stateMutability": "view",
      "type": "function"
    }
  ],
  "bytecode": "0x608060405234801561001057600080fd5b506105b0806100206000396000f3fe608060405234801561001057600080fd5b506004361061007d5760003560e01c80633276aa5a1161005b5780633276aa5a146100e55780639a7ab409146100ed578063b64434b6146100f5578063ed91c42b1461010657600080fd5b80630c1bbf7814610082578063225abba7146100af5780632dc378b8146100c5575b600080fd5b610095610090366004610451565b61010f565b6040516100a69594939291906104d0565b60405180910390f35b6100b7610277565b6040519081526020016100a6565b6100cd610311565b6040516001600160a01b0390911681526020016100a6565b6100b7610399565b6002546100b7565b6003546001600160a01b03166100cd565b6100b760025481565b600081815260208190526040812080546003820154600483015460018401805460609586958895869560e09290921b949360029093019260ff909116919084906101589061053f565b80601f01602080910402602001604051908101604052809291908181526020018280546101849061053f565b80156101d15780601f106101a6576101008083540402835291602001916101d1565b820191906000526020600020905b8154815290600101906020018083116101b457829003601f168201915b505050505093508280546101e49061053f565b80601f01602080910402602001604051908101604052809291908181526020018280546102109061053f565b801561025d5780601f106102325761010080835404028352916020019161025d565b820191906000526020600020905b81548152906001019060200180831161024057829003601f168201915b505050505092509450945094509450945091939590929450565b6000600460009054906101000a90046001600160a01b03166001600160a01b031663ddca3f436040518163ffffffff1660e01b815260040160206040518083038186803b1580156102c757600080fd5b505afa1580156102db573d6000803e3d6000fd5b505050506040513d601f19601f820116820180604052508101906102ff919061046a565b60025461030c9190610519565b905090565b6000600460009054906101000a90046001600160a01b03166001600160a01b0316638da5cb5b6040518163ffffffff1660e01b815260040160206040518083038186803b15801561036157600080fd5b505afa158015610375573d6000803e3d6000fd5b505050506040513d601f19601f8201168201806040525081019061030c9190610421565b6000600460009054906101000a90046001600160a01b03166001600160a01b031663ddca3f436040518163ffffffff1660e01b815260040160206040518083038186803b1580156103e957600080fd5b505afa1580156103fd573d6000803e3d6000fd5b505050506040513d601f19601f8201168201806040525081019061030c919061046a565b60006020828403121561043357600080fd5b81516001600160a01b038116811461044a57600080fd5b9392505050565b60006020828403121561046357600080fd5b5035919050565b60006020828403121561047c57600080fd5b5051919050565b6000815180845260005b818110156104a95760208185018101518683018201520161048d565b818111156104bb576000602083870101525b50601f01601f19169290920160200192915050565b63ffffffff60e01b8616815260a0602082015260006104f260a0830187610483565b82810360408401526105048187610483565b94151560608401525050608001529392505050565b6000821982111561053a57634e487b7160e01b600052601160045260246000fd5b500190565b600181811c9082168061055357607f821691505b6020821081141561057457634e487b7160e01b600052602260045260246000fd5b5091905056fea2646970667358221220ce8f9d4d78a4833a8fc3fc32dff8f7aab00dd0aedab7c6f2ba3214340ff8aec164736f6c63430008070033",
  "immutableReferences": {},
  "source": "// SPDX-License-Identifier: GPL-3.0\npragma solidity 0.8.7;\n\nimport './GithubSigner.sol';\n\ncontract GithubDataReceiver {\n  struct GithubRequest {\n    bytes4 fulfillSelector;\n    string query;\n    string nodeId;\n    bool fulfilled;\n    uint256 signatureId;\n  }\n  mapping(uint256 => GithubRequest) githubRequests;\n  uint256 lastGithubRequestId;\n\n  uint256 public githubOracleFee;\n  address githubOracle;\n  GithubSigner githubSigner;\n\n  event GithubOracleRequestEvent(uint256 requestId, uint256 signatureId);\n\n  function setGithubOracle(address _oracle) internal {\n    githubOracle = _oracle;\n  }\n\n  function setGithubSigner(address _signer) internal {\n    githubSigner = GithubSigner(_signer);\n  }\n\n  function getGithubRequest(uint256 _id) public view returns(\n    bytes4 fulfillSelector,\n    string memory query,\n    string memory nodeId,\n    bool fulfilled,\n    uint256 signatureId\n  ) {\n    return (\n      githubRequests[_id].fulfillSelector,\n      githubRequests[_id].query,\n      githubRequests[_id].nodeId,\n      githubRequests[_id].fulfilled,\n      githubRequests[_id].signatureId\n    );\n  }\n\n  function getGithubOracle() public view returns(address) {\n    return githubOracle;\n  }\n\n  function getGithubOracleFee() public view returns(uint256) {\n    return githubOracleFee;\n  }\n\n  function getGithubSignerOwner() public view returns(address) {\n    return githubSigner.owner();\n  }\n\n  function getGithubSignerFee() public view returns(uint256) {\n    return githubSigner.fee();\n  }\n\n  function getGithubOracleAndSignerFee() public view returns(uint256) {\n    return githubOracleFee + githubSigner.fee();\n  }\n\n  modifier signedGithubOracleResponseBool(uint256 _requestId, bool _value, bytes memory _signature) {\n    require(msg.sender == githubOracle, 'Only Github Oracle.');\n    require(githubRequests[_requestId].fulfilled == false, 'Request has already been fulfilled.');\n    require(githubSigner.verifySignatureBool(githubRequests[_requestId].signatureId, _signature, _value), 'Invalid signature.');\n    githubRequests[_requestId].fulfilled = true;\n    _;\n  }\n\n  modifier githubOracleResponse(uint256 _requestId) {\n    require(msg.sender == githubOracle, 'Only Github Oracle.');\n    require(githubRequests[_requestId].fulfilled == false, 'Request has already been fulfilled.');\n    githubRequests[_requestId].fulfilled = true;\n    _;\n  }\n\n  function githubOracleRequest(bytes4 _fulfillSelector, string memory _query, string memory _nodeId) internal returns(uint256) {\n    require(msg.value >= githubOracleFee, \"Insufficiant oracle payment.\");\n\n    payable(githubOracle).transfer(githubOracleFee);\n\n    lastGithubRequestId++;\n    githubRequests[lastGithubRequestId] = GithubRequest(\n      _fulfillSelector,\n      _query,\n      _nodeId,\n      false,\n      0\n    );\n\n    emit GithubOracleRequestEvent(lastGithubRequestId, 0);\n    \n    return lastGithubRequestId;\n  }\n\n  function signedGithubOracleRequest(bytes4 _fulfillSelector, string memory _query, string memory _nodeId) internal returns(uint256) {\n    require(msg.value >= githubSigner.fee() + githubOracleFee, \"Insufficiant oracle and signer payment.\");\n    \n    payable(githubOracle).transfer(githubOracleFee);\n\n    uint256 signatureId = githubSigner.requestSignature{ value: githubSigner.fee()}(_query, _nodeId);\n\n    lastGithubRequestId++;\n    githubRequests[lastGithubRequestId] = GithubRequest(\n      _fulfillSelector,\n      _query,\n      _nodeId,\n      false,\n      signatureId\n    );\n\n    emit GithubOracleRequestEvent(lastGithubRequestId, signatureId);\n    \n    return lastGithubRequestId;\n  }\n}",
  "sourcePath": "/home/mkt/Projects/cryptoactions/contracts/src/GithubDataReceiver.sol",
  "compiler": {
    "name": "solc",
    "version": "0.8.7+commit.e28d00a7.Emscripten.clang"
  },
  "schemaVersion": "3.4.3",
  "updatedAt": "2021-09-10T00:10:43.237Z",
  "devdoc": {
    "kind": "dev",
    "methods": {},
    "version": 1
  },
  "userdoc": {
    "kind": "user",
    "methods": {},
    "version": 1
  }
}