{
  "contractName": "GithubDataReceiver",
  "abi": [
    {
      "anonymous": false,
      "inputs": [
        {
          "indexed": false,
          "internalType": "uint256",
          "name": "requestId",
          "type": "uint256"
        },
        {
          "indexed": false,
          "internalType": "uint256",
          "name": "signatureId",
          "type": "uint256"
        }
      ],
      "name": "GithubOracleRequestEvent",
      "type": "event"
    },
    {
      "inputs": [],
      "name": "githubOracleFee",
      "outputs": [
        {
          "internalType": "uint256",
          "name": "",
          "type": "uint256"
        }
      ],
      "stateMutability": "view",
      "type": "function"
    },
    {
      "inputs": [
        {
          "internalType": "uint256",
          "name": "_id",
          "type": "uint256"
        }
      ],
      "name": "getGithubDataRequest",
      "outputs": [
        {
          "internalType": "address",
          "name": "sender",
          "type": "address"
        },
        {
          "internalType": "bytes4",
          "name": "fulfillSelector",
          "type": "bytes4"
        },
        {
          "internalType": "string",
          "name": "query",
          "type": "string"
        },
        {
          "internalType": "string",
          "name": "nodeId",
          "type": "string"
        },
        {
          "internalType": "bool",
          "name": "fulfilled",
          "type": "bool"
        },
        {
          "internalType": "uint256",
          "name": "signatureId",
          "type": "uint256"
        }
      ],
      "stateMutability": "view",
      "type": "function"
    },
    {
      "inputs": [],
      "name": "getGithubOracle",
      "outputs": [
        {
          "internalType": "address",
          "name": "",
          "type": "address"
        }
      ],
      "stateMutability": "view",
      "type": "function"
    },
    {
      "inputs": [],
      "name": "getGithubOracleFee",
      "outputs": [
        {
          "internalType": "uint256",
          "name": "",
          "type": "uint256"
        }
      ],
      "stateMutability": "view",
      "type": "function"
    },
    {
      "inputs": [],
      "name": "getGithubSignerOwner",
      "outputs": [
        {
          "internalType": "address",
          "name": "",
          "type": "address"
        }
      ],
      "stateMutability": "view",
      "type": "function"
    },
    {
      "inputs": [],
      "name": "getGithubSignerFee",
      "outputs": [
        {
          "internalType": "uint256",
          "name": "",
          "type": "uint256"
        }
      ],
      "stateMutability": "view",
      "type": "function"
    },
    {
      "inputs": [],
      "name": "getGithubOracleAndSignerFee",
      "outputs": [
        {
          "internalType": "uint256",
          "name": "",
          "type": "uint256"
        }
      ],
      "stateMutability": "view",
      "type": "function"
    }
  ],
  "bytecode": "0x608060405234801561001057600080fd5b506105d3806100206000396000f3fe608060405234801561001057600080fd5b506004361061007d5760003560e01c806396e29c991161005b57806396e29c99146100c55780639a7ab409146100ea578063b64434b6146100f2578063ed91c42b1461010357600080fd5b8063225abba7146100825780632dc378b81461009d5780633276aa5a146100bd575b600080fd5b61008a61010c565b6040519081526020015b60405180910390f35b6100a56101a6565b6040516001600160a01b039091168152602001610094565b61008a61022e565b6100d86100d3366004610461565b6102b6565b604051610094969594939291906104e0565b60025461008a565b6003546001600160a01b03166100a5565b61008a60025481565b6000600460009054906101000a90046001600160a01b03166001600160a01b031663ddca3f436040518163ffffffff1660e01b815260040160206040518083038186803b15801561015c57600080fd5b505afa158015610170573d6000803e3d6000fd5b505050506040513d601f19601f82011682018060405250810190610194919061047a565b6002546101a1919061053c565b905090565b6000600460009054906101000a90046001600160a01b03166001600160a01b0316638da5cb5b6040518163ffffffff1660e01b815260040160206040518083038186803b1580156101f657600080fd5b505afa15801561020a573d6000803e3d6000fd5b505050506040513d601f19601f820116820180604052508101906101a19190610431565b6000600460009054906101000a90046001600160a01b03166001600160a01b031663ddca3f436040518163ffffffff1660e01b815260040160206040518083038186803b15801561027e57600080fd5b505afa158015610292573d6000803e3d6000fd5b505050506040513d601f19601f820116820180604052508101906101a1919061047a565b600081815260208190526040812080546003820154600483015460018401805486956060958695889586956001600160a01b03841695600160a01b90940460e01b94909360029091019260ff169190849061031090610562565b80601f016020809104026020016040519081016040528092919081815260200182805461033c90610562565b80156103895780601f1061035e57610100808354040283529160200191610389565b820191906000526020600020905b81548152906001019060200180831161036c57829003601f168201915b5050505050935082805461039c90610562565b80601f01602080910402602001604051908101604052809291908181526020018280546103c890610562565b80156104155780601f106103ea57610100808354040283529160200191610415565b820191906000526020600020905b8154815290600101906020018083116103f857829003601f168201915b5050505050925095509550955095509550955091939550919395565b60006020828403121561044357600080fd5b81516001600160a01b038116811461045a57600080fd5b9392505050565b60006020828403121561047357600080fd5b5035919050565b60006020828403121561048c57600080fd5b5051919050565b6000815180845260005b818110156104b95760208185018101518683018201520161049d565b818111156104cb576000602083870101525b50601f01601f19169290920160200192915050565b6001600160a01b03871681526001600160e01b03198616602082015260c06040820181905260009061051490830187610493565b82810360608401526105268187610493565b9415156080840152505060a00152949350505050565b6000821982111561055d57634e487b7160e01b600052601160045260246000fd5b500190565b600181811c9082168061057657607f821691505b6020821081141561059757634e487b7160e01b600052602260045260246000fd5b5091905056fea264697066735822122058ead241139296f6d5203973a806b42894f81242e1413a36c4686019dce04c1b64736f6c63430008070033",
  "immutableReferences": {},
  "source": "// SPDX-License-Identifier: GPL-3.0\npragma solidity 0.8.7;\n\nimport './GithubSigner.sol';\n\ncontract GithubDataReceiver {\n  struct GithubDataRequest {\n    address sender;\n    bytes4 fulfillSelector;\n    string query;\n    string nodeId;\n    bool fulfilled;\n    uint256 signatureId;\n  }\n  mapping(uint256 => GithubDataRequest) githubDataRequests;\n  uint256 lastGithubDataRequestId;\n\n  uint256 public githubOracleFee;\n  address githubOracle;\n  GithubSigner githubSigner;\n\n  event GithubOracleRequestEvent(uint256 requestId, uint256 signatureId);\n\n  function setGithubOracle(address _oracle) internal {\n    githubOracle = _oracle;\n  }\n\n  function setGithubSigner(address _signer) internal {\n    githubSigner = GithubSigner(_signer);\n  }\n\n  function getGithubDataRequest(uint256 _id) public view returns(\n    address sender,\n    bytes4 fulfillSelector,\n    string memory query,\n    string memory nodeId,\n    bool fulfilled,\n    uint256 signatureId\n  ) {\n    return (\n      githubDataRequests[_id].sender,\n      githubDataRequests[_id].fulfillSelector,\n      githubDataRequests[_id].query,\n      githubDataRequests[_id].nodeId,\n      githubDataRequests[_id].fulfilled,\n      githubDataRequests[_id].signatureId\n    );\n  }\n\n  function getGithubOracle() public view returns(address) {\n    return githubOracle;\n  }\n\n  function getGithubOracleFee() public view returns(uint256) {\n    return githubOracleFee;\n  }\n\n  function getGithubSignerOwner() public view returns(address) {\n    return githubSigner.owner();\n  }\n\n  function getGithubSignerFee() public view returns(uint256) {\n    return githubSigner.fee();\n  }\n\n  function getGithubOracleAndSignerFee() public view returns(uint256) {\n    return githubOracleFee + githubSigner.fee();\n  }\n\n  modifier signedGithubOracleResponseBool(uint256 _requestId, bool _value, bytes memory _signature) {\n    require(msg.sender == githubOracle, 'Only Github Oracle.');\n    require(githubDataRequests[_requestId].fulfilled == false, 'Request has already been fulfilled.');\n    require(githubSigner.verifySignatureBool(githubDataRequests[_requestId].signatureId, _signature, _value), 'Invalid signature.');\n    githubDataRequests[_requestId].fulfilled = true;\n    _;\n  }\n\n  modifier signedGithubOracleResponseAddress(uint256 _requestId, address _value, bytes memory _signature) {\n    require(msg.sender == githubOracle, 'Only Github Oracle.');\n    require(githubDataRequests[_requestId].fulfilled == false, 'Request has already been fulfilled.');\n    require(githubSigner.verifySignatureAddress(githubDataRequests[_requestId].signatureId, _signature, _value), 'Invalid signature.');\n    githubDataRequests[_requestId].fulfilled = true;\n    _;\n  }\n\n  modifier signedGithubOracleResponseInt(uint256 _requestId, uint256 _value, bytes memory _signature) {\n    require(msg.sender == githubOracle, 'Only Github Oracle.');\n    require(githubDataRequests[_requestId].fulfilled == false, 'Request has already been fulfilled.');\n    require(githubSigner.verifySignatureInt(githubDataRequests[_requestId].signatureId, _signature, _value), 'Invalid signature.');\n    githubDataRequests[_requestId].fulfilled = true;\n    _;\n  }\n\n  modifier signedGithubOracleResponseString(uint256 _requestId, string memory _value, bytes memory _signature) {\n    require(msg.sender == githubOracle, 'Only Github Oracle.');\n    require(githubDataRequests[_requestId].fulfilled == false, 'Request has already been fulfilled.');\n    require(githubSigner.verifySignatureString(githubDataRequests[_requestId].signatureId, _signature, _value), 'Invalid signature.');\n    githubDataRequests[_requestId].fulfilled = true;\n    _;\n  }\n\n  modifier githubOracleResponse(uint256 _requestId) {\n    require(msg.sender == githubOracle, 'Only Github Oracle.');\n    require(githubDataRequests[_requestId].fulfilled == false, 'Request has already been fulfilled.');\n    githubDataRequests[_requestId].fulfilled = true;\n    _;\n  }\n\n  function githubOracleRequest(bytes4 _fulfillSelector, string memory _query, string memory _nodeId) internal returns(uint256) {\n    require(msg.value >= githubOracleFee, \"Insufficiant oracle payment.\");\n\n    payable(githubOracle).transfer(githubOracleFee);\n\n    lastGithubDataRequestId++;\n    githubDataRequests[lastGithubDataRequestId] = GithubDataRequest(\n      msg.sender,\n      _fulfillSelector,\n      _query,\n      _nodeId,\n      false,\n      0\n    );\n\n    emit GithubOracleRequestEvent(lastGithubDataRequestId, 0);\n    \n    return lastGithubDataRequestId;\n  }\n\n  function signedGithubOracleRequest(bytes4 _fulfillSelector, string memory _query, string memory _nodeId) internal returns(uint256) {\n    require(msg.value >= githubSigner.fee() + githubOracleFee, \"Insufficiant oracle and signer payment.\");\n    \n    payable(githubOracle).transfer(githubOracleFee);\n\n    uint256 signatureId = githubSigner.requestSignature{ value: githubSigner.fee()}(_query, _nodeId);\n\n    lastGithubDataRequestId++;\n    githubDataRequests[lastGithubDataRequestId] = GithubDataRequest(\n      msg.sender,\n      _fulfillSelector,\n      _query,\n      _nodeId,\n      false,\n      signatureId\n    );\n\n    emit GithubOracleRequestEvent(lastGithubDataRequestId, signatureId);\n    \n    return lastGithubDataRequestId;\n  }\n}",
  "sourcePath": "/home/mkt/Projects/cryptoactions/contracts/src/GithubDataReceiver.sol",
  "compiler": {
    "name": "solc",
    "version": "0.8.7+commit.e28d00a7.Emscripten.clang"
  },
  "schemaVersion": "3.4.3",
  "updatedAt": "2021-09-20T13:15:58.842Z",
  "devdoc": {
    "kind": "dev",
    "methods": {},
    "version": 1
  },
  "userdoc": {
    "kind": "user",
    "methods": {},
    "version": 1
  }
}