{
  "contractName": "GithubSigner",
  "abi": [
    {
      "inputs": [
        {
          "internalType": "uint256",
          "name": "_fee",
          "type": "uint256"
        }
      ],
      "stateMutability": "nonpayable",
      "type": "constructor"
    },
    {
      "inputs": [],
      "name": "fee",
      "outputs": [
        {
          "internalType": "uint256",
          "name": "",
          "type": "uint256"
        }
      ],
      "stateMutability": "view",
      "type": "function"
    },
    {
      "inputs": [],
      "name": "owner",
      "outputs": [
        {
          "internalType": "address",
          "name": "",
          "type": "address"
        }
      ],
      "stateMutability": "view",
      "type": "function"
    },
    {
      "inputs": [
        {
          "internalType": "uint256",
          "name": "_fee",
          "type": "uint256"
        }
      ],
      "name": "setFee",
      "outputs": [],
      "stateMutability": "nonpayable",
      "type": "function"
    },
    {
      "inputs": [
        {
          "internalType": "uint256",
          "name": "_requestId",
          "type": "uint256"
        }
      ],
      "name": "getRequest",
      "outputs": [
        {
          "internalType": "string",
          "name": "",
          "type": "string"
        },
        {
          "internalType": "string",
          "name": "",
          "type": "string"
        }
      ],
      "stateMutability": "view",
      "type": "function"
    },
    {
      "inputs": [
        {
          "internalType": "string",
          "name": "_query",
          "type": "string"
        },
        {
          "internalType": "string",
          "name": "_nodeId",
          "type": "string"
        }
      ],
      "name": "requestSignature",
      "outputs": [
        {
          "internalType": "uint256",
          "name": "",
          "type": "uint256"
        }
      ],
      "stateMutability": "payable",
      "type": "function"
    },
    {
      "inputs": [
        {
          "internalType": "uint256",
          "name": "_requestId",
          "type": "uint256"
        },
        {
          "internalType": "bytes",
          "name": "_signature",
          "type": "bytes"
        },
        {
          "internalType": "bool",
          "name": "_value",
          "type": "bool"
        }
      ],
      "name": "verifySignatureBool",
      "outputs": [
        {
          "internalType": "bool",
          "name": "",
          "type": "bool"
        }
      ],
      "stateMutability": "view",
      "type": "function"
    }
  ],
  "bytecode": "0x608060405234801561001057600080fd5b50604051610af4380380610af483398101604081905261002f9161004f565b600080546001600160a01b03191633178155600191909155600355610068565b60006020828403121561006157600080fd5b5051919050565b610a7d806100776000396000f3fe6080604052600436106100555760003560e01c806369fe0e2d1461005a57806374066a231461007c5780638da5cb5b146100b1578063a39083f2146100e9578063c58343ef1461010a578063ddca3f4314610138575b600080fd5b34801561006657600080fd5b5061007a610075366004610829565b61014e565b005b34801561008857600080fd5b5061009c610097366004610842565b6101a0565b60405190151581526020015b60405180910390f35b3480156100bd57600080fd5b506000546100d1906001600160a01b031681565b6040516001600160a01b0390911681526020016100a8565b6100fc6100f73660046107bd565b610307565b6040519081526020016100a8565b34801561011657600080fd5b5061012a610125366004610829565b6104b4565b6040516100a89291906109b5565b34801561014457600080fd5b506100fc60015481565b6000546001600160a01b0316331461019b5760405162461bcd60e51b815260206004820152600b60248201526a27b7363c9037bbb732b91760a91b60448201526064015b60405180910390fd5b600155565b6000848152600260208190526040822001546001600160a01b0316331461021e5760405162461bcd60e51b815260206004820152602c60248201527f526571756573742063616e206f6e6c792062652076657269666965642062792060448201526b3bb4379039b2b73a1034ba1760a11b6064820152608401610192565b600085815260026020908152604080832090516102a7926102479291600183019188910161098d565b60408051601f1981840301815282825280516020918201207f19457468657265756d205369676e6564204d6573736167653a0a33320000000084830152603c8085019190915282518085039091018152605c909301909152815191012090565b905060006102eb8287878080601f01602080910402602001604051908101604052809392919081815260200183838082843760009201919091525061062d92505050565b6000546001600160a01b03908116911614979650505050505050565b600060015434101561035b5760405162461bcd60e51b815260206004820152601c60248201527f496e73756666696369616e74207369676e6572207061796d656e742e000000006044820152606401610192565b600080546040516001600160a01b03909116913480156108fc02929091818181858888f19350505050158015610395573d6000803e3d6000fd5b50600380549060006103a683610a1e565b90915550506040805160a06020601f88018190040282018101909252608081018681526000928291908990899081908501838280828437600092019190915250505090825250604080516020601f88018190048102820181019092528681529181019190879087908190840183828082843760009201829052509385525050336020808501919091524260409485015260035483526002815292909120835180519495508594919361045d935084929101906106db565b50602082810151805161047692600185019201906106db565b5060408201516002820180546001600160a01b0319166001600160a01b03909216919091179055606090910151600391820155549695505050505050565b6060806000600260008581526020019081526020016000206040518060800160405290816000820180546104e7906109e3565b80601f0160208091040260200160405190810160405280929190818152602001828054610513906109e3565b80156105605780601f1061053557610100808354040283529160200191610560565b820191906000526020600020905b81548152906001019060200180831161054357829003601f168201915b50505050508152602001600182018054610579906109e3565b80601f01602080910402602001604051908101604052809291908181526020018280546105a5906109e3565b80156105f25780601f106105c7576101008083540402835291602001916105f2565b820191906000526020600020905b8154815290600101906020018083116105d557829003601f168201915b505050918352505060028201546001600160a01b03166020808301919091526003909201546040909101528151910151909590945092505050565b60008060008061063c856106ac565b6040805160008152602081018083528b905260ff8516918101919091526060810183905260808101829052929550909350915060019060a0016020604051602081039080840390855afa158015610697573d6000803e3d6000fd5b5050604051601f190151979650505050505050565b600080600083516041146106bf57600080fd5b5050506020810151604082015160609092015160001a92909190565b8280546106e7906109e3565b90600052602060002090601f016020900481019282610709576000855561074f565b82601f1061072257805160ff191683800117855561074f565b8280016001018555821561074f579182015b8281111561074f578251825591602001919060010190610734565b5061075b92915061075f565b5090565b5b8082111561075b5760008155600101610760565b60008083601f84011261078657600080fd5b50813567ffffffffffffffff81111561079e57600080fd5b6020830191508360208285010111156107b657600080fd5b9250929050565b600080600080604085870312156107d357600080fd5b843567ffffffffffffffff808211156107eb57600080fd5b6107f788838901610774565b9096509450602087013591508082111561081057600080fd5b5061081d87828801610774565b95989497509550505050565b60006020828403121561083b57600080fd5b5035919050565b6000806000806060858703121561085857600080fd5b84359350602085013567ffffffffffffffff81111561087657600080fd5b61088287828801610774565b9094509250506040850135801515811461089b57600080fd5b939692955090935050565b6000815180845260005b818110156108cc576020818501810151868301820152016108b0565b818111156108de576000602083870101525b50601f01601f19169290920160200192915050565b8054600090600181811c908083168061090d57607f831692505b602080841082141561092f57634e487b7160e01b600052602260045260246000fd5b818015610943576001811461095457610981565b60ff19861689528489019650610981565b60008881526020902060005b868110156109795781548b820152908501908301610960565b505084890196505b50505050505092915050565b60006109a261099c83876108f3565b856108f3565b92151560f81b8352505060010192915050565b6040815260006109c860408301856108a6565b82810360208401526109da81856108a6565b95945050505050565b600181811c908216806109f757607f821691505b60208210811415610a1857634e487b7160e01b600052602260045260246000fd5b50919050565b6000600019821415610a4057634e487b7160e01b600052601160045260246000fd5b506001019056fea2646970667358221220ebafb568769e69f7b4f9217127cf7bf73586f0b92f243e8dd151100dc1ff65c564736f6c63430008070033",
  "immutableReferences": {},
  "source": "// SPDX-License-Identifier: GPL-3.0\npragma solidity 0.8.7;\n\ncontract GithubSigner {\n  address public owner;\n  uint256 public fee;\n  \n  struct Request {\n    string query;\n    string nodeId;\n    address consumer;\n    uint256 timestamp;\n  }\n  mapping(uint256 => Request) requests;\n  uint256 lastRequestId;\n\n  constructor(uint256 _fee) {\n    owner = msg.sender;\n    fee = _fee;\n    lastRequestId = 0;\n  }\n\n  function setFee(uint256 _fee) public {\n    require(msg.sender == owner, 'Only owner.');\n    fee = _fee;\n  }\n\n  function getRequest(uint256 _requestId) public view returns(string memory, string memory) {\n    Request memory request = requests[_requestId];\n    return (request.query, request.nodeId);\n  }\n\n  function requestSignature(string calldata _query, string calldata _nodeId) public payable returns(uint256) {\n    require(msg.value >= fee, 'Insufficiant signer payment.');\n    payable(owner).transfer(msg.value);\n\n    lastRequestId++;\n    Request memory request = Request(\n      _query,\n      _nodeId,\n      msg.sender,\n      block.timestamp\n    );\n    requests[lastRequestId] = request;\n    \n    return lastRequestId;\n  }\n\n  function verifySignatureBool(uint256 _requestId, bytes calldata _signature, bool _value) public view returns(bool) {\n    require(msg.sender == requests[_requestId].consumer, 'Request can only be verified by who sent it.');\n\n    bytes32 message = prefixed(keccak256(abi.encodePacked(requests[_requestId].query, requests[_requestId].nodeId, _value)));\n    address recovered = recoverSigner(message, _signature);\n\n    return recovered == owner;\n  }\n\n  // signature methods.\n  function splitSignature(bytes memory sig)\n      internal\n      pure\n      returns (uint8 v, bytes32 r, bytes32 s)\n  {\n      require(sig.length == 65);\n\n      assembly {\n          // first 32 bytes, after the length prefix.\n          r := mload(add(sig, 32))\n          // second 32 bytes.\n          s := mload(add(sig, 64))\n          // final byte (first byte of the next 32 bytes).\n          v := byte(0, mload(add(sig, 96)))\n      }\n\n      return (v, r, s);\n  }\n\n  function recoverSigner(bytes32 message, bytes memory sig)\n      internal\n      pure\n      returns (address)\n  {\n      (uint8 v, bytes32 r, bytes32 s) = splitSignature(sig);\n\n      return ecrecover(message, v, r, s);\n  }\n\n  // builds a prefixed hash to mimic the behavior of eth_sign.\n  function prefixed(bytes32 hash) internal pure returns (bytes32) {\n      return keccak256(abi.encodePacked(\"\\x19Ethereum Signed Message:\\n32\", hash));\n  }\n}",
  "sourcePath": "/home/mkt/Projects/cryptoactions/contracts/src/GithubSigner.sol",
  "compiler": {
    "name": "solc",
    "version": "0.8.7+commit.e28d00a7.Emscripten.clang"
  },
  "schemaVersion": "3.4.3",
  "updatedAt": "2021-09-13T20:30:38.760Z",
  "devdoc": {
    "kind": "dev",
    "methods": {},
    "version": 1
  },
  "userdoc": {
    "kind": "user",
    "methods": {},
    "version": 1
  }
}