{
  "contractName": "GithubOracleCluster",
  "abi": [
    {
      "inputs": [
        {
          "internalType": "uint256",
          "name": "_fee",
          "type": "uint256"
        }
      ],
      "stateMutability": "nonpayable",
      "type": "constructor"
    },
    {
      "inputs": [],
      "name": "fee",
      "outputs": [
        {
          "internalType": "uint256",
          "name": "",
          "type": "uint256"
        }
      ],
      "stateMutability": "view",
      "type": "function",
      "constant": true
    },
    {
      "inputs": [],
      "name": "owner",
      "outputs": [
        {
          "internalType": "address",
          "name": "",
          "type": "address"
        }
      ],
      "stateMutability": "view",
      "type": "function",
      "constant": true
    },
    {
      "inputs": [
        {
          "internalType": "address",
          "name": "_account",
          "type": "address"
        }
      ],
      "name": "addOracle",
      "outputs": [],
      "stateMutability": "nonpayable",
      "type": "function"
    },
    {
      "inputs": [
        {
          "internalType": "address",
          "name": "_account",
          "type": "address"
        }
      ],
      "name": "removeOracle",
      "outputs": [],
      "stateMutability": "nonpayable",
      "type": "function"
    },
    {
      "inputs": [],
      "name": "topUpConsumerBalance",
      "outputs": [],
      "stateMutability": "payable",
      "type": "function",
      "payable": true
    },
    {
      "inputs": [
        {
          "internalType": "bytes4",
          "name": "_fulfillFunction",
          "type": "bytes4"
        },
        {
          "internalType": "string",
          "name": "_query",
          "type": "string"
        }
      ],
      "name": "makeRequest",
      "outputs": [],
      "stateMutability": "nonpayable",
      "type": "function"
    },
    {
      "inputs": [
        {
          "internalType": "uint256",
          "name": "_requestId",
          "type": "uint256"
        },
        {
          "internalType": "bytes32",
          "name": "_data",
          "type": "bytes32"
        },
        {
          "internalType": "bytes",
          "name": "_sig1",
          "type": "bytes"
        },
        {
          "internalType": "bytes",
          "name": "_sig2",
          "type": "bytes"
        }
      ],
      "name": "fulfillRequest",
      "outputs": [
        {
          "internalType": "bool",
          "name": "",
          "type": "bool"
        }
      ],
      "stateMutability": "nonpayable",
      "type": "function"
    }
  ],
  "bytecode": "0x608060405234801561001057600080fd5b50604051610b79380380610b7983398101604081905261002f91610049565b600080546001600160a01b03191633179055600155610062565b60006020828403121561005b57600080fd5b5051919050565b610b08806100716000396000f3fe6080604052600436106100705760003560e01c8063ddca3f431161004e578063ddca3f43146100dc578063df5dd1a514610100578063f74f3bdf14610120578063fdc85fc41461015057600080fd5b80637caa4718146100755780638da5cb5b146100975780639cc4752d146100d4575b600080fd5b34801561008157600080fd5b5061009561009036600461086d565b610170565b005b3480156100a357600080fd5b506000546100b7906001600160a01b031681565b6040516001600160a01b0390911681526020015b60405180910390f35b610095610252565b3480156100e857600080fd5b506100f260015481565b6040519081526020016100cb565b34801561010c57600080fd5b5061009561011b36600461083d565b610278565b34801561012c57600080fd5b5061014061013b3660046108ff565b6102cf565b60405190151581526020016100cb565b34801561015c57600080fd5b5061009561016b36600461083d565b61061e565b6040518060600160405280336001600160a01b0316815260200183838080601f01602080910402602001604051908101604052809392919081815260200183838082843760009201829052509385525050506001600160e01b0319861660209283015260045481526005825260409020825181546001600160a01b0319166001600160a01b03909116178155828201518051919261021692600185019290910190610717565b50604091909101516002909101805463ffffffff191660e09290921c9190911790556004805490600061024883610a8b565b9190505550505050565b33600090815260036020526040812080543492906102719084906109f7565b9091555050565b6000546001600160a01b031633146102ab5760405162461bcd60e51b81526004016102a2906109b1565b60405180910390fd5b6001600160a01b03166000908152600260205260409020805460ff19166001179055565b3360009081526002602052604081205460ff166103445760405162461bcd60e51b815260206004820152602d60248201527f4f6e6c792072656769737465726564206f7261636c65732063616e2066756c6660448201526c34b636103932b8bab2b9ba399760991b60648201526084016102a2565b6001546000868152600560209081526040808320546001600160a01b03168352600390915290205410156103ba5760405162461bcd60e51b815260206004820152601e60248201527f436f6e73756d65722062616c616e636520696e73756666696369616e742e000060448201526064016102a2565b60006103c68585610669565b905060006103d48685610669565b6001600160a01b03831660009081526002602052604090205490915060ff16801561041757506001600160a01b03811660009081526002602052604090205460ff165b61047a5760405162461bcd60e51b815260206004820152602e60248201527f4f6e6c792072656769737465726564206f7261636c65732063616e207369676e60448201526d10333ab63334b63636b2b73a399760911b60648201526084016102a2565b336001600160a01b03166108fc600a60015460086104989190610a31565b6104a29190610a0f565b6040518115909202916000818181858888f193505050501580156104ca573d6000803e3d6000fd5b50816001600160a01b03166108fc600a6001546104e79190610a0f565b6040518115909202916000818181858888f1935050505015801561050f573d6000803e3d6000fd5b50806001600160a01b03166108fc600a60015461052c9190610a0f565b6040518115909202916000818181858888f19350505050158015610554573d6000803e3d6000fd5b5060008781526005602052604080822080546002909101549151602481018b9052604481018a90526001600160a01b039091169160e01b9060640160408051601f198184030181529181526020820180516001600160e01b03166001600160e01b03199094169390931790925290516105cd9190610976565b6000604051808303816000865af19150503d806000811461060a576040519150601f19603f3d011682016040523d82523d6000602084013e61060f565b606091505b50909998505050505050505050565b6000546001600160a01b031633146106485760405162461bcd60e51b81526004016102a2906109b1565b6001600160a01b03166000908152600260205260409020805460ff19169055565b600080600080610678856106e8565b6040805160008152602081018083528b905260ff8516918101919091526060810183905260808101829052929550909350915060019060a0016020604051602081039080840390855afa1580156106d3573d6000803e3d6000fd5b5050604051601f190151979650505050505050565b600080600083516041146106fb57600080fd5b5050506020810151604082015160609092015160001a92909190565b82805461072390610a50565b90600052602060002090601f016020900481019282610745576000855561078b565b82601f1061075e57805160ff191683800117855561078b565b8280016001018555821561078b579182015b8281111561078b578251825591602001919060010190610770565b5061079792915061079b565b5090565b5b80821115610797576000815560010161079c565b600082601f8301126107c157600080fd5b813567ffffffffffffffff808211156107dc576107dc610abc565b604051601f8301601f19908116603f0116810190828211818310171561080457610804610abc565b8160405283815286602085880101111561081d57600080fd5b836020870160208301376000602085830101528094505050505092915050565b60006020828403121561084f57600080fd5b81356001600160a01b038116811461086657600080fd5b9392505050565b60008060006040848603121561088257600080fd5b83356001600160e01b03198116811461089a57600080fd5b9250602084013567ffffffffffffffff808211156108b757600080fd5b818601915086601f8301126108cb57600080fd5b8135818111156108da57600080fd5b8760208285010111156108ec57600080fd5b6020830194508093505050509250925092565b6000806000806080858703121561091557600080fd5b8435935060208501359250604085013567ffffffffffffffff8082111561093b57600080fd5b610947888389016107b0565b9350606087013591508082111561095d57600080fd5b5061096a878288016107b0565b91505092959194509250565b6000825160005b81811015610997576020818601810151858301520161097d565b818111156109a6576000828501525b509190910192915050565b60208082526026908201527f4f6e6c79206f776e65722063616e20616464206f7261636c657320746f20636c6040820152653ab9ba32b91760d11b606082015260800190565b60008219821115610a0a57610a0a610aa6565b500190565b600082610a2c57634e487b7160e01b600052601260045260246000fd5b500490565b6000816000190483118215151615610a4b57610a4b610aa6565b500290565b600181811c90821680610a6457607f821691505b60208210811415610a8557634e487b7160e01b600052602260045260246000fd5b50919050565b6000600019821415610a9f57610a9f610aa6565b5060010190565b634e487b7160e01b600052601160045260246000fd5b634e487b7160e01b600052604160045260246000fdfea2646970667358221220a9ede475054eaca4fc41d1ac5ff563ef95f253f54e1ccf134d53be1f09d0b4c564736f6c63430008070033",
  "immutableReferences": {},
  "source": "// SPDX-License-Identifier: GPL-3.0\n\npragma solidity 0.8.7;\n\ncontract GithubOracleCluster {\n  address public owner;\n  uint256 public fee;\n\n  mapping(address => bool) oracles;\n  mapping(address => uint256) consumerBalances;\n\n  struct Request {\n    address consumer;\n    string query;\n    bytes4 fulfillFunction;\n  }\n  uint256 nextRequestId;\n  mapping(uint256 => Request) requests;\n\n  constructor(uint256 _fee) {\n    owner = msg.sender;\n    fee = _fee;\n  }\n\n  modifier onlyOwner() {\n    require(msg.sender == owner, \"Only owner can add oracles to cluster.\");\n    _;\n  }\n\n  function addOracle(address _account) public onlyOwner {\n    oracles[_account] = true;\n  }\n\n  function removeOracle(address _account) public onlyOwner {\n    oracles[_account] = false;\n  }\n\n  function topUpConsumerBalance() public payable {\n    consumerBalances[msg.sender] += msg.value;\n  }\n\n  function makeRequest(bytes4 _fulfillFunction, string calldata _query) public {\n    requests[nextRequestId] = Request(msg.sender, _query, _fulfillFunction);\n    nextRequestId++;\n  }\n\n  function fulfillRequest(uint256 _requestId, bytes32 _data, bytes memory _sig1, bytes memory _sig2) public returns (bool) {\n    require(oracles[msg.sender], \"Only registered oracles can fulfill requests.\");\n    require(consumerBalances[requests[_requestId].consumer] >= fee, \"Consumer balance insufficiant.\");\n\n    // check signatures\n    address signer1 = recoverAccountFromSignature(_data, _sig1);\n    address signer2 = recoverAccountFromSignature(_data, _sig2);\n    require(oracles[signer1] && oracles[signer2], \"Only registered oracles can sign fulfillments.\");\n\n    // transfer fee (80% to responding oracle, 10% to each signing oracle)\n    payable(msg.sender).transfer((fee * 8) / 10);\n    payable(signer1).transfer(fee / 10);\n    payable(signer2).transfer(fee / 10);\n\n    // fulfill\n    (bool success, ) = requests[_requestId].consumer.call(\n      abi.encodeWithSelector(\n        requests[_requestId].fulfillFunction,\n        _requestId,\n        _data\n      )\n    );\n\n    return success;\n  }\n\n  function recoverAccountFromSignature(bytes32 _data, bytes memory _sig) internal pure returns(address) {\n    (uint8 v, bytes32 r, bytes32 s) = splitSignature(_sig);\n    return ecrecover(_data, v, r, s);\n  }\n\n  function splitSignature(bytes memory sig)\n    internal\n    pure\n    returns (\n      uint8 v,\n      bytes32 r,\n      bytes32 s\n    )\n  {\n    require(sig.length == 65);\n\n    assembly {\n      // first 32 bytes, after the length prefix\n      r := mload(add(sig, 32))\n      // second 32 bytes\n      s := mload(add(sig, 64))\n      // final byte (first byte of the next 32 bytes)\n      v := byte(0, mload(add(sig, 96)))\n    }\n\n    return (v, r, s);\n  }\n}\n",
  "sourcePath": "/home/mkt/Projects/cryptoactions/evm-contracts/contracts/GithubOracleCluster.sol",
  "compiler": {
    "name": "solc",
    "version": "0.8.7+commit.e28d00a7.Emscripten.clang"
  },
  "schemaVersion": "3.4.3",
  "updatedAt": "2021-08-29T16:13:48.451Z",
  "networkType": "ethereum",
  "devdoc": {
    "kind": "dev",
    "methods": {},
    "version": 1
  },
  "userdoc": {
    "kind": "user",
    "methods": {},
    "version": 1
  }
}