{
  "contractName": "GithubUserAddressBook",
  "abi": [
    {
      "inputs": [
        {
          "internalType": "address",
          "name": "_oracle",
          "type": "address"
        },
        {
          "internalType": "address",
          "name": "_signer",
          "type": "address"
        },
        {
          "internalType": "uint256",
          "name": "_fee",
          "type": "uint256"
        }
      ],
      "stateMutability": "nonpayable",
      "type": "constructor"
    },
    {
      "anonymous": false,
      "inputs": [
        {
          "indexed": false,
          "internalType": "uint256",
          "name": "requestId",
          "type": "uint256"
        },
        {
          "indexed": false,
          "internalType": "uint256",
          "name": "signatureId",
          "type": "uint256"
        }
      ],
      "name": "GithubOracleRequestEvent",
      "type": "event"
    },
    {
      "anonymous": false,
      "inputs": [
        {
          "indexed": false,
          "internalType": "uint256",
          "name": "requestId",
          "type": "uint256"
        },
        {
          "indexed": false,
          "internalType": "string",
          "name": "githubUserId",
          "type": "string"
        },
        {
          "indexed": false,
          "internalType": "address",
          "name": "account",
          "type": "address"
        }
      ],
      "name": "VerifyAddressEvent",
      "type": "event"
    },
    {
      "inputs": [
        {
          "internalType": "uint256",
          "name": "_id",
          "type": "uint256"
        }
      ],
      "name": "getGithubDataRequest",
      "outputs": [
        {
          "internalType": "address",
          "name": "sender",
          "type": "address"
        },
        {
          "internalType": "bytes4",
          "name": "fulfillSelector",
          "type": "bytes4"
        },
        {
          "internalType": "string",
          "name": "query",
          "type": "string"
        },
        {
          "internalType": "string",
          "name": "nodeId",
          "type": "string"
        },
        {
          "internalType": "bool",
          "name": "fulfilled",
          "type": "bool"
        },
        {
          "internalType": "uint256",
          "name": "signatureId",
          "type": "uint256"
        }
      ],
      "stateMutability": "view",
      "type": "function"
    },
    {
      "inputs": [],
      "name": "getGithubOracle",
      "outputs": [
        {
          "internalType": "address",
          "name": "",
          "type": "address"
        }
      ],
      "stateMutability": "view",
      "type": "function"
    },
    {
      "inputs": [],
      "name": "getGithubOracleAndSignerFee",
      "outputs": [
        {
          "internalType": "uint256",
          "name": "",
          "type": "uint256"
        }
      ],
      "stateMutability": "view",
      "type": "function"
    },
    {
      "inputs": [],
      "name": "getGithubOracleFee",
      "outputs": [
        {
          "internalType": "uint256",
          "name": "",
          "type": "uint256"
        }
      ],
      "stateMutability": "view",
      "type": "function"
    },
    {
      "inputs": [],
      "name": "getGithubSignerFee",
      "outputs": [
        {
          "internalType": "uint256",
          "name": "",
          "type": "uint256"
        }
      ],
      "stateMutability": "view",
      "type": "function"
    },
    {
      "inputs": [],
      "name": "getGithubSignerOwner",
      "outputs": [
        {
          "internalType": "address",
          "name": "",
          "type": "address"
        }
      ],
      "stateMutability": "view",
      "type": "function"
    },
    {
      "inputs": [],
      "name": "githubOracleFee",
      "outputs": [
        {
          "internalType": "uint256",
          "name": "",
          "type": "uint256"
        }
      ],
      "stateMutability": "view",
      "type": "function"
    },
    {
      "inputs": [
        {
          "internalType": "string",
          "name": "_githubUserId",
          "type": "string"
        }
      ],
      "name": "requestAddressVerification",
      "outputs": [],
      "stateMutability": "payable",
      "type": "function"
    },
    {
      "inputs": [
        {
          "internalType": "uint256",
          "name": "_requestId",
          "type": "uint256"
        },
        {
          "internalType": "address",
          "name": "_value",
          "type": "address"
        },
        {
          "internalType": "bytes",
          "name": "_signature",
          "type": "bytes"
        }
      ],
      "name": "verifyAddress",
      "outputs": [],
      "stateMutability": "nonpayable",
      "type": "function"
    },
    {
      "inputs": [
        {
          "internalType": "string",
          "name": "_githubUserId",
          "type": "string"
        }
      ],
      "name": "get",
      "outputs": [
        {
          "internalType": "address payable",
          "name": "",
          "type": "address"
        }
      ],
      "stateMutability": "view",
      "type": "function"
    },
    {
      "inputs": [
        {
          "internalType": "address",
          "name": "_address",
          "type": "address"
        }
      ],
      "name": "getId",
      "outputs": [
        {
          "internalType": "string",
          "name": "",
          "type": "string"
        }
      ],
      "stateMutability": "view",
      "type": "function"
    }
  ],
  "bytecode": "0x608060405234801561001057600080fd5b506040516113d43803806113d483398101604081905261002f9161008e565b6002819055600380546001600160a01b0319166001600160a01b038516179055600480546001600160a01b0319166001600160a01b0384161790555050506100ca565b80516001600160a01b038116811461008957600080fd5b919050565b6000806000606084860312156100a357600080fd5b6100ac84610072565b92506100ba60208501610072565b9150604084015190509250925092565b6112fb806100d96000396000f3fe60806040526004361061009c5760003560e01c806365f68c891161006457806365f68c8914610140578063693ec85e1461016d57806396e29c991461018d5780639a7ab409146101bf578063b64434b6146101d4578063ed91c42b146101f257600080fd5b8063225abba7146100a15780632dc378b8146100c95780632e309d65146100f65780633276aa5a1461011857806353f14de01461012d575b600080fd5b3480156100ad57600080fd5b506100b6610208565b6040519081526020015b60405180910390f35b3480156100d557600080fd5b506100de6102a2565b6040516001600160a01b0390911681526020016100c0565b34801561010257600080fd5b50610116610111366004610ec8565b61032a565b005b34801561012457600080fd5b506100b66105f5565b61011661013b366004610e24565b61067d565b34801561014c57600080fd5b5061016061015b366004610dc1565b610701565b6040516100c091906110c0565b34801561017957600080fd5b506100de610188366004610e24565b6107ad565b34801561019957600080fd5b506101ad6101a8366004610e96565b6107e2565b6040516100c096959493929190611064565b3480156101cb57600080fd5b506002546100b6565b3480156101e057600080fd5b506003546001600160a01b03166100de565b3480156101fe57600080fd5b506100b660025481565b6000600460009054906101000a90046001600160a01b03166001600160a01b031663ddca3f436040518163ffffffff1660e01b815260040160206040518083038186803b15801561025857600080fd5b505afa15801561026c573d6000803e3d6000fd5b505050506040513d601f19601f820116820180604052508101906102909190610eaf565b60025461029d91906111d5565b905090565b6000600460009054906101000a90046001600160a01b03166001600160a01b0316638da5cb5b6040518163ffffffff1660e01b815260040160206040518083038186803b1580156102f257600080fd5b505afa158015610306573d6000803e3d6000fd5b505050506040513d601f19601f8201168201806040525081019061029d9190610de5565b6003548390839083906001600160a01b031633146103855760405162461bcd60e51b815260206004820152601360248201527227b7363c9023b4ba343ab11027b930b1b6329760691b60448201526064015b60405180910390fd5b60008381526020819052604090206003015460ff16156103f35760405162461bcd60e51b815260206004820152602360248201527f526571756573742068617320616c7265616479206265656e2066756c66696c6c60448201526232b21760e91b606482015260840161037c565b600480546000858152602081905260409081902083015490516319da361360e11b81526001600160a01b03909216926333b46c269261043792918691889101611101565b60206040518083038186803b15801561044f57600080fd5b505afa158015610463573d6000803e3d6000fd5b505050506040513d601f19601f820116820180604052508101906104879190610e02565b6104c85760405162461bcd60e51b815260206004820152601260248201527124b73b30b634b21039b4b3b730ba3ab9329760711b604482015260640161037c565b600083815260208190526040808220600301805460ff191660011790558782529020546001600160a01b038681169116146105575760405162461bcd60e51b815260206004820152602960248201527f4164647265737320646f6573206e6f74206d617463682074686520726571756560448201526839ba32b21037b7329760b91b606482015260840161037c565b8460056007600089815260200190815260200160002060405161057a9190610ff2565b908152604080516020928190038301812080546001600160a01b0319166001600160a01b0395909516949094179093556000898152600790925290207fcb518339f7ac809fa5b8d9604aea51cfab67c561e25d1015e13a524a1f6636f7916105e59189918990611132565b60405180910390a1505050505050565b6000600460009054906101000a90046001600160a01b03166001600160a01b031663ddca3f436040518163ffffffff1660e01b815260040160206040518083038186803b15801561064557600080fd5b505afa158015610659573d6000803e3d6000fd5b505050506040513d601f19601f8201168201806040525081019061029d9190610eaf565b60006106df632e309d6560e01b6040518060600160405280603e8152602001611288603e913985858080601f01602080910402602001604051908101604052809392919081815260200183838082843760009201919091525061095d92505050565b60008181526007602052604090209091506106fb908484610cb4565b50505050565b6001600160a01b0381166000908152600660205260409020805460609190610728906111ed565b80601f0160208091040260200160405190810160405280929190818152602001828054610754906111ed565b80156107a15780601f10610776576101008083540402835291602001916107a1565b820191906000526020600020905b81548152906001019060200180831161078457829003601f168201915b50505050509050919050565b6000600583836040516107c1929190610fe2565b908152604051908190036020019020546001600160a01b0316905092915050565b600081815260208190526040812080546003820154600483015460018401805486956060958695889586956001600160a01b03841695600160a01b90940460e01b94909360029091019260ff169190849061083c906111ed565b80601f0160208091040260200160405190810160405280929190818152602001828054610868906111ed565b80156108b55780601f1061088a576101008083540402835291602001916108b5565b820191906000526020600020905b81548152906001019060200180831161089857829003601f168201915b505050505093508280546108c8906111ed565b80601f01602080910402602001604051908101604052809291908181526020018280546108f4906111ed565b80156109415780601f1061091657610100808354040283529160200191610941565b820191906000526020600020905b81548152906001019060200180831161092457829003601f168201915b5050505050925095509550955095509550955091939550919395565b6000600254600460009054906101000a90046001600160a01b03166001600160a01b031663ddca3f436040518163ffffffff1660e01b815260040160206040518083038186803b1580156109b057600080fd5b505afa1580156109c4573d6000803e3d6000fd5b505050506040513d601f19601f820116820180604052508101906109e89190610eaf565b6109f291906111d5565b341015610a515760405162461bcd60e51b815260206004820152602760248201527f496e73756666696369616e74206f7261636c6520616e64207369676e6572207060448201526630bcb6b2b73a1760c91b606482015260840161037c565b6003546002546040516001600160a01b039092169181156108fc0291906000818181858888f19350505050158015610a8d573d6000803e3d6000fd5b50600480546040805163ddca3f4360e01b815290516000936001600160a01b039093169263a39083f292849263ddca3f4392828101926020929190829003018186803b158015610adc57600080fd5b505afa158015610af0573d6000803e3d6000fd5b505050506040513d601f19601f82011682018060405250810190610b149190610eaf565b86866040518463ffffffff1660e01b8152600401610b339291906110d3565b6020604051808303818588803b158015610b4c57600080fd5b505af1158015610b60573d6000803e3d6000fd5b50505050506040513d601f19601f82011682018060405250810190610b859190610eaf565b600180549192506000610b9783611228565b90915550506040805160c0810182523381526001600160e01b0319871660208083019182528284018881526060840188905260006080850181905260a0850187905260018054825281845295902084518154945160e01c600160a01b026001600160c01b03199095166001600160a01b03919091161793909317835551805193949293610c2b938501929190910190610d38565b5060608201518051610c47916002840191602090910190610d38565b50608082015160038201805460ff191691151591909117905560a09091015160049091015560015460408051918252602082018390527f1753bd0fc45dc4610efeb5d9fb79269d7ddbcb64344c566aa8a5d05fb3fd90cf910160405180910390a150506001549392505050565b828054610cc0906111ed565b90600052602060002090601f016020900481019282610ce25760008555610d28565b82601f10610cfb5782800160ff19823516178555610d28565b82800160010185558215610d28579182015b82811115610d28578235825591602001919060010190610d0d565b50610d34929150610dac565b5090565b828054610d44906111ed565b90600052602060002090601f016020900481019282610d665760008555610d28565b82601f10610d7f57805160ff1916838001178555610d28565b82800160010185558215610d28579182015b82811115610d28578251825591602001919060010190610d91565b5b80821115610d345760008155600101610dad565b600060208284031215610dd357600080fd5b8135610dde8161126f565b9392505050565b600060208284031215610df757600080fd5b8151610dde8161126f565b600060208284031215610e1457600080fd5b81518015158114610dde57600080fd5b60008060208385031215610e3757600080fd5b823567ffffffffffffffff80821115610e4f57600080fd5b818501915085601f830112610e6357600080fd5b813581811115610e7257600080fd5b866020828501011115610e8457600080fd5b60209290920196919550909350505050565b600060208284031215610ea857600080fd5b5035919050565b600060208284031215610ec157600080fd5b5051919050565b600080600060608486031215610edd57600080fd5b833592506020840135610eef8161126f565b9150604084013567ffffffffffffffff80821115610f0c57600080fd5b818601915086601f830112610f2057600080fd5b813581811115610f3257610f32611259565b604051601f8201601f19908116603f01168101908382118183101715610f5a57610f5a611259565b81604052828152896020848701011115610f7357600080fd5b8260208601602083013760006020848301015280955050505050509250925092565b6000815180845260005b81811015610fbb57602081850181015186830182015201610f9f565b81811115610fcd576000602083870101525b50601f01601f19169290920160200192915050565b8183823760009101908152919050565b6000808354611000816111ed565b60018281168015611018576001811461102957611058565b60ff19841687528287019450611058565b8760005260208060002060005b8581101561104f5781548a820152908401908201611036565b50505082870194505b50929695505050505050565b6001600160a01b03871681526001600160e01b03198616602082015260c06040820181905260009061109890830187610f95565b82810360608401526110aa8187610f95565b9415156080840152505060a00152949350505050565b602081526000610dde6020830184610f95565b6040815260006110e66040830185610f95565b82810360208401526110f88185610f95565b95945050505050565b83815260606020820152600061111a6060830185610f95565b905060018060a01b0383166040830152949350505050565b838152600060206060818401526000855461114c816111ed565b806060870152608060018084166000811461116e5760018114611182576111b0565b60ff1985168984015260a0890195506111b0565b8a6000528660002060005b858110156111a85781548b820186015290830190880161118d565b8a0184019650505b505050506001600160a01b03861660408601525091506111cd9050565b949350505050565b600082198211156111e8576111e8611243565b500190565b600181811c9082168061120157607f821691505b6020821081141561122257634e487b7160e01b600052602260045260246000fd5b50919050565b600060001982141561123c5761123c611243565b5060010190565b634e487b7160e01b600052601160045260246000fd5b634e487b7160e01b600052604160045260246000fd5b6001600160a01b038116811461128457600080fd5b5056fe55736572207b206769737473286c6173743a203129207b206e6f646573207b2066696c6573286c696d69743a203129207b2074657874207d207d207d207da26469706673582212203f97cb7c64c05c9d9cc04b700b691678f02cf32c2eb6ff60a6f78a4a79a717f664736f6c63430008070033",
  "immutableReferences": {},
  "source": "// SPDX-License-Identifier: MIT\npragma solidity 0.8.7;\n\nimport './GithubDataReceiver.sol';\n\ncontract GithubUserAddressBook is GithubDataReceiver {\n  mapping(string => address) githubUserAddresses;\n  mapping(address => string) githubUserIds;\n  mapping(uint256 => string) verificationRequests;\n\n  constructor(address _oracle, address _signer, uint256 _fee) {\n    githubOracleFee = _fee;\n    setGithubOracle(_oracle);\n    setGithubSigner(_signer);\n  }\n\n  function requestAddressVerification(string calldata _githubUserId) payable public {\n    uint256 requestId = signedGithubOracleRequest(\n      this.verifyAddress.selector,\n      'User { gists(last: 1) { nodes { files(limit: 1) { text } } } }',\n      _githubUserId\n    );\n\n    verificationRequests[requestId] = _githubUserId;\n  }\n\n  event VerifyAddressEvent(uint256 requestId, string githubUserId, address account);\n  function verifyAddress(uint256 _requestId, address _value, bytes memory _signature)\n    public\n    signedGithubOracleResponseAddress(_requestId, _value, _signature)\n  {\n    require(_value == githubDataRequests[_requestId].sender, \"Address does not match the requested one.\");\n    githubUserAddresses[verificationRequests[_requestId]] = _value;\n    emit VerifyAddressEvent(_requestId, verificationRequests[_requestId], _value);\n  }\n\n  function get(string calldata _githubUserId) public view returns(address payable) {\n    return payable(githubUserAddresses[_githubUserId]);\n  }\n\n  function getId(address _address) public view returns(string memory) {\n    return githubUserIds[_address];\n  }\n}",
  "sourcePath": "/home/mkt/Projects/cryptoactions/contracts/src/GithubUserAddressBook.sol",
  "compiler": {
    "name": "solc",
    "version": "0.8.7+commit.e28d00a7.Emscripten.clang"
  },
  "schemaVersion": "3.4.3",
  "updatedAt": "2021-09-20T13:15:58.893Z",
  "devdoc": {
    "kind": "dev",
    "methods": {},
    "version": 1
  },
  "userdoc": {
    "kind": "user",
    "methods": {},
    "version": 1
  }
}