{
  "contractName": "GithubAddressBook",
  "abi": [
    {
      "inputs": [
        {
          "internalType": "string",
          "name": "_workflowHash",
          "type": "string"
        }
      ],
      "stateMutability": "nonpayable",
      "type": "constructor"
    },
    {
      "anonymous": false,
      "inputs": [
        {
          "indexed": false,
          "internalType": "uint256",
          "name": "requestId",
          "type": "uint256"
        }
      ],
      "name": "GithubWorkflowRequestEvent",
      "type": "event"
    },
    {
      "anonymous": false,
      "inputs": [
        {
          "indexed": false,
          "internalType": "uint256",
          "name": "requestId",
          "type": "uint256"
        }
      ],
      "name": "VerifyEvent",
      "type": "event"
    },
    {
      "inputs": [
        {
          "internalType": "string",
          "name": "_name",
          "type": "string"
        }
      ],
      "name": "getGithubWorkflowFee",
      "outputs": [
        {
          "internalType": "uint256",
          "name": "",
          "type": "uint256"
        }
      ],
      "stateMutability": "view",
      "type": "function"
    },
    {
      "inputs": [
        {
          "internalType": "uint256",
          "name": "_id",
          "type": "uint256"
        }
      ],
      "name": "getGithubWorkflowRequest",
      "outputs": [
        {
          "internalType": "string",
          "name": "fileHash",
          "type": "string"
        },
        {
          "internalType": "address",
          "name": "account",
          "type": "address"
        },
        {
          "internalType": "uint256",
          "name": "fee",
          "type": "uint256"
        },
        {
          "internalType": "address",
          "name": "sender",
          "type": "address"
        },
        {
          "internalType": "string",
          "name": "name",
          "type": "string"
        },
        {
          "internalType": "string",
          "name": "githubUserId",
          "type": "string"
        },
        {
          "internalType": "bool",
          "name": "fulfilled",
          "type": "bool"
        }
      ],
      "stateMutability": "view",
      "type": "function"
    },
    {
      "inputs": [
        {
          "internalType": "string",
          "name": "_name",
          "type": "string"
        },
        {
          "internalType": "uint256",
          "name": "_amount",
          "type": "uint256"
        }
      ],
      "name": "setGithubWorkflowFee",
      "outputs": [],
      "stateMutability": "nonpayable",
      "type": "function"
    },
    {
      "inputs": [
        {
          "internalType": "string",
          "name": "_name",
          "type": "string"
        },
        {
          "internalType": "string",
          "name": "_hash",
          "type": "string"
        }
      ],
      "name": "setGithubWorkflowHash",
      "outputs": [],
      "stateMutability": "nonpayable",
      "type": "function"
    },
    {
      "inputs": [
        {
          "internalType": "string",
          "name": "_githubUserId",
          "type": "string"
        }
      ],
      "name": "requestVerification",
      "outputs": [],
      "stateMutability": "payable",
      "type": "function"
    },
    {
      "inputs": [
        {
          "internalType": "uint256",
          "name": "_requestId",
          "type": "uint256"
        }
      ],
      "name": "verify",
      "outputs": [],
      "stateMutability": "nonpayable",
      "type": "function"
    }
  ],
  "bytecode": "0x60806040523480156200001157600080fd5b5060405162001168380380620011688339810160408190526200003491620001b5565b6200006d336040518060400160405280600681526020016576657269667960d01b81525083662386f26fc100006200007460201b60201c565b5062000311565b6040518060600160405280838152602001856001600160a01b0316815260200182815250600084604051620000aa91906200026d565b90815260200160405180910390206000820151816000019080519060200190620000d69291906200010f565b5060208201516001820180546001600160a01b0319166001600160a01b0390921691909117905560409091015160029091015550505050565b8280546200011d90620002be565b90600052602060002090601f0160209004810192826200014157600085556200018c565b82601f106200015c57805160ff19168380011785556200018c565b828001600101855582156200018c579182015b828111156200018c5782518255916020019190600101906200016f565b506200019a9291506200019e565b5090565b5b808211156200019a57600081556001016200019f565b600060208284031215620001c857600080fd5b81516001600160401b0380821115620001e057600080fd5b818401915084601f830112620001f557600080fd5b8151818111156200020a576200020a620002fb565b604051601f8201601f19908116603f01168101908382118183101715620002355762000235620002fb565b816040528281528760208487010111156200024f57600080fd5b620002628360208301602088016200028b565b979650505050505050565b60008251620002818184602087016200028b565b9190910192915050565b60005b83811015620002a85781810151838201526020016200028e565b83811115620002b8576000848401525b50505050565b600181811c90821680620002d357607f821691505b60208210811415620002f557634e487b7160e01b600052602260045260246000fd5b50919050565b634e487b7160e01b600052604160045260246000fd5b610e4780620003216000396000f3fe6080604052600436106100555760003560e01c80630f2965e31461005a5780635f27e0d31461007c5780636cbff42a146100af5780638753367f146100c257806391435b12146100e2578063d3b7cd9914610102575b600080fd5b34801561006657600080fd5b5061007a610075366004610b71565b610135565b005b34801561008857600080fd5b5061009c610097366004610ac3565b6101eb565b6040519081526020015b60405180910390f35b61007a6100bd366004610ac3565b610218565b3480156100ce57600080fd5b5061007a6100dd366004610bbd565b61027b565b3480156100ee57600080fd5b5061007a6100fd366004610b05565b61042f565b34801561010e57600080fd5b5061012261011d366004610bbd565b6104e6565b6040516100a69796959493929190610cca565b82828080601f016020809104026020016040519081016040528093929190818152602001838380828437600092018290525060405190935061017a9250849150610c12565b90815260405190819003602001902060010154336001600160a01b03909116146101bf5760405162461bcd60e51b81526004016101b690610d38565b60405180910390fd5b81600085856040516101d2929190610c02565b9081526040519081900360200190206002015550505050565b60008083836040516101fe929190610c02565b908152602001604051809103902060020154905092915050565b6102766040518060400160405280600681526020016576657269667960d01b81525083838080601f01602080910402602001604051908101604052809392919081815260200183838082843760009201919091525061078e92505050565b505050565b6000818152600160208190526040808320905184939261029c920190610c2e565b90815260405190819003602001902060010154336001600160a01b039091161461031a5760405162461bcd60e51b815260206004820152602960248201527f4f6e6c7920776f726b666c6f77206163636f756e7420726573706f6e6420746f604482015268103932b8bab2b9ba1760b91b60648201526084016101b6565b60008181526001602052604090206003015460ff16156103885760405162461bcd60e51b815260206004820152602360248201527f526571756573742068617320616c7265616479206265656e2066756c66696c6c60448201526232b21760e91b60648201526084016101b6565b60008181526001602081905260408083206003908101805460ff191690931790925584835291829020805492516001600160a01b03909316926103ce9160020190610c2e565b9081526040516020918190038201812080546001600160a01b0319166001600160a01b0394909416939093179092558382527ff99412dece3accf895bd4026babcf2a5170d8ce48c688e9ebf8504887071f6bc910160405180910390a15050565b83838080601f01602080910402602001604051908101604052809392919081815260200183838082843760009201829052506040519093506104749250849150610c12565b90815260405190819003602001902060010154336001600160a01b03909116146104b05760405162461bcd60e51b81526004016101b690610d38565b8282600087876040516104c4929190610c02565b9081526040519081900360200190206104de92909161096d565b505050505050565b60606000806000606080600080600160008a81526020019081526020016000206001016040516105169190610c2e565b90815260200160405180910390206000016000600160008b815260200190815260200160002060010160405161054c9190610c2e565b908152604080516020928190038301812060019081015460008e8152948290529284206001600160a01b03909316939261058892910190610c2e565b908152604080516020928190038301902060029081015460008e81526001948590529290922080546003820154875494956001600160a01b039092169491830193929092019160ff169087906105dd90610dad565b80601f016020809104026020016040519081016040528092919081815260200182805461060990610dad565b80156106565780601f1061062b57610100808354040283529160200191610656565b820191906000526020600020905b81548152906001019060200180831161063957829003601f168201915b5050505050965082805461066990610dad565b80601f016020809104026020016040519081016040528092919081815260200182805461069590610dad565b80156106e25780601f106106b7576101008083540402835291602001916106e2565b820191906000526020600020905b8154815290600101906020018083116106c557829003601f168201915b505050505092508180546106f590610dad565b80601f016020809104026020016040519081016040528092919081815260200182805461072190610dad565b801561076e5780601f106107435761010080835404028352916020019161076e565b820191906000526020600020905b81548152906001019060200180831161075157829003601f168201915b505050505091509650965096509650965096509650919395979092949650565b6000808360405161079f9190610c12565b9081526020016040518091039020600201543410156108005760405162461bcd60e51b815260206004820152601c60248201527f496e73756666696369616e74206f7261636c65207061796d656e742e0000000060448201526064016101b6565b6000836040516108109190610c12565b908152604051908190036020018120600101546001600160a01b0316906108fc9060009061083f908790610c12565b90815260405190819003602001812060020154801590920291906000818181858888f19350505050158015610878573d6000803e3d6000fd5b506002805490600061088983610de8565b909155505060408051608081018252338152602080820186815282840186905260006060840181905260025481526001808452949020835181546001600160a01b0319166001600160a01b0390911617815590518051939491936108f5939285019291909101906109f1565b50604082015180516109119160028401916020909101906109f1565b50606091909101516003909101805460ff19169115159190911790556002546040519081527fb085ee00d6acecd7b561fb9098042d2dadf5ddfaca876c3d6591fe7a629e3cf99060200160405180910390a15060025492915050565b82805461097990610dad565b90600052602060002090601f01602090048101928261099b57600085556109e1565b82601f106109b45782800160ff198235161785556109e1565b828001600101855582156109e1579182015b828111156109e15782358255916020019190600101906109c6565b506109ed929150610a65565b5090565b8280546109fd90610dad565b90600052602060002090601f016020900481019282610a1f57600085556109e1565b82601f10610a3857805160ff19168380011785556109e1565b828001600101855582156109e1579182015b828111156109e1578251825591602001919060010190610a4a565b5b808211156109ed5760008155600101610a66565b60008083601f840112610a8c57600080fd5b50813567ffffffffffffffff811115610aa457600080fd5b602083019150836020828501011115610abc57600080fd5b9250929050565b60008060208385031215610ad657600080fd5b823567ffffffffffffffff811115610aed57600080fd5b610af985828601610a7a565b90969095509350505050565b60008060008060408587031215610b1b57600080fd5b843567ffffffffffffffff80821115610b3357600080fd5b610b3f88838901610a7a565b90965094506020870135915080821115610b5857600080fd5b50610b6587828801610a7a565b95989497509550505050565b600080600060408486031215610b8657600080fd5b833567ffffffffffffffff811115610b9d57600080fd5b610ba986828701610a7a565b909790965060209590950135949350505050565b600060208284031215610bcf57600080fd5b5035919050565b60008151808452610bee816020860160208601610d7d565b601f01601f19169290920160200192915050565b8183823760009101908152919050565b60008251610c24818460208701610d7d565b9190910192915050565b600080835481600182811c915080831680610c4a57607f831692505b6020808410821415610c6a57634e487b7160e01b86526022600452602486fd5b818015610c7e5760018114610c8f57610cbc565b60ff19861689528489019650610cbc565b60008a81526020902060005b86811015610cb45781548b820152908501908301610c9b565b505084890196505b509498975050505050505050565b60e081526000610cdd60e083018a610bd6565b6001600160a01b03898116602085015260408401899052871660608401528281036080840152610d0d8187610bd6565b905082810360a0840152610d218186610bd6565b91505082151560c083015298975050505050505050565b60208082526025908201527f4f6e6c7920776f726b666c6f77206163636f756e742063616e206368616e6765604082015264103332b29760d91b606082015260800190565b60005b83811015610d98578181015183820152602001610d80565b83811115610da7576000848401525b50505050565b600181811c90821680610dc157607f821691505b60208210811415610de257634e487b7160e01b600052602260045260246000fd5b50919050565b6000600019821415610e0a57634e487b7160e01b600052601160045260246000fd5b506001019056fea2646970667358221220e84c2cd5ceeb46f78f50606f4a956501874e8f495ce7795700cd64b81b78f2db64736f6c63430008070033",
  "immutableReferences": {},
  "source": "// SPDX-License-Identifier: MIT\npragma solidity 0.8.7;\n\nimport './GithubWorkflowClient.sol';\n\ncontract GithubAddressBook is GithubWorkflowClient {\n  mapping(string => address) githubUserAddresses;\n\n  constructor(string memory _workflowHash) {\n    registerGithubWorkflow(msg.sender, 'verify', _workflowHash, 10000000000000000);\n  }\n\n  function requestVerification(string calldata _githubUserId) payable public {\n    githubWorkflowRequest('verify', _githubUserId);\n  }\n\n  event VerifyEvent(uint256 requestId);\n  function verify(uint256 _requestId) public githubWorkflowResponse(_requestId) {\n    githubUserAddresses[githubWorkflowRequests[_requestId].githubUserId] = githubWorkflowRequests[_requestId].sender;\n\n    emit VerifyEvent(_requestId);\n  }\n}",
  "sourcePath": "/home/mkt/Projects/cryptoactions/contracts/src/GithubUserAddressBook.sol",
  "compiler": {
    "name": "solc",
    "version": "0.8.7+commit.e28d00a7.Emscripten.clang"
  },
  "schemaVersion": "3.4.3",
  "updatedAt": "2021-09-15T18:02:35.063Z",
  "devdoc": {
    "kind": "dev",
    "methods": {},
    "version": 1
  },
  "userdoc": {
    "kind": "user",
    "methods": {},
    "version": 1
  }
}