{
  "contractName": "GithubDataReceiver",
  "abi": [
    {
      "inputs": [],
      "name": "githubOracleFee",
      "outputs": [
        {
          "internalType": "uint256",
          "name": "",
          "type": "uint256"
        }
      ],
      "stateMutability": "view",
      "type": "function"
    },
    {
      "inputs": [],
      "name": "getGithubOracleFee",
      "outputs": [
        {
          "internalType": "uint256",
          "name": "",
          "type": "uint256"
        }
      ],
      "stateMutability": "view",
      "type": "function"
    },
    {
      "inputs": [],
      "name": "getGithubSignerFee",
      "outputs": [
        {
          "internalType": "uint256",
          "name": "",
          "type": "uint256"
        }
      ],
      "stateMutability": "view",
      "type": "function"
    }
  ],
  "bytecode": "0x608060405234801561001057600080fd5b5061014d806100206000396000f3fe608060405234801561001057600080fd5b50600436106100415760003560e01c80633276aa5a146100465780639a7ab40914610060578063ed91c42b14610068575b600080fd5b61004e610071565b60405190815260200160405180910390f35b60025461004e565b61004e60025481565b6000600460009054906101000a90046001600160a01b03166001600160a01b031663ddca3f436040518163ffffffff1660e01b815260040160206040518083038186803b1580156100c157600080fd5b505afa1580156100d5573d6000803e3d6000fd5b505050506040513d601f19601f820116820180604052508101906100f991906100fe565b905090565b60006020828403121561011057600080fd5b505191905056fea2646970667358221220fd039a0ad0f03851670501bed2ee311535d8dcc28150daead874831b1e9d1d6b64736f6c63430008070033",
  "immutableReferences": {},
  "source": "// SPDX-License-Identifier: GPL-3.0\npragma solidity 0.8.7;\n\nimport './GithubSigner.sol';\n\ncontract GithubDataReceiver {\n  struct GithubRequest {\n    bytes4 fulfillSelector;\n    string query;\n    string nodeId;\n    bool fulfilled;\n    uint256 signatureId;\n  }\n  mapping(uint256 => GithubRequest) githubRequests;\n  uint256 lastGithubRequestId;\n\n  uint256 public githubOracleFee;\n  address githubOracle;\n  GithubSigner githubSigner;\n\n  function setGithubOracle(address _oracle) internal {\n    githubOracle = _oracle;\n  }\n\n  function setGithubSigner(address _signer) internal {\n    githubSigner = GithubSigner(_signer);\n  }\n\n  function getGithubOracleFee() public view returns(uint256) {\n    return githubOracleFee;\n  }\n\n  function getGithubSignerFee() public view returns(uint256) {\n    return githubSigner.fee();\n  }\n\n  modifier signedGithubOracleResponse(uint256 _requestId, string memory _value, bytes memory _signature) {\n    require(msg.sender == githubOracle, 'Only Github Oracle.');\n    require(githubRequests[_requestId].fulfilled == false, 'Request has already been fulfilled.');\n    require(githubSigner.verifySignature(githubRequests[_requestId].signatureId, _signature, _value), 'Invalid signature.');\n    githubRequests[_requestId].fulfilled = true;\n    _;\n  }\n\n  modifier githubOracleResponse(uint256 _requestId) {\n    require(msg.sender == githubOracle, 'Only Github Oracle.');\n    require(githubRequests[_requestId].fulfilled == false, 'Request has already been fulfilled.');\n    githubRequests[_requestId].fulfilled = true;\n    _;\n  }\n\n  function githubOracleRequest(bytes4 _fulfillSelector, string calldata _query, string calldata _nodeId) internal returns(uint256) {\n    require(msg.value >= githubOracleFee, \"Insufficiant oracle payment.\");\n\n    payable(githubOracle).transfer(githubOracleFee);\n\n    lastGithubRequestId++;\n    githubRequests[lastGithubRequestId] = GithubRequest(\n      _fulfillSelector,\n      _query,\n      _nodeId,\n      false,\n      0\n    );\n    \n    return lastGithubRequestId;\n  }\n\n  function signedGithubOracleRequest(bytes4 _fulfillSelector, string calldata _query, string calldata _nodeId) internal returns(uint256) {\n    require(msg.value >= githubSigner.fee() + githubOracleFee, \"Insufficiant oracle and signer payment.\");\n    \n    payable(githubOracle).transfer(githubOracleFee);\n\n    uint256 signatureId = githubSigner.requestSignature{ value: githubSigner.fee()}(_query, _nodeId);\n\n    lastGithubRequestId++;\n    githubRequests[lastGithubRequestId] = GithubRequest(\n      _fulfillSelector,\n      _query,\n      _nodeId,\n      false,\n      signatureId\n    );\n    \n    return lastGithubRequestId;\n  }\n}",
  "sourcePath": "/home/mkt/Projects/cryptoactions/contracts/src/GithubDataReceiver.sol",
  "compiler": {
    "name": "solc",
    "version": "0.8.7+commit.e28d00a7.Emscripten.clang"
  },
  "schemaVersion": "3.4.3",
  "updatedAt": "2021-09-03T18:44:27.832Z",
  "devdoc": {
    "kind": "dev",
    "methods": {},
    "version": 1
  },
  "userdoc": {
    "kind": "user",
    "methods": {},
    "version": 1
  }
}