{
  "contractName": "GithubWorkflowClient",
  "abi": [
    {
      "anonymous": false,
      "inputs": [
        {
          "indexed": false,
          "internalType": "uint256",
          "name": "requestId",
          "type": "uint256"
        }
      ],
      "name": "GithubWorkflowRequestEvent",
      "type": "event"
    },
    {
      "inputs": [
        {
          "internalType": "uint256",
          "name": "_id",
          "type": "uint256"
        }
      ],
      "name": "getGithubWorkflowRequest",
      "outputs": [
        {
          "internalType": "string",
          "name": "fileHash",
          "type": "string"
        },
        {
          "internalType": "address",
          "name": "account",
          "type": "address"
        },
        {
          "internalType": "uint256",
          "name": "fee",
          "type": "uint256"
        },
        {
          "internalType": "address",
          "name": "sender",
          "type": "address"
        },
        {
          "internalType": "string",
          "name": "name",
          "type": "string"
        },
        {
          "internalType": "string",
          "name": "githubUserId",
          "type": "string"
        },
        {
          "internalType": "bool",
          "name": "fulfilled",
          "type": "bool"
        }
      ],
      "stateMutability": "view",
      "type": "function"
    },
    {
      "inputs": [
        {
          "internalType": "string",
          "name": "_name",
          "type": "string"
        }
      ],
      "name": "getGithubWorkflowFee",
      "outputs": [
        {
          "internalType": "uint256",
          "name": "",
          "type": "uint256"
        }
      ],
      "stateMutability": "view",
      "type": "function"
    },
    {
      "inputs": [
        {
          "internalType": "string",
          "name": "_name",
          "type": "string"
        },
        {
          "internalType": "uint256",
          "name": "_amount",
          "type": "uint256"
        }
      ],
      "name": "setGithubWorkflowFee",
      "outputs": [],
      "stateMutability": "nonpayable",
      "type": "function"
    },
    {
      "inputs": [
        {
          "internalType": "string",
          "name": "_name",
          "type": "string"
        },
        {
          "internalType": "string",
          "name": "_hash",
          "type": "string"
        }
      ],
      "name": "setGithubWorkflowHash",
      "outputs": [],
      "stateMutability": "nonpayable",
      "type": "function"
    }
  ],
  "bytecode": "0x608060405234801561001057600080fd5b50610944806100206000396000f3fe608060405234801561001057600080fd5b506004361061004c5760003560e01c80630f2965e3146100515780635f27e0d31461006657806391435b121461008c578063d3b7cd991461009f575b600080fd5b61006461005f366004610697565b6100c5565b005b6100796100743660046105e9565b61017b565b6040519081526020015b60405180910390f35b61006461009a36600461062b565b6101a8565b6100b26100ad3660046106e3565b61025f565b60405161008397969594939291906107f0565b82828080601f016020809104026020016040519081016040528093929190818152602001838380828437600092018290525060405190935061010a9250849150610738565b90815260405190819003602001902060010154336001600160a01b039091161461014f5760405162461bcd60e51b81526004016101469061085e565b60405180910390fd5b8160008585604051610162929190610728565b9081526040519081900360200190206002015550505050565b600080838360405161018e929190610728565b908152602001604051809103902060020154905092915050565b83838080601f01602080910402602001604051908101604052809392919081815260200183838082843760009201829052506040519093506101ed9250849150610738565b90815260405190819003602001902060010154336001600160a01b03909116146102295760405162461bcd60e51b81526004016101469061085e565b82826000878760405161023d929190610728565b908152604051908190036020019020610257929091610507565b505050505050565b60606000806000606080600080600160008a815260200190815260200160002060010160405161028f9190610754565b90815260200160405180910390206000016000600160008b81526020019081526020016000206001016040516102c59190610754565b908152604080516020928190038301812060019081015460008e8152948290529284206001600160a01b03909316939261030192910190610754565b908152604080516020928190038301902060029081015460008e81526001948590529290922080546003820154875494956001600160a01b039092169491830193929092019160ff16908790610356906108d3565b80601f0160208091040260200160405190810160405280929190818152602001828054610382906108d3565b80156103cf5780601f106103a4576101008083540402835291602001916103cf565b820191906000526020600020905b8154815290600101906020018083116103b257829003601f168201915b505050505096508280546103e2906108d3565b80601f016020809104026020016040519081016040528092919081815260200182805461040e906108d3565b801561045b5780601f106104305761010080835404028352916020019161045b565b820191906000526020600020905b81548152906001019060200180831161043e57829003601f168201915b5050505050925081805461046e906108d3565b80601f016020809104026020016040519081016040528092919081815260200182805461049a906108d3565b80156104e75780601f106104bc576101008083540402835291602001916104e7565b820191906000526020600020905b8154815290600101906020018083116104ca57829003601f168201915b505050505091509650965096509650965096509650919395979092949650565b828054610513906108d3565b90600052602060002090601f016020900481019282610535576000855561057b565b82601f1061054e5782800160ff1982351617855561057b565b8280016001018555821561057b579182015b8281111561057b578235825591602001919060010190610560565b5061058792915061058b565b5090565b5b80821115610587576000815560010161058c565b60008083601f8401126105b257600080fd5b50813567ffffffffffffffff8111156105ca57600080fd5b6020830191508360208285010111156105e257600080fd5b9250929050565b600080602083850312156105fc57600080fd5b823567ffffffffffffffff81111561061357600080fd5b61061f858286016105a0565b90969095509350505050565b6000806000806040858703121561064157600080fd5b843567ffffffffffffffff8082111561065957600080fd5b610665888389016105a0565b9096509450602087013591508082111561067e57600080fd5b5061068b878288016105a0565b95989497509550505050565b6000806000604084860312156106ac57600080fd5b833567ffffffffffffffff8111156106c357600080fd5b6106cf868287016105a0565b909790965060209590950135949350505050565b6000602082840312156106f557600080fd5b5035919050565b600081518084526107148160208601602086016108a3565b601f01601f19169290920160200192915050565b8183823760009101908152919050565b6000825161074a8184602087016108a3565b9190910192915050565b600080835481600182811c91508083168061077057607f831692505b602080841082141561079057634e487b7160e01b86526022600452602486fd5b8180156107a457600181146107b5576107e2565b60ff198616895284890196506107e2565b60008a81526020902060005b868110156107da5781548b8201529085019083016107c1565b505084890196505b509498975050505050505050565b60e08152600061080360e083018a6106fc565b6001600160a01b0389811660208501526040840189905287166060840152828103608084015261083381876106fc565b905082810360a084015261084781866106fc565b91505082151560c083015298975050505050505050565b60208082526025908201527f4f6e6c7920776f726b666c6f77206163636f756e742063616e206368616e6765604082015264103332b29760d91b606082015260800190565b60005b838110156108be5781810151838201526020016108a6565b838111156108cd576000848401525b50505050565b600181811c908216806108e757607f821691505b6020821081141561090857634e487b7160e01b600052602260045260246000fd5b5091905056fea26469706673582212209938a545832142aac21ee49ad4f7e95cffe725f13a7fa3fccf0b2caa1357ae1764736f6c63430008070033",
  "immutableReferences": {},
  "source": "// SPDX-License-Identifier: GPL-3.0\npragma solidity 0.8.7;\n\ncontract GithubWorkflowClient {\n  struct GithubWorkflow {\n    string fileHash;\n    address account;\n    uint256 fee;\n  }\n  mapping(string => GithubWorkflow) githubWorkflows;\n\n  struct GithubWorkflowRequest {\n    address sender;\n    string name;\n    string githubUserId;\n    bool fulfilled;\n  }\n  mapping(uint256 => GithubWorkflowRequest) githubWorkflowRequests;\n  uint256 lastGithubWorkflowRequestId;\n\n  event GithubWorkflowRequestEvent(uint256 requestId);\n\n  modifier onlyWorkflow(string memory _name) {\n    require(msg.sender == githubWorkflows[_name].account, \"Only workflow account can change fee.\");\n    _;\n  }\n\n  modifier githubWorkflowResponse(uint256 _requestId) {\n    require(msg.sender == githubWorkflows[githubWorkflowRequests[_requestId].name].account, \"Only workflow account respond to request.\");\n    require(githubWorkflowRequests[_requestId].fulfilled == false, 'Request has already been fulfilled.');\n    githubWorkflowRequests[_requestId].fulfilled = true;\n    _;\n  }\n\n  function getGithubWorkflowRequest(uint256 _id) public view returns(\n    string memory fileHash,\n    address account,\n    uint256 fee,\n    address sender,\n    string memory name,\n    string memory githubUserId,\n    bool fulfilled\n  ) {\n    return (\n      githubWorkflows[githubWorkflowRequests[_id].name].fileHash,\n      githubWorkflows[githubWorkflowRequests[_id].name].account,\n      githubWorkflows[githubWorkflowRequests[_id].name].fee,\n      githubWorkflowRequests[_id].sender,\n      githubWorkflowRequests[_id].name,\n      githubWorkflowRequests[_id].githubUserId,\n      githubWorkflowRequests[_id].fulfilled\n    );\n  }\n\n  function registerGithubWorkflow(address _account, string memory _name, string memory _hash,  uint256 _fee) internal {\n    githubWorkflows[_name] = GithubWorkflow(_hash, _account, _fee);\n  }\n\n  function getGithubWorkflowFee(string calldata _name) public view returns(uint256) {\n    return githubWorkflows[_name].fee;\n  }\n\n  function setGithubWorkflowFee(string calldata _name, uint256 _amount) onlyWorkflow(_name) public {\n    githubWorkflows[_name].fee = _amount;\n  }\n\n  function setGithubWorkflowHash(string calldata _name, string calldata _hash) onlyWorkflow(_name) public {\n    githubWorkflows[_name].fileHash = _hash;\n  }\n\n  function githubWorkflowRequest(string memory _name, string memory _githubUserId) internal returns(uint256) {\n    require(msg.value >= githubWorkflows[_name].fee, \"Insufficiant oracle payment.\");\n\n    payable(githubWorkflows[_name].account).transfer(githubWorkflows[_name].fee);\n\n    lastGithubWorkflowRequestId++;\n    githubWorkflowRequests[lastGithubWorkflowRequestId] = GithubWorkflowRequest(\n      msg.sender,\n      _name,\n      _githubUserId,\n      false\n    );\n\n    emit GithubWorkflowRequestEvent(lastGithubWorkflowRequestId);\n    \n    return lastGithubWorkflowRequestId;\n  }\n}",
  "sourcePath": "/home/mkt/Projects/cryptoactions/contracts/src/GithubWorkflowClient.sol",
  "compiler": {
    "name": "solc",
    "version": "0.8.7+commit.e28d00a7.Emscripten.clang"
  },
  "schemaVersion": "3.4.3",
  "updatedAt": "2021-09-13T20:30:38.766Z",
  "devdoc": {
    "kind": "dev",
    "methods": {},
    "version": 1
  },
  "userdoc": {
    "kind": "user",
    "methods": {},
    "version": 1
  }
}