{
  "contractName": "Web3ActionsToken",
  "abi": [
    {
      "inputs": [],
      "stateMutability": "nonpayable",
      "type": "constructor"
    },
    {
      "anonymous": false,
      "inputs": [
        {
          "indexed": true,
          "internalType": "address",
          "name": "owner",
          "type": "address"
        },
        {
          "indexed": true,
          "internalType": "address",
          "name": "spender",
          "type": "address"
        },
        {
          "indexed": false,
          "internalType": "uint256",
          "name": "value",
          "type": "uint256"
        }
      ],
      "name": "Approval",
      "type": "event"
    },
    {
      "anonymous": false,
      "inputs": [
        {
          "indexed": true,
          "internalType": "address",
          "name": "delegator",
          "type": "address"
        },
        {
          "indexed": true,
          "internalType": "address",
          "name": "fromDelegate",
          "type": "address"
        },
        {
          "indexed": true,
          "internalType": "address",
          "name": "toDelegate",
          "type": "address"
        }
      ],
      "name": "DelegateChanged",
      "type": "event"
    },
    {
      "anonymous": false,
      "inputs": [
        {
          "indexed": true,
          "internalType": "address",
          "name": "delegate",
          "type": "address"
        },
        {
          "indexed": false,
          "internalType": "uint256",
          "name": "previousBalance",
          "type": "uint256"
        },
        {
          "indexed": false,
          "internalType": "uint256",
          "name": "newBalance",
          "type": "uint256"
        }
      ],
      "name": "DelegateVotesChanged",
      "type": "event"
    },
    {
      "anonymous": false,
      "inputs": [
        {
          "indexed": false,
          "internalType": "address",
          "name": "account",
          "type": "address"
        }
      ],
      "name": "Paused",
      "type": "event"
    },
    {
      "anonymous": false,
      "inputs": [
        {
          "indexed": true,
          "internalType": "bytes32",
          "name": "role",
          "type": "bytes32"
        },
        {
          "indexed": true,
          "internalType": "bytes32",
          "name": "previousAdminRole",
          "type": "bytes32"
        },
        {
          "indexed": true,
          "internalType": "bytes32",
          "name": "newAdminRole",
          "type": "bytes32"
        }
      ],
      "name": "RoleAdminChanged",
      "type": "event"
    },
    {
      "anonymous": false,
      "inputs": [
        {
          "indexed": true,
          "internalType": "bytes32",
          "name": "role",
          "type": "bytes32"
        },
        {
          "indexed": true,
          "internalType": "address",
          "name": "account",
          "type": "address"
        },
        {
          "indexed": true,
          "internalType": "address",
          "name": "sender",
          "type": "address"
        }
      ],
      "name": "RoleGranted",
      "type": "event"
    },
    {
      "anonymous": false,
      "inputs": [
        {
          "indexed": true,
          "internalType": "bytes32",
          "name": "role",
          "type": "bytes32"
        },
        {
          "indexed": true,
          "internalType": "address",
          "name": "account",
          "type": "address"
        },
        {
          "indexed": true,
          "internalType": "address",
          "name": "sender",
          "type": "address"
        }
      ],
      "name": "RoleRevoked",
      "type": "event"
    },
    {
      "anonymous": false,
      "inputs": [
        {
          "indexed": true,
          "internalType": "address",
          "name": "from",
          "type": "address"
        },
        {
          "indexed": true,
          "internalType": "address",
          "name": "to",
          "type": "address"
        },
        {
          "indexed": false,
          "internalType": "uint256",
          "name": "value",
          "type": "uint256"
        },
        {
          "indexed": false,
          "internalType": "bytes",
          "name": "data",
          "type": "bytes"
        }
      ],
      "name": "Transfer",
      "type": "event"
    },
    {
      "anonymous": false,
      "inputs": [
        {
          "indexed": true,
          "internalType": "address",
          "name": "from",
          "type": "address"
        },
        {
          "indexed": true,
          "internalType": "address",
          "name": "to",
          "type": "address"
        },
        {
          "indexed": false,
          "internalType": "uint256",
          "name": "value",
          "type": "uint256"
        }
      ],
      "name": "Transfer",
      "type": "event"
    },
    {
      "anonymous": false,
      "inputs": [
        {
          "indexed": false,
          "internalType": "address",
          "name": "account",
          "type": "address"
        }
      ],
      "name": "Unpaused",
      "type": "event"
    },
    {
      "inputs": [],
      "name": "DEFAULT_ADMIN_ROLE",
      "outputs": [
        {
          "internalType": "bytes32",
          "name": "",
          "type": "bytes32"
        }
      ],
      "stateMutability": "view",
      "type": "function",
      "constant": true
    },
    {
      "inputs": [],
      "name": "DOMAIN_SEPARATOR",
      "outputs": [
        {
          "internalType": "bytes32",
          "name": "",
          "type": "bytes32"
        }
      ],
      "stateMutability": "view",
      "type": "function",
      "constant": true
    },
    {
      "inputs": [],
      "name": "MINTER_ROLE",
      "outputs": [
        {
          "internalType": "bytes32",
          "name": "",
          "type": "bytes32"
        }
      ],
      "stateMutability": "view",
      "type": "function",
      "constant": true
    },
    {
      "inputs": [],
      "name": "PAUSER_ROLE",
      "outputs": [
        {
          "internalType": "bytes32",
          "name": "",
          "type": "bytes32"
        }
      ],
      "stateMutability": "view",
      "type": "function",
      "constant": true
    },
    {
      "inputs": [
        {
          "internalType": "address",
          "name": "owner",
          "type": "address"
        },
        {
          "internalType": "address",
          "name": "spender",
          "type": "address"
        }
      ],
      "name": "allowance",
      "outputs": [
        {
          "internalType": "uint256",
          "name": "",
          "type": "uint256"
        }
      ],
      "stateMutability": "view",
      "type": "function",
      "constant": true
    },
    {
      "inputs": [
        {
          "internalType": "address",
          "name": "spender",
          "type": "address"
        },
        {
          "internalType": "uint256",
          "name": "amount",
          "type": "uint256"
        }
      ],
      "name": "approve",
      "outputs": [
        {
          "internalType": "bool",
          "name": "",
          "type": "bool"
        }
      ],
      "stateMutability": "nonpayable",
      "type": "function"
    },
    {
      "inputs": [
        {
          "internalType": "address",
          "name": "account",
          "type": "address"
        }
      ],
      "name": "balanceOf",
      "outputs": [
        {
          "internalType": "uint256",
          "name": "",
          "type": "uint256"
        }
      ],
      "stateMutability": "view",
      "type": "function",
      "constant": true
    },
    {
      "inputs": [
        {
          "internalType": "uint256",
          "name": "amount",
          "type": "uint256"
        }
      ],
      "name": "burn",
      "outputs": [],
      "stateMutability": "nonpayable",
      "type": "function"
    },
    {
      "inputs": [
        {
          "internalType": "address",
          "name": "account",
          "type": "address"
        },
        {
          "internalType": "uint256",
          "name": "amount",
          "type": "uint256"
        }
      ],
      "name": "burnFrom",
      "outputs": [],
      "stateMutability": "nonpayable",
      "type": "function"
    },
    {
      "inputs": [],
      "name": "cap",
      "outputs": [
        {
          "internalType": "uint256",
          "name": "",
          "type": "uint256"
        }
      ],
      "stateMutability": "view",
      "type": "function",
      "constant": true
    },
    {
      "inputs": [
        {
          "internalType": "address",
          "name": "account",
          "type": "address"
        },
        {
          "internalType": "uint32",
          "name": "pos",
          "type": "uint32"
        }
      ],
      "name": "checkpoints",
      "outputs": [
        {
          "components": [
            {
              "internalType": "uint32",
              "name": "fromBlock",
              "type": "uint32"
            },
            {
              "internalType": "uint224",
              "name": "votes",
              "type": "uint224"
            }
          ],
          "internalType": "struct ERC20Votes.Checkpoint",
          "name": "",
          "type": "tuple"
        }
      ],
      "stateMutability": "view",
      "type": "function",
      "constant": true
    },
    {
      "inputs": [],
      "name": "decimals",
      "outputs": [
        {
          "internalType": "uint8",
          "name": "",
          "type": "uint8"
        }
      ],
      "stateMutability": "view",
      "type": "function",
      "constant": true
    },
    {
      "inputs": [
        {
          "internalType": "address",
          "name": "spender",
          "type": "address"
        },
        {
          "internalType": "uint256",
          "name": "subtractedValue",
          "type": "uint256"
        }
      ],
      "name": "decreaseAllowance",
      "outputs": [
        {
          "internalType": "bool",
          "name": "",
          "type": "bool"
        }
      ],
      "stateMutability": "nonpayable",
      "type": "function"
    },
    {
      "inputs": [
        {
          "internalType": "address",
          "name": "delegatee",
          "type": "address"
        }
      ],
      "name": "delegate",
      "outputs": [],
      "stateMutability": "nonpayable",
      "type": "function"
    },
    {
      "inputs": [
        {
          "internalType": "address",
          "name": "delegatee",
          "type": "address"
        },
        {
          "internalType": "uint256",
          "name": "nonce",
          "type": "uint256"
        },
        {
          "internalType": "uint256",
          "name": "expiry",
          "type": "uint256"
        },
        {
          "internalType": "uint8",
          "name": "v",
          "type": "uint8"
        },
        {
          "internalType": "bytes32",
          "name": "r",
          "type": "bytes32"
        },
        {
          "internalType": "bytes32",
          "name": "s",
          "type": "bytes32"
        }
      ],
      "name": "delegateBySig",
      "outputs": [],
      "stateMutability": "nonpayable",
      "type": "function"
    },
    {
      "inputs": [
        {
          "internalType": "address",
          "name": "account",
          "type": "address"
        }
      ],
      "name": "delegates",
      "outputs": [
        {
          "internalType": "address",
          "name": "",
          "type": "address"
        }
      ],
      "stateMutability": "view",
      "type": "function",
      "constant": true
    },
    {
      "inputs": [
        {
          "internalType": "uint256",
          "name": "blockNumber",
          "type": "uint256"
        }
      ],
      "name": "getPastTotalSupply",
      "outputs": [
        {
          "internalType": "uint256",
          "name": "",
          "type": "uint256"
        }
      ],
      "stateMutability": "view",
      "type": "function",
      "constant": true
    },
    {
      "inputs": [
        {
          "internalType": "address",
          "name": "account",
          "type": "address"
        },
        {
          "internalType": "uint256",
          "name": "blockNumber",
          "type": "uint256"
        }
      ],
      "name": "getPastVotes",
      "outputs": [
        {
          "internalType": "uint256",
          "name": "",
          "type": "uint256"
        }
      ],
      "stateMutability": "view",
      "type": "function",
      "constant": true
    },
    {
      "inputs": [
        {
          "internalType": "bytes32",
          "name": "role",
          "type": "bytes32"
        }
      ],
      "name": "getRoleAdmin",
      "outputs": [
        {
          "internalType": "bytes32",
          "name": "",
          "type": "bytes32"
        }
      ],
      "stateMutability": "view",
      "type": "function",
      "constant": true
    },
    {
      "inputs": [
        {
          "internalType": "address",
          "name": "account",
          "type": "address"
        }
      ],
      "name": "getVotes",
      "outputs": [
        {
          "internalType": "uint256",
          "name": "",
          "type": "uint256"
        }
      ],
      "stateMutability": "view",
      "type": "function",
      "constant": true
    },
    {
      "inputs": [
        {
          "internalType": "bytes32",
          "name": "role",
          "type": "bytes32"
        },
        {
          "internalType": "address",
          "name": "account",
          "type": "address"
        }
      ],
      "name": "grantRole",
      "outputs": [],
      "stateMutability": "nonpayable",
      "type": "function"
    },
    {
      "inputs": [
        {
          "internalType": "bytes32",
          "name": "role",
          "type": "bytes32"
        },
        {
          "internalType": "address",
          "name": "account",
          "type": "address"
        }
      ],
      "name": "hasRole",
      "outputs": [
        {
          "internalType": "bool",
          "name": "",
          "type": "bool"
        }
      ],
      "stateMutability": "view",
      "type": "function",
      "constant": true
    },
    {
      "inputs": [
        {
          "internalType": "address",
          "name": "spender",
          "type": "address"
        },
        {
          "internalType": "uint256",
          "name": "addedValue",
          "type": "uint256"
        }
      ],
      "name": "increaseAllowance",
      "outputs": [
        {
          "internalType": "bool",
          "name": "",
          "type": "bool"
        }
      ],
      "stateMutability": "nonpayable",
      "type": "function"
    },
    {
      "inputs": [],
      "name": "name",
      "outputs": [
        {
          "internalType": "string",
          "name": "",
          "type": "string"
        }
      ],
      "stateMutability": "view",
      "type": "function",
      "constant": true
    },
    {
      "inputs": [
        {
          "internalType": "address",
          "name": "owner",
          "type": "address"
        }
      ],
      "name": "nonces",
      "outputs": [
        {
          "internalType": "uint256",
          "name": "",
          "type": "uint256"
        }
      ],
      "stateMutability": "view",
      "type": "function",
      "constant": true
    },
    {
      "inputs": [
        {
          "internalType": "address",
          "name": "account",
          "type": "address"
        }
      ],
      "name": "numCheckpoints",
      "outputs": [
        {
          "internalType": "uint32",
          "name": "",
          "type": "uint32"
        }
      ],
      "stateMutability": "view",
      "type": "function",
      "constant": true
    },
    {
      "inputs": [],
      "name": "paused",
      "outputs": [
        {
          "internalType": "bool",
          "name": "",
          "type": "bool"
        }
      ],
      "stateMutability": "view",
      "type": "function",
      "constant": true
    },
    {
      "inputs": [
        {
          "internalType": "address",
          "name": "owner",
          "type": "address"
        },
        {
          "internalType": "address",
          "name": "spender",
          "type": "address"
        },
        {
          "internalType": "uint256",
          "name": "value",
          "type": "uint256"
        },
        {
          "internalType": "uint256",
          "name": "deadline",
          "type": "uint256"
        },
        {
          "internalType": "uint8",
          "name": "v",
          "type": "uint8"
        },
        {
          "internalType": "bytes32",
          "name": "r",
          "type": "bytes32"
        },
        {
          "internalType": "bytes32",
          "name": "s",
          "type": "bytes32"
        }
      ],
      "name": "permit",
      "outputs": [],
      "stateMutability": "nonpayable",
      "type": "function"
    },
    {
      "inputs": [
        {
          "internalType": "bytes32",
          "name": "role",
          "type": "bytes32"
        },
        {
          "internalType": "address",
          "name": "account",
          "type": "address"
        }
      ],
      "name": "renounceRole",
      "outputs": [],
      "stateMutability": "nonpayable",
      "type": "function"
    },
    {
      "inputs": [
        {
          "internalType": "bytes32",
          "name": "role",
          "type": "bytes32"
        },
        {
          "internalType": "address",
          "name": "account",
          "type": "address"
        }
      ],
      "name": "revokeRole",
      "outputs": [],
      "stateMutability": "nonpayable",
      "type": "function"
    },
    {
      "inputs": [
        {
          "internalType": "bytes4",
          "name": "interfaceId",
          "type": "bytes4"
        }
      ],
      "name": "supportsInterface",
      "outputs": [
        {
          "internalType": "bool",
          "name": "",
          "type": "bool"
        }
      ],
      "stateMutability": "view",
      "type": "function",
      "constant": true
    },
    {
      "inputs": [],
      "name": "symbol",
      "outputs": [
        {
          "internalType": "string",
          "name": "",
          "type": "string"
        }
      ],
      "stateMutability": "view",
      "type": "function",
      "constant": true
    },
    {
      "inputs": [],
      "name": "totalSupply",
      "outputs": [
        {
          "internalType": "uint256",
          "name": "",
          "type": "uint256"
        }
      ],
      "stateMutability": "view",
      "type": "function",
      "constant": true
    },
    {
      "inputs": [
        {
          "internalType": "address",
          "name": "recipient",
          "type": "address"
        },
        {
          "internalType": "uint256",
          "name": "amount",
          "type": "uint256"
        }
      ],
      "name": "transfer",
      "outputs": [
        {
          "internalType": "bool",
          "name": "",
          "type": "bool"
        }
      ],
      "stateMutability": "nonpayable",
      "type": "function"
    },
    {
      "inputs": [
        {
          "internalType": "address",
          "name": "sender",
          "type": "address"
        },
        {
          "internalType": "address",
          "name": "recipient",
          "type": "address"
        },
        {
          "internalType": "uint256",
          "name": "amount",
          "type": "uint256"
        }
      ],
      "name": "transferFrom",
      "outputs": [
        {
          "internalType": "bool",
          "name": "",
          "type": "bool"
        }
      ],
      "stateMutability": "nonpayable",
      "type": "function"
    },
    {
      "inputs": [],
      "name": "pause",
      "outputs": [],
      "stateMutability": "nonpayable",
      "type": "function"
    },
    {
      "inputs": [],
      "name": "unpause",
      "outputs": [],
      "stateMutability": "nonpayable",
      "type": "function"
    },
    {
      "inputs": [
        {
          "internalType": "address",
          "name": "to",
          "type": "address"
        },
        {
          "internalType": "uint256",
          "name": "amount",
          "type": "uint256"
        }
      ],
      "name": "mint",
      "outputs": [],
      "stateMutability": "nonpayable",
      "type": "function"
    },
    {
      "inputs": [
        {
          "internalType": "address",
          "name": "_to",
          "type": "address"
        },
        {
          "internalType": "uint256",
          "name": "_value",
          "type": "uint256"
        },
        {
          "internalType": "bytes",
          "name": "_data",
          "type": "bytes"
        }
      ],
      "name": "transferAndCall",
      "outputs": [
        {
          "internalType": "bool",
          "name": "success",
          "type": "bool"
        }
      ],
      "stateMutability": "payable",
      "type": "function",
      "payable": true
    }
  ],
  "bytecode": "0x6101606040527f6e71edae12b1b97f4d1f60370fef10105fa2faae0126114a169c64845d6126c9610140523480156200003757600080fd5b50604051806040016040528060128152602001712bb2b1199020b1ba34b7b739902a37b5b2b760711b81525080604051806040016040528060018152602001603160f81b81525069d3c21bcecceda1000000604051806040016040528060128152602001712bb2b1199020b1ba34b7b739902a37b5b2b760711b8152506040518060400160405280600681526020016520a1aa24a7a760d11b8152508160039080519060200190620000eb92919062000328565b5080516200010190600490602084019062000328565b50505060008111620001595760405162461bcd60e51b815260206004820152601560248201527f45524332304361707065643a2063617020697320300000000000000000000000604482015260640160405180910390fd5b6080526005805460ff19169055815160208084019190912082519183019190912060e08290526101008190524660c0527f8b73c3c69bb8fe3d512ecc4cf759cc79239f7b179b0ffacaa9a75d522b39400f620001fa8184846040805160208101859052908101839052606081018290524660808201523060a082015260009060c0016040516020818303038152906040528051906020012090509392505050565b60a0526101205250620002169350600092503391505062000274565b620002427f65d7a28e3265b37a6474929f336521b332c1681b933f6cb9f3376673440d862a3362000274565b6200026e7f9f2df0fed2c77648de5860a4cc508cd0818c85b8b8a1ab4ceeef8d981c8956a63362000274565b6200040b565b62000280828262000284565b5050565b60008281526006602090815260408083206001600160a01b038516845290915290205460ff16620002805760008281526006602090815260408083206001600160a01b03851684529091529020805460ff19166001179055620002e43390565b6001600160a01b0316816001600160a01b0316837f2f8788117e7eff1d82e926ec794901d17c78024a50270940304540a733656f0d60405160405180910390a45050565b8280546200033690620003ce565b90600052602060002090601f0160209004810192826200035a5760008555620003a5565b82601f106200037557805160ff1916838001178555620003a5565b82800160010185558215620003a5579182015b82811115620003a557825182559160200191906001019062000388565b50620003b3929150620003b7565b5090565b5b80821115620003b35760008155600101620003b8565b600181811c90821680620003e357607f821691505b602082108114156200040557634e487b7160e01b600052602260045260246000fd5b50919050565b60805160a05160c05160e051610100516101205161014051612cec620004746000396000611035015260006116380152600061168701526000611662015260006115e60152600061160f0152600081816103680152818161196801526122b70152612cec6000f3fe6080604052600436106102305760003560e01c80635c975abb1161012e578063a217fddf116100ab578063d53913931161006f578063d5391393146106bc578063d547741f146106f0578063dd62ed3e14610710578063e63ab1e914610756578063f1127ed81461078a57600080fd5b8063a217fddf14610627578063a457c2d71461063c578063a9059cbb1461065c578063c3cda5201461067c578063d505accf1461069c57600080fd5b80638456cb59116100f25780638456cb591461059d5780638e539e8c146105b257806391d14854146105d257806395d89b41146105f25780639ab24eb01461060757600080fd5b80635c975abb146104da5780636fcfff45146104f257806370a082311461052757806379cc67901461055d5780637ecebe001461057d57600080fd5b80633644e515116101bc5780634000aea0116101805780634000aea01461041657806340c10f191461042957806342966c6814610449578063587cde1e146104695780635c19a95c146104ba57600080fd5b80633644e5151461038c57806336568abe146103a157806339509351146103c15780633a46b1a8146103e15780633f4ba83a1461040157600080fd5b806323b872dd1161020357806323b872dd146102cb578063248a9ca3146102eb5780632f2ff15d1461031b578063313ce5671461033d578063355274ea1461035957600080fd5b806301ffc9a71461023557806306fdde031461026a578063095ea7b31461028c57806318160ddd146102ac575b600080fd5b34801561024157600080fd5b50610255610250366004612a32565b6107d4565b60405190151581526020015b60405180910390f35b34801561027657600080fd5b5061027f61080b565b6040516102619190612b2d565b34801561029857600080fd5b506102556102a73660046128ad565b61089d565b3480156102b857600080fd5b506002545b604051908152602001610261565b3480156102d757600080fd5b506102556102e6366004612807565b6108b3565b3480156102f757600080fd5b506102bd6103063660046129f6565b60009081526006602052604090206001015490565b34801561032757600080fd5b5061033b610336366004612a0f565b610962565b005b34801561034957600080fd5b5060405160128152602001610261565b34801561036557600080fd5b507f00000000000000000000000000000000000000000000000000000000000000006102bd565b34801561039857600080fd5b506102bd61098d565b3480156103ad57600080fd5b5061033b6103bc366004612a0f565b61099c565b3480156103cd57600080fd5b506102556103dc3660046128ad565b610a1a565b3480156103ed57600080fd5b506102bd6103fc3660046128ad565b610a56565b34801561040d57600080fd5b5061033b610ad0565b6102556104243660046128d7565b610b06565b34801561043557600080fd5b5061033b6104443660046128ad565b610bab565b34801561045557600080fd5b5061033b6104643660046129f6565b610be0565b34801561047557600080fd5b506104a26104843660046127b9565b6001600160a01b039081166000908152600860205260409020541690565b6040516001600160a01b039091168152602001610261565b3480156104c657600080fd5b5061033b6104d53660046127b9565b610bea565b3480156104e657600080fd5b5060055460ff16610255565b3480156104fe57600080fd5b5061051261050d3660046127b9565b610bf4565b60405163ffffffff9091168152602001610261565b34801561053357600080fd5b506102bd6105423660046127b9565b6001600160a01b031660009081526020819052604090205490565b34801561056957600080fd5b5061033b6105783660046128ad565b610c16565b34801561058957600080fd5b506102bd6105983660046127b9565b610c97565b3480156105a957600080fd5b5061033b610cb5565b3480156105be57600080fd5b506102bd6105cd3660046129f6565b610ce8565b3480156105de57600080fd5b506102556105ed366004612a0f565b610d44565b3480156105fe57600080fd5b5061027f610d6f565b34801561061357600080fd5b506102bd6106223660046127b9565b610d7e565b34801561063357600080fd5b506102bd600081565b34801561064857600080fd5b506102556106573660046128ad565b610e05565b34801561066857600080fd5b506102556106773660046128ad565b610e9e565b34801561068857600080fd5b5061033b61069736600461295e565b610eab565b3480156106a857600080fd5b5061033b6106b7366004612843565b610fe1565b3480156106c857600080fd5b506102bd7f9f2df0fed2c77648de5860a4cc508cd0818c85b8b8a1ab4ceeef8d981c8956a681565b3480156106fc57600080fd5b5061033b61070b366004612a0f565b611145565b34801561071c57600080fd5b506102bd61072b3660046127d4565b6001600160a01b03918216600090815260016020908152604080832093909416825291909152205490565b34801561076257600080fd5b506102bd7f65d7a28e3265b37a6474929f336521b332c1681b933f6cb9f3376673440d862a81565b34801561079657600080fd5b506107aa6107a53660046129b6565b61116b565b60408051825163ffffffff1681526020928301516001600160e01b03169281019290925201610261565b60006001600160e01b03198216637965db0b60e01b148061080557506301ffc9a760e01b6001600160e01b03198316145b92915050565b60606003805461081a90612c29565b80601f016020809104026020016040519081016040528092919081815260200182805461084690612c29565b80156108935780601f1061086857610100808354040283529160200191610893565b820191906000526020600020905b81548152906001019060200180831161087657829003601f168201915b5050505050905090565b60006108aa3384846111ef565b50600192915050565b60006108c0848484611313565b6001600160a01b03841660009081526001602090815260408083203384529091529020548281101561094a5760405162461bcd60e51b815260206004820152602860248201527f45524332303a207472616e7366657220616d6f756e74206578636565647320616044820152676c6c6f77616e636560c01b60648201526084015b60405180910390fd5b61095785338584036111ef565b506001949350505050565b60008281526006602052604090206001015461097e81336114f8565b610988838361155c565b505050565b60006109976115e2565b905090565b6001600160a01b0381163314610a0c5760405162461bcd60e51b815260206004820152602f60248201527f416363657373436f6e74726f6c3a2063616e206f6e6c792072656e6f756e636560448201526e103937b632b9903337b91039b2b63360891b6064820152608401610941565b610a1682826116d5565b5050565b3360008181526001602090815260408083206001600160a01b038716845290915281205490916108aa918590610a51908690612b76565b6111ef565b6000438210610aa75760405162461bcd60e51b815260206004820152601f60248201527f4552433230566f7465733a20626c6f636b206e6f7420796574206d696e6564006044820152606401610941565b6001600160a01b0383166000908152600960205260409020610ac9908361173c565b9392505050565b7f65d7a28e3265b37a6474929f336521b332c1681b933f6cb9f3376673440d862a610afb81336114f8565b610b036117f9565b50565b6000610b128585610e9e565b50846001600160a01b0316336001600160a01b03167fe19260aff97b920c7df27010903aeb9c8d2be5d310a2c67824cf3f15396e4c16868686604051610b5a93929190612b40565b60405180910390a3843b156109575761095785853486868080601f01602080910402602001604051908101604052809392919081815260200183838082843760009201919091525061188c92505050565b7f9f2df0fed2c77648de5860a4cc508cd0818c85b8b8a1ab4ceeef8d981c8956a6610bd681336114f8565b6109888383611966565b610b0333826119ef565b610b0333826119f9565b6001600160a01b03811660009081526009602052604081205461080590611a72565b6000610c22833361072b565b905081811015610c805760405162461bcd60e51b8152602060048201526024808201527f45524332303a206275726e20616d6f756e74206578636565647320616c6c6f77604482015263616e636560e01b6064820152608401610941565b610c8d83338484036111ef565b61098883836119ef565b6001600160a01b038116600090815260076020526040812054610805565b7f65d7a28e3265b37a6474929f336521b332c1681b933f6cb9f3376673440d862a610ce081336114f8565b610b03611adb565b6000438210610d395760405162461bcd60e51b815260206004820152601f60248201527f4552433230566f7465733a20626c6f636b206e6f7420796574206d696e6564006044820152606401610941565b610805600a8361173c565b60009182526006602090815260408084206001600160a01b0393909316845291905290205460ff1690565b60606004805461081a90612c29565b6001600160a01b0381166000908152600960205260408120548015610df2576001600160a01b0383166000908152600960205260409020610dc0600183612bcf565b81548110610dd057610dd0612c8a565b60009182526020909120015464010000000090046001600160e01b0316610df5565b60005b6001600160e01b03169392505050565b3360009081526001602090815260408083206001600160a01b038616845290915281205482811015610e875760405162461bcd60e51b815260206004820152602560248201527f45524332303a2064656372656173656420616c6c6f77616e63652062656c6f77604482015264207a65726f60d81b6064820152608401610941565b610e9433858584036111ef565b5060019392505050565b60006108aa338484611313565b83421115610efb5760405162461bcd60e51b815260206004820152601d60248201527f4552433230566f7465733a207369676e617475726520657870697265640000006044820152606401610941565b604080517fe48329057bfd03d55e49b547132e39cffd9c1820ad7b9d4c5307691425d15adf60208201526001600160a01b038816918101919091526060810186905260808101859052600090610f7590610f6d9060a00160405160208183030381529060405280519060200120611b56565b858585611ba4565b9050610f8081611bcc565b8614610fce5760405162461bcd60e51b815260206004820152601960248201527f4552433230566f7465733a20696e76616c6964206e6f6e6365000000000000006044820152606401610941565b610fd881886119f9565b50505050505050565b834211156110315760405162461bcd60e51b815260206004820152601d60248201527f45524332305065726d69743a206578706972656420646561646c696e650000006044820152606401610941565b60007f00000000000000000000000000000000000000000000000000000000000000008888886110608c611bcc565b6040805160208101969096526001600160a01b0394851690860152929091166060840152608083015260a082015260c0810186905260e00160405160208183030381529060405280519060200120905060006110bb82611b56565b905060006110cb82878787611ba4565b9050896001600160a01b0316816001600160a01b03161461112e5760405162461bcd60e51b815260206004820152601e60248201527f45524332305065726d69743a20696e76616c6964207369676e617475726500006044820152606401610941565b6111398a8a8a6111ef565b50505050505050505050565b60008281526006602052604090206001015461116181336114f8565b61098883836116d5565b60408051808201909152600080825260208201526001600160a01b0383166000908152600960205260409020805463ffffffff84169081106111af576111af612c8a565b60009182526020918290206040805180820190915291015463ffffffff8116825264010000000090046001600160e01b0316918101919091529392505050565b6001600160a01b0383166112515760405162461bcd60e51b8152602060048201526024808201527f45524332303a20617070726f76652066726f6d20746865207a65726f206164646044820152637265737360e01b6064820152608401610941565b6001600160a01b0382166112b25760405162461bcd60e51b815260206004820152602260248201527f45524332303a20617070726f766520746f20746865207a65726f206164647265604482015261737360f01b6064820152608401610941565b6001600160a01b0383811660008181526001602090815260408083209487168084529482529182902085905590518481527f8c5be1e5ebec7d5bd14f71427d1e84f3dd0314c0f7b2291e5b200ac8c7c3b925910160405180910390a3505050565b6001600160a01b0383166113775760405162461bcd60e51b815260206004820152602560248201527f45524332303a207472616e736665722066726f6d20746865207a65726f206164604482015264647265737360d81b6064820152608401610941565b6001600160a01b0382166113d95760405162461bcd60e51b815260206004820152602360248201527f45524332303a207472616e7366657220746f20746865207a65726f206164647260448201526265737360e81b6064820152608401610941565b6113e4838383611bf4565b6001600160a01b0383166000908152602081905260409020548181101561145c5760405162461bcd60e51b815260206004820152602660248201527f45524332303a207472616e7366657220616d6f756e7420657863656564732062604482015265616c616e636560d01b6064820152608401610941565b6001600160a01b03808516600090815260208190526040808220858503905591851681529081208054849290611493908490612b76565b92505081905550826001600160a01b0316846001600160a01b03167fddf252ad1be2c89b69c2b068fc378daa952ba7f163c4a11628f55a4df523b3ef846040516114df91815260200190565b60405180910390a36114f2848484611c3a565b50505050565b6115028282610d44565b610a165761151a816001600160a01b03166014611c45565b611525836020611c45565b604051602001611536929190612a88565b60408051601f198184030181529082905262461bcd60e51b825261094191600401612b2d565b6115668282610d44565b610a165760008281526006602090815260408083206001600160a01b03851684529091529020805460ff1916600117905561159e3390565b6001600160a01b0316816001600160a01b0316837f2f8788117e7eff1d82e926ec794901d17c78024a50270940304540a733656f0d60405160405180910390a45050565b60007f000000000000000000000000000000000000000000000000000000000000000046141561163157507f000000000000000000000000000000000000000000000000000000000000000090565b50604080517f00000000000000000000000000000000000000000000000000000000000000006020808301919091527f0000000000000000000000000000000000000000000000000000000000000000828401527f000000000000000000000000000000000000000000000000000000000000000060608301524660808301523060a0808401919091528351808403909101815260c0909201909252805191012090565b6116df8282610d44565b15610a165760008281526006602090815260408083206001600160a01b0385168085529252808320805460ff1916905551339285917ff6391f5c32d9c69d2a47ea670b442974b53935d1edc7fd64eb21e047a839171b9190a45050565b8154600090815b818110156117a05760006117578284611de1565b90508486828154811061176c5761176c612c8a565b60009182526020909120015463ffffffff16111561178c5780925061179a565b611797816001612b76565b91505b50611743565b81156117e457846117b2600184612bcf565b815481106117c2576117c2612c8a565b60009182526020909120015464010000000090046001600160e01b03166117e7565b60005b6001600160e01b031695945050505050565b60055460ff166118425760405162461bcd60e51b815260206004820152601460248201527314185d5cd8589b194e881b9bdd081c185d5cd95960621b6044820152606401610941565b6005805460ff191690557f5db9ee0a495bf2e6ff9c91a7834c1ba4fdd244a5e8aa4e537bd38aeae4b073aa335b6040516001600160a01b03909116815260200160405180910390a1565b8382156118fc57604051635260769b60e11b81526001600160a01b0382169063a4c0ed369085906118c590339089908890600401612afd565b6000604051808303818588803b1580156118de57600080fd5b505af11580156118f2573d6000803e3d6000fd5b505050505061195f565b604051635260769b60e11b81526001600160a01b0382169063a4c0ed369061192c90339088908790600401612afd565b600060405180830381600087803b15801561194657600080fd5b505af115801561195a573d6000803e3d6000fd5b505050505b5050505050565b7f00000000000000000000000000000000000000000000000000000000000000008161199160025490565b61199b9190612b76565b11156119e55760405162461bcd60e51b8152602060048201526019602482015278115490cc8c10d85c1c19590e8818d85c08195e18d959591959603a1b6044820152606401610941565b610a168282611dfc565b610a168282611e86565b6001600160a01b038281166000818152600860208181526040808420805485845282862054949093528787166001600160a01b03198416811790915590519190951694919391928592917f3134e8a2e6d97e929a7e54011ea5485d7d196dd5f0ba4d4ef95803e8e3fc257f9190a46114f2828483611e9e565b600063ffffffff821115611ad75760405162461bcd60e51b815260206004820152602660248201527f53616665436173743a2076616c756520646f65736e27742066697420696e203360448201526532206269747360d01b6064820152608401610941565b5090565b60055460ff1615611b215760405162461bcd60e51b815260206004820152601060248201526f14185d5cd8589b194e881c185d5cd95960821b6044820152606401610941565b6005805460ff191660011790557f62e78cea01bee320cd4e420270b5ea74000d11b0c9f74754ebdbfc544b05a25861186f3390565b6000610805611b636115e2565b8360405161190160f01b6020820152602281018390526042810182905260009060620160405160208183030381529060405280519060200120905092915050565b6000806000611bb587878787611fdb565b91509150611bc2816120c8565b5095945050505050565b6001600160a01b03811660009081526007602052604090208054600181018255905b50919050565b60055460ff16156109885760405162461bcd60e51b815260206004820152601060248201526f14185d5cd8589b194e881c185d5cd95960821b6044820152606401610941565b610988838383612283565b60606000611c54836002612bb0565b611c5f906002612b76565b67ffffffffffffffff811115611c7757611c77612ca0565b6040519080825280601f01601f191660200182016040528015611ca1576020820181803683370190505b509050600360fc1b81600081518110611cbc57611cbc612c8a565b60200101906001600160f81b031916908160001a905350600f60fb1b81600181518110611ceb57611ceb612c8a565b60200101906001600160f81b031916908160001a9053506000611d0f846002612bb0565b611d1a906001612b76565b90505b6001811115611d92576f181899199a1a9b1b9c1cb0b131b232b360811b85600f1660108110611d4e57611d4e612c8a565b1a60f81b828281518110611d6457611d64612c8a565b60200101906001600160f81b031916908160001a90535060049490941c93611d8b81612c12565b9050611d1d565b508315610ac95760405162461bcd60e51b815260206004820181905260248201527f537472696e67733a20686578206c656e67746820696e73756666696369656e746044820152606401610941565b6000611df06002848418612b8e565b610ac990848416612b76565b611e0682826122b5565b6002546001600160e01b031015611e785760405162461bcd60e51b815260206004820152603060248201527f4552433230566f7465733a20746f74616c20737570706c79207269736b73206f60448201526f766572666c6f77696e6720766f74657360801b6064820152608401610941565b6114f2600a61233e8361234a565b611e9082826124c3565b6114f2600a6126248361234a565b816001600160a01b0316836001600160a01b031614158015611ec05750600081115b15610988576001600160a01b03831615611f4e576001600160a01b03831660009081526009602052604081208190611efb906126248561234a565b91509150846001600160a01b03167fdec2bacdd2f05b59de34da9b523dff8be42e5e38e818c82fdb0bae774387a7248383604051611f43929190918252602082015260400190565b60405180910390a250505b6001600160a01b03821615610988576001600160a01b03821660009081526009602052604081208190611f849061233e8561234a565b91509150836001600160a01b03167fdec2bacdd2f05b59de34da9b523dff8be42e5e38e818c82fdb0bae774387a7248383604051611fcc929190918252602082015260400190565b60405180910390a25050505050565b6000807f7fffffffffffffffffffffffffffffff5d576e7357a4501ddfe92f46681b20a083111561201257506000905060036120bf565b8460ff16601b1415801561202a57508460ff16601c14155b1561203b57506000905060046120bf565b6040805160008082526020820180845289905260ff881692820192909252606081018690526080810185905260019060a0016020604051602081039080840390855afa15801561208f573d6000803e3d6000fd5b5050604051601f1901519150506001600160a01b0381166120b8576000600192509250506120bf565b9150600090505b94509492505050565b60008160048111156120dc576120dc612c74565b14156120e55750565b60018160048111156120f9576120f9612c74565b14156121475760405162461bcd60e51b815260206004820152601860248201527f45434453413a20696e76616c6964207369676e617475726500000000000000006044820152606401610941565b600281600481111561215b5761215b612c74565b14156121a95760405162461bcd60e51b815260206004820152601f60248201527f45434453413a20696e76616c6964207369676e6174757265206c656e677468006044820152606401610941565b60038160048111156121bd576121bd612c74565b14156122165760405162461bcd60e51b815260206004820152602260248201527f45434453413a20696e76616c6964207369676e6174757265202773272076616c604482015261756560f01b6064820152608401610941565b600481600481111561222a5761222a612c74565b1415610b035760405162461bcd60e51b815260206004820152602260248201527f45434453413a20696e76616c6964207369676e6174757265202776272076616c604482015261756560f01b6064820152608401610941565b6001600160a01b0383811660009081526008602052604080822054858416835291205461098892918216911683611e9e565b7f0000000000000000000000000000000000000000000000000000000000000000816122e060025490565b6122ea9190612b76565b11156123345760405162461bcd60e51b8152602060048201526019602482015278115490cc8c10d85c1c19590e8818d85c08195e18d959591959603a1b6044820152606401610941565b610a168282612630565b6000610ac98284612b76565b8254600090819080156123955785612363600183612bcf565b8154811061237357612373612c8a565b60009182526020909120015464010000000090046001600160e01b0316612398565b60005b6001600160e01b031692506123b183858763ffffffff16565b91506000811180156123ef575043866123cb600184612bcf565b815481106123db576123db612c8a565b60009182526020909120015463ffffffff16145b1561244f576123fd82612723565b86612409600184612bcf565b8154811061241957612419612c8a565b9060005260206000200160000160046101000a8154816001600160e01b0302191690836001600160e01b031602179055506124ba565b85604051806040016040528061246443611a72565b63ffffffff16815260200161247885612723565b6001600160e01b0390811690915282546001810184556000938452602093849020835194909301519091166401000000000263ffffffff909316929092179101555b50935093915050565b6001600160a01b0382166125235760405162461bcd60e51b815260206004820152602160248201527f45524332303a206275726e2066726f6d20746865207a65726f206164647265736044820152607360f81b6064820152608401610941565b61252f82600083611bf4565b6001600160a01b038216600090815260208190526040902054818110156125a35760405162461bcd60e51b815260206004820152602260248201527f45524332303a206275726e20616d6f756e7420657863656564732062616c616e604482015261636560f01b6064820152608401610941565b6001600160a01b03831660009081526020819052604081208383039055600280548492906125d2908490612bcf565b90915550506040518281526000906001600160a01b038516907fddf252ad1be2c89b69c2b068fc378daa952ba7f163c4a11628f55a4df523b3ef9060200160405180910390a361098883600084611c3a565b6000610ac98284612bcf565b6001600160a01b0382166126865760405162461bcd60e51b815260206004820152601f60248201527f45524332303a206d696e7420746f20746865207a65726f2061646472657373006044820152606401610941565b61269260008383611bf4565b80600260008282546126a49190612b76565b90915550506001600160a01b038216600090815260208190526040812080548392906126d1908490612b76565b90915550506040518181526001600160a01b038316906000907fddf252ad1be2c89b69c2b068fc378daa952ba7f163c4a11628f55a4df523b3ef9060200160405180910390a3610a1660008383611c3a565b60006001600160e01b03821115611ad75760405162461bcd60e51b815260206004820152602760248201527f53616665436173743a2076616c756520646f65736e27742066697420696e20326044820152663234206269747360c81b6064820152608401610941565b80356001600160a01b03811681146127a357600080fd5b919050565b803560ff811681146127a357600080fd5b6000602082840312156127cb57600080fd5b610ac98261278c565b600080604083850312156127e757600080fd5b6127f08361278c565b91506127fe6020840161278c565b90509250929050565b60008060006060848603121561281c57600080fd5b6128258461278c565b92506128336020850161278c565b9150604084013590509250925092565b600080600080600080600060e0888a03121561285e57600080fd5b6128678861278c565b96506128756020890161278c565b95506040880135945060608801359350612891608089016127a8565b925060a0880135915060c0880135905092959891949750929550565b600080604083850312156128c057600080fd5b6128c98361278c565b946020939093013593505050565b600080600080606085870312156128ed57600080fd5b6128f68561278c565b935060208501359250604085013567ffffffffffffffff8082111561291a57600080fd5b818701915087601f83011261292e57600080fd5b81358181111561293d57600080fd5b88602082850101111561294f57600080fd5b95989497505060200194505050565b60008060008060008060c0878903121561297757600080fd5b6129808761278c565b9550602087013594506040870135935061299c606088016127a8565b92506080870135915060a087013590509295509295509295565b600080604083850312156129c957600080fd5b6129d28361278c565b9150602083013563ffffffff811681146129eb57600080fd5b809150509250929050565b600060208284031215612a0857600080fd5b5035919050565b60008060408385031215612a2257600080fd5b823591506127fe6020840161278c565b600060208284031215612a4457600080fd5b81356001600160e01b031981168114610ac957600080fd5b60008151808452612a74816020860160208601612be6565b601f01601f19169290920160200192915050565b7f416363657373436f6e74726f6c3a206163636f756e7420000000000000000000815260008351612ac0816017850160208801612be6565b7001034b99036b4b9b9b4b733903937b6329607d1b6017918401918201528351612af1816028840160208801612be6565b01602801949350505050565b60018060a01b0384168152826020820152606060408201526000612b246060830184612a5c565b95945050505050565b602081526000610ac96020830184612a5c565b83815260406020820152816040820152818360608301376000818301606090810191909152601f909201601f1916010192915050565b60008219821115612b8957612b89612c5e565b500190565b600082612bab57634e487b7160e01b600052601260045260246000fd5b500490565b6000816000190483118215151615612bca57612bca612c5e565b500290565b600082821015612be157612be1612c5e565b500390565b60005b83811015612c01578181015183820152602001612be9565b838111156114f25750506000910152565b600081612c2157612c21612c5e565b506000190190565b600181811c90821680612c3d57607f821691505b60208210811415611bee57634e487b7160e01b600052602260045260246000fd5b634e487b7160e01b600052601160045260246000fd5b634e487b7160e01b600052602160045260246000fd5b634e487b7160e01b600052603260045260246000fd5b634e487b7160e01b600052604160045260246000fdfea26469706673582212202feb33d347e083a95525a1988c4ef238cd85027536b38c7a2b6165c7b428ccf864736f6c63430008070033",
  "immutableReferences": {
    "1165": [
      {
        "length": 32,
        "start": 872
      },
      {
        "length": 32,
        "start": 6504
      },
      {
        "length": 32,
        "start": 8887
      }
    ],
    "1921": [
      {
        "length": 32,
        "start": 4149
      }
    ],
    "2770": [
      {
        "length": 32,
        "start": 5647
      }
    ],
    "2772": [
      {
        "length": 32,
        "start": 5606
      }
    ],
    "2774": [
      {
        "length": 32,
        "start": 5730
      }
    ],
    "2776": [
      {
        "length": 32,
        "start": 5767
      }
    ],
    "2778": [
      {
        "length": 32,
        "start": 5688
      }
    ]
  },
  "source": "// SPDX-License-Identifier: MIT\npragma solidity 0.8.7;\n\nimport \"@openzeppelin/contracts/token/ERC20/ERC20.sol\";\nimport \"@openzeppelin/contracts/token/ERC20/extensions/ERC20Burnable.sol\";\nimport \"@openzeppelin/contracts/token/ERC20/extensions/ERC20Capped.sol\";\nimport \"@openzeppelin/contracts/security/Pausable.sol\";\nimport \"@openzeppelin/contracts/access/AccessControl.sol\";\nimport \"@openzeppelin/contracts/token/ERC20/extensions/draft-ERC20Permit.sol\";\nimport \"@openzeppelin/contracts/token/ERC20/extensions/ERC20Votes.sol\";\nimport \"./ERC677Receiver.sol\";\n\ncontract Web3ActionsToken is ERC20, ERC20Burnable, ERC20Capped, Pausable, AccessControl, ERC20Permit, ERC20Votes {\n    bytes32 public constant PAUSER_ROLE = keccak256(\"PAUSER_ROLE\");\n    bytes32 public constant MINTER_ROLE = keccak256(\"MINTER_ROLE\");\n\n    constructor()\n        ERC20(\"Web3 Actions Token\", \"ACTION\")\n        ERC20Permit(\"Web3 Actions Token\")\n        ERC20Capped(1000000000000000000000000)\n    {\n        _setupRole(DEFAULT_ADMIN_ROLE, msg.sender);\n        _setupRole(PAUSER_ROLE, msg.sender);\n        _setupRole(MINTER_ROLE, msg.sender);\n    }\n\n    function pause() public onlyRole(PAUSER_ROLE) {\n        _pause();\n    }\n\n    function unpause() public onlyRole(PAUSER_ROLE) {\n        _unpause();\n    }\n\n    function mint(address to, uint256 amount) public onlyRole(MINTER_ROLE) {\n        _mint(to, amount);\n    }\n\n    function _beforeTokenTransfer(address from, address to, uint256 amount)\n        internal\n        whenNotPaused\n        override\n    {\n        super._beforeTokenTransfer(from, to, amount);\n    }\n\n    // The following functions are overrides required by Solidity.\n\n    function _afterTokenTransfer(address from, address to, uint256 amount)\n        internal\n        override(ERC20, ERC20Votes)\n    {\n        super._afterTokenTransfer(from, to, amount);\n    }\n\n    function _mint(address to, uint256 amount)\n        internal\n        override(ERC20, ERC20Votes, ERC20Capped)\n    {\n        require(ERC20.totalSupply() + amount <= cap(), \"ERC20Capped: cap exceeded\");\n        super._mint(to, amount);\n    }\n\n    function _burn(address account, uint256 amount)\n        internal\n        override(ERC20, ERC20Votes)\n    {\n        super._burn(account, amount);\n    }\n\n    // ERC677\n\n    event Transfer(address indexed from, address indexed to, uint value, bytes data);\n\n    /**\n  * @dev transfer token to a contract address with additional data if the recipient is a contact.\n  * @param _to The address to transfer to.\n  * @param _value The amount to be transferred.\n  * @param _data The extra data to be passed to the receiving contract.\n  */\n  function transferAndCall(address _to, uint _value, bytes calldata _data)\n    public\n    payable\n    returns (bool success)\n  {\n    super.transfer(_to, _value);\n    emit Transfer(msg.sender, _to, _value, _data);\n    if (isContract(_to)) {\n      contractFallback(_to, _value, msg.value, _data);\n    }\n    return true;\n  }\n\n\n  // PRIVATE\n\n  function contractFallback(address _to, uint _value, uint _eth, bytes memory _data)\n    private\n  {\n    ERC677Receiver receiver = ERC677Receiver(_to);\n    if (_eth > 0) {\n      receiver.onTokenTransfer{value: _eth}(msg.sender, _value, _data);\n    } else {\n      receiver.onTokenTransfer(msg.sender, _value, _data);\n    }\n  }\n\n  function isContract(address _addr)\n    private\n    view\n    returns (bool hasCode)\n  {\n    uint length;\n    assembly { length := extcodesize(_addr) }\n    return length > 0;\n  }\n}\n",
  "sourcePath": "/home/mkt/Projects/web3actions/contracts/src/token/Web3ActionsToken.sol",
  "compiler": {
    "name": "solc",
    "version": "0.8.7+commit.e28d00a7.Emscripten.clang"
  },
  "schemaVersion": "3.4.3",
  "updatedAt": "2021-09-23T22:01:20.263Z",
  "networkType": "ethereum",
  "devdoc": {
    "kind": "dev",
    "methods": {
      "DOMAIN_SEPARATOR()": {
        "details": "See {IERC20Permit-DOMAIN_SEPARATOR}."
      },
      "allowance(address,address)": {
        "details": "See {IERC20-allowance}."
      },
      "approve(address,uint256)": {
        "details": "See {IERC20-approve}. Requirements: - `spender` cannot be the zero address."
      },
      "balanceOf(address)": {
        "details": "See {IERC20-balanceOf}."
      },
      "burn(uint256)": {
        "details": "Destroys `amount` tokens from the caller. See {ERC20-_burn}."
      },
      "burnFrom(address,uint256)": {
        "details": "Destroys `amount` tokens from `account`, deducting from the caller's allowance. See {ERC20-_burn} and {ERC20-allowance}. Requirements: - the caller must have allowance for ``accounts``'s tokens of at least `amount`."
      },
      "cap()": {
        "details": "Returns the cap on the token's total supply."
      },
      "checkpoints(address,uint32)": {
        "details": "Get the `pos`-th checkpoint for `account`."
      },
      "decimals()": {
        "details": "Returns the number of decimals used to get its user representation. For example, if `decimals` equals `2`, a balance of `505` tokens should be displayed to a user as `5.05` (`505 / 10 ** 2`). Tokens usually opt for a value of 18, imitating the relationship between Ether and Wei. This is the value {ERC20} uses, unless this function is overridden; NOTE: This information is only used for _display_ purposes: it in no way affects any of the arithmetic of the contract, including {IERC20-balanceOf} and {IERC20-transfer}."
      },
      "decreaseAllowance(address,uint256)": {
        "details": "Atomically decreases the allowance granted to `spender` by the caller. This is an alternative to {approve} that can be used as a mitigation for problems described in {IERC20-approve}. Emits an {Approval} event indicating the updated allowance. Requirements: - `spender` cannot be the zero address. - `spender` must have allowance for the caller of at least `subtractedValue`."
      },
      "delegate(address)": {
        "details": "Delegate votes from the sender to `delegatee`."
      },
      "delegateBySig(address,uint256,uint256,uint8,bytes32,bytes32)": {
        "details": "Delegates votes from signer to `delegatee`"
      },
      "delegates(address)": {
        "details": "Get the address `account` is currently delegating to."
      },
      "getPastTotalSupply(uint256)": {
        "details": "Retrieve the `totalSupply` at the end of `blockNumber`. Note, this value is the sum of all balances. It is but NOT the sum of all the delegated votes! Requirements: - `blockNumber` must have been already mined"
      },
      "getPastVotes(address,uint256)": {
        "details": "Retrieve the number of votes for `account` at the end of `blockNumber`. Requirements: - `blockNumber` must have been already mined"
      },
      "getRoleAdmin(bytes32)": {
        "details": "Returns the admin role that controls `role`. See {grantRole} and {revokeRole}. To change a role's admin, use {_setRoleAdmin}."
      },
      "getVotes(address)": {
        "details": "Gets the current votes balance for `account`"
      },
      "grantRole(bytes32,address)": {
        "details": "Grants `role` to `account`. If `account` had not been already granted `role`, emits a {RoleGranted} event. Requirements: - the caller must have ``role``'s admin role."
      },
      "hasRole(bytes32,address)": {
        "details": "Returns `true` if `account` has been granted `role`."
      },
      "increaseAllowance(address,uint256)": {
        "details": "Atomically increases the allowance granted to `spender` by the caller. This is an alternative to {approve} that can be used as a mitigation for problems described in {IERC20-approve}. Emits an {Approval} event indicating the updated allowance. Requirements: - `spender` cannot be the zero address."
      },
      "name()": {
        "details": "Returns the name of the token."
      },
      "nonces(address)": {
        "details": "See {IERC20Permit-nonces}."
      },
      "numCheckpoints(address)": {
        "details": "Get number of checkpoints for `account`."
      },
      "paused()": {
        "details": "Returns true if the contract is paused, and false otherwise."
      },
      "permit(address,address,uint256,uint256,uint8,bytes32,bytes32)": {
        "details": "See {IERC20Permit-permit}."
      },
      "renounceRole(bytes32,address)": {
        "details": "Revokes `role` from the calling account. Roles are often managed via {grantRole} and {revokeRole}: this function's purpose is to provide a mechanism for accounts to lose their privileges if they are compromised (such as when a trusted device is misplaced). If the calling account had been granted `role`, emits a {RoleRevoked} event. Requirements: - the caller must be `account`."
      },
      "revokeRole(bytes32,address)": {
        "details": "Revokes `role` from `account`. If `account` had been granted `role`, emits a {RoleRevoked} event. Requirements: - the caller must have ``role``'s admin role."
      },
      "supportsInterface(bytes4)": {
        "details": "See {IERC165-supportsInterface}."
      },
      "symbol()": {
        "details": "Returns the symbol of the token, usually a shorter version of the name."
      },
      "totalSupply()": {
        "details": "See {IERC20-totalSupply}."
      },
      "transfer(address,uint256)": {
        "details": "See {IERC20-transfer}. Requirements: - `recipient` cannot be the zero address. - the caller must have a balance of at least `amount`."
      },
      "transferAndCall(address,uint256,bytes)": {
        "details": "transfer token to a contract address with additional data if the recipient is a contact.",
        "params": {
          "_data": "The extra data to be passed to the receiving contract.",
          "_to": "The address to transfer to.",
          "_value": "The amount to be transferred."
        }
      },
      "transferFrom(address,address,uint256)": {
        "details": "See {IERC20-transferFrom}. Emits an {Approval} event indicating the updated allowance. This is not required by the EIP. See the note at the beginning of {ERC20}. Requirements: - `sender` and `recipient` cannot be the zero address. - `sender` must have a balance of at least `amount`. - the caller must have allowance for ``sender``'s tokens of at least `amount`."
      }
    },
    "version": 1
  },
  "userdoc": {
    "kind": "user",
    "methods": {},
    "version": 1
  }
}